{
  "_format": "hh-sol-artifact-1",
  "contractName": "WrappedGoatBitcoin",
  "sourceName": "contracts/bitcoin/WrappedBitcoin.sol",
  "abi": [
    {
      "inputs": [],
      "stateMutability": "nonpayable",
      "type": "constructor"
    },
    {
      "inputs": [
        {
          "internalType": "address",
          "name": "account",
          "type": "address"
        }
      ],
      "name": "AddressInsufficientBalance",
      "type": "error"
    },
    {
      "inputs": [],
      "name": "ECDSAInvalidSignature",
      "type": "error"
    },
    {
      "inputs": [
        {
          "internalType": "uint256",
          "name": "length",
          "type": "uint256"
        }
      ],
      "name": "ECDSAInvalidSignatureLength",
      "type": "error"
    },
    {
      "inputs": [
        {
          "internalType": "bytes32",
          "name": "s",
          "type": "bytes32"
        }
      ],
      "name": "ECDSAInvalidSignatureS",
      "type": "error"
    },
    {
      "inputs": [
        {
          "internalType": "address",
          "name": "spender",
          "type": "address"
        },
        {
          "internalType": "uint256",
          "name": "allowance",
          "type": "uint256"
        },
        {
          "internalType": "uint256",
          "name": "needed",
          "type": "uint256"
        }
      ],
      "name": "ERC20InsufficientAllowance",
      "type": "error"
    },
    {
      "inputs": [
        {
          "internalType": "address",
          "name": "sender",
          "type": "address"
        },
        {
          "internalType": "uint256",
          "name": "balance",
          "type": "uint256"
        },
        {
          "internalType": "uint256",
          "name": "needed",
          "type": "uint256"
        }
      ],
      "name": "ERC20InsufficientBalance",
      "type": "error"
    },
    {
      "inputs": [
        {
          "internalType": "address",
          "name": "approver",
          "type": "address"
        }
      ],
      "name": "ERC20InvalidApprover",
      "type": "error"
    },
    {
      "inputs": [
        {
          "internalType": "address",
          "name": "receiver",
          "type": "address"
        }
      ],
      "name": "ERC20InvalidReceiver",
      "type": "error"
    },
    {
      "inputs": [
        {
          "internalType": "address",
          "name": "sender",
          "type": "address"
        }
      ],
      "name": "ERC20InvalidSender",
      "type": "error"
    },
    {
      "inputs": [
        {
          "internalType": "address",
          "name": "spender",
          "type": "address"
        }
      ],
      "name": "ERC20InvalidSpender",
      "type": "error"
    },
    {
      "inputs": [
        {
          "internalType": "uint256",
          "name": "deadline",
          "type": "uint256"
        }
      ],
      "name": "ERC2612ExpiredSignature",
      "type": "error"
    },
    {
      "inputs": [
        {
          "internalType": "address",
          "name": "signer",
          "type": "address"
        },
        {
          "internalType": "address",
          "name": "owner",
          "type": "address"
        }
      ],
      "name": "ERC2612InvalidSigner",
      "type": "error"
    },
    {
      "inputs": [],
      "name": "FailedInnerCall",
      "type": "error"
    },
    {
      "inputs": [
        {
          "internalType": "address",
          "name": "account",
          "type": "address"
        },
        {
          "internalType": "uint256",
          "name": "currentNonce",
          "type": "uint256"
        }
      ],
      "name": "InvalidAccountNonce",
      "type": "error"
    },
    {
      "inputs": [],
      "name": "InvalidShortString",
      "type": "error"
    },
    {
      "inputs": [
        {
          "internalType": "string",
          "name": "str",
          "type": "string"
        }
      ],
      "name": "StringTooLong",
      "type": "error"
    },
    {
      "anonymous": false,
      "inputs": [
        {
          "indexed": true,
          "internalType": "address",
          "name": "owner",
          "type": "address"
        },
        {
          "indexed": true,
          "internalType": "address",
          "name": "spender",
          "type": "address"
        },
        {
          "indexed": false,
          "internalType": "uint256",
          "name": "value",
          "type": "uint256"
        }
      ],
      "name": "Approval",
      "type": "event"
    },
    {
      "anonymous": false,
      "inputs": [
        {
          "indexed": true,
          "internalType": "address",
          "name": "dst",
          "type": "address"
        },
        {
          "indexed": false,
          "internalType": "uint256",
          "name": "wad",
          "type": "uint256"
        }
      ],
      "name": "Deposit",
      "type": "event"
    },
    {
      "anonymous": false,
      "inputs": [],
      "name": "EIP712DomainChanged",
      "type": "event"
    },
    {
      "anonymous": false,
      "inputs": [
        {
          "indexed": true,
          "internalType": "address",
          "name": "from",
          "type": "address"
        },
        {
          "indexed": true,
          "internalType": "address",
          "name": "to",
          "type": "address"
        },
        {
          "indexed": false,
          "internalType": "uint256",
          "name": "value",
          "type": "uint256"
        }
      ],
      "name": "Transfer",
      "type": "event"
    },
    {
      "anonymous": false,
      "inputs": [
        {
          "indexed": true,
          "internalType": "address",
          "name": "src",
          "type": "address"
        },
        {
          "indexed": false,
          "internalType": "uint256",
          "name": "wad",
          "type": "uint256"
        }
      ],
      "name": "Withdrawal",
      "type": "event"
    },
    {
      "inputs": [],
      "name": "DOMAIN_SEPARATOR",
      "outputs": [
        {
          "internalType": "bytes32",
          "name": "",
          "type": "bytes32"
        }
      ],
      "stateMutability": "view",
      "type": "function"
    },
    {
      "inputs": [
        {
          "internalType": "address",
          "name": "owner",
          "type": "address"
        },
        {
          "internalType": "address",
          "name": "spender",
          "type": "address"
        }
      ],
      "name": "allowance",
      "outputs": [
        {
          "internalType": "uint256",
          "name": "",
          "type": "uint256"
        }
      ],
      "stateMutability": "view",
      "type": "function"
    },
    {
      "inputs": [
        {
          "internalType": "address",
          "name": "spender",
          "type": "address"
        },
        {
          "internalType": "uint256",
          "name": "value",
          "type": "uint256"
        }
      ],
      "name": "approve",
      "outputs": [
        {
          "internalType": "bool",
          "name": "",
          "type": "bool"
        }
      ],
      "stateMutability": "nonpayable",
      "type": "function"
    },
    {
      "inputs": [
        {
          "internalType": "address",
          "name": "account",
          "type": "address"
        }
      ],
      "name": "balanceOf",
      "outputs": [
        {
          "internalType": "uint256",
          "name": "",
          "type": "uint256"
        }
      ],
      "stateMutability": "view",
      "type": "function"
    },
    {
      "inputs": [],
      "name": "decimals",
      "outputs": [
        {
          "internalType": "uint8",
          "name": "",
          "type": "uint8"
        }
      ],
      "stateMutability": "view",
      "type": "function"
    },
    {
      "inputs": [],
      "name": "deposit",
      "outputs": [],
      "stateMutability": "payable",
      "type": "function"
    },
    {
      "inputs": [],
      "name": "eip712Domain",
      "outputs": [
        {
          "internalType": "bytes1",
          "name": "fields",
          "type": "bytes1"
        },
        {
          "internalType": "string",
          "name": "name",
          "type": "string"
        },
        {
          "internalType": "string",
          "name": "version",
          "type": "string"
        },
        {
          "internalType": "uint256",
          "name": "chainId",
          "type": "uint256"
        },
        {
          "internalType": "address",
          "name": "verifyingContract",
          "type": "address"
        },
        {
          "internalType": "bytes32",
          "name": "salt",
          "type": "bytes32"
        },
        {
          "internalType": "uint256[]",
          "name": "extensions",
          "type": "uint256[]"
        }
      ],
      "stateMutability": "view",
      "type": "function"
    },
    {
      "inputs": [],
      "name": "name",
      "outputs": [
        {
          "internalType": "string",
          "name": "",
          "type": "string"
        }
      ],
      "stateMutability": "view",
      "type": "function"
    },
    {
      "inputs": [
        {
          "internalType": "address",
          "name": "owner",
          "type": "address"
        }
      ],
      "name": "nonces",
      "outputs": [
        {
          "internalType": "uint256",
          "name": "",
          "type": "uint256"
        }
      ],
      "stateMutability": "view",
      "type": "function"
    },
    {
      "inputs": [
        {
          "internalType": "address",
          "name": "owner",
          "type": "address"
        },
        {
          "internalType": "address",
          "name": "spender",
          "type": "address"
        },
        {
          "internalType": "uint256",
          "name": "value",
          "type": "uint256"
        },
        {
          "internalType": "uint256",
          "name": "deadline",
          "type": "uint256"
        },
        {
          "internalType": "uint8",
          "name": "v",
          "type": "uint8"
        },
        {
          "internalType": "bytes32",
          "name": "r",
          "type": "bytes32"
        },
        {
          "internalType": "bytes32",
          "name": "s",
          "type": "bytes32"
        }
      ],
      "name": "permit",
      "outputs": [],
      "stateMutability": "nonpayable",
      "type": "function"
    },
    {
      "inputs": [],
      "name": "symbol",
      "outputs": [
        {
          "internalType": "string",
          "name": "",
          "type": "string"
        }
      ],
      "stateMutability": "view",
      "type": "function"
    },
    {
      "inputs": [],
      "name": "totalSupply",
      "outputs": [
        {
          "internalType": "uint256",
          "name": "",
          "type": "uint256"
        }
      ],
      "stateMutability": "view",
      "type": "function"
    },
    {
      "inputs": [
        {
          "internalType": "address",
          "name": "to",
          "type": "address"
        },
        {
          "internalType": "uint256",
          "name": "value",
          "type": "uint256"
        }
      ],
      "name": "transfer",
      "outputs": [
        {
          "internalType": "bool",
          "name": "",
          "type": "bool"
        }
      ],
      "stateMutability": "nonpayable",
      "type": "function"
    },
    {
      "inputs": [
        {
          "internalType": "address",
          "name": "from",
          "type": "address"
        },
        {
          "internalType": "address",
          "name": "to",
          "type": "address"
        },
        {
          "internalType": "uint256",
          "name": "value",
          "type": "uint256"
        }
      ],
      "name": "transferFrom",
      "outputs": [
        {
          "internalType": "bool",
          "name": "",
          "type": "bool"
        }
      ],
      "stateMutability": "nonpayable",
      "type": "function"
    },
    {
      "inputs": [
        {
          "internalType": "uint256",
          "name": "wad",
          "type": "uint256"
        }
      ],
      "name": "withdraw",
      "outputs": [],
      "stateMutability": "nonpayable",
      "type": "function"
    },
    {
      "stateMutability": "payable",
      "type": "receive"
    }
  ],
  "bytecode": "0x610160604052348015610010575f5ffd5b5060405180604001604052806005815260200164574742544360d81b81525080604051806040016040528060018152602001603160f81b8152506040518060400160405280601481526020017f5772617070656420476f617420426974636f696e00000000000000000000000081525060405180604001604052806005815260200164574742544360d81b81525081600390816100ad9190610284565b5060046100ba8282610284565b506100ca91508390506005610174565b610120526100d9816006610174565b61014052815160208084019190912060e052815190820120610100524660a05261016560e05161010051604080517f8b73c3c69bb8fe3d512ecc4cf759cc79239f7b179b0ffacaa9a75d522b39400f60208201529081019290925260608201524660808201523060a08201525f9060c00160405160208183030381529060405280519060200120905090565b60805250503060c05250610396565b5f60208351101561018f57610188836101a6565b90506101a0565b8161019a8482610284565b5060ff90505b92915050565b5f5f829050601f815111156101d9578260405163305a27a960e01b81526004016101d0919061033e565b60405180910390fd5b80516101e482610373565b179392505050565b634e487b7160e01b5f52604160045260245ffd5b600181811c9082168061021457607f821691505b60208210810361023257634e487b7160e01b5f52602260045260245ffd5b50919050565b601f82111561027f57805f5260205f20601f840160051c8101602085101561025d5750805b601f840160051c820191505b8181101561027c575f8155600101610269565b50505b505050565b81516001600160401b0381111561029d5761029d6101ec565b6102b1816102ab8454610200565b84610238565b6020601f8211600181146102e3575f83156102cc5750848201515b5f19600385901b1c1916600184901b17845561027c565b5f84815260208120601f198516915b8281101561031257878501518255602094850194600190920191016102f2565b508482101561032f57868401515f19600387901b60f8161c191681555b50505050600190811b01905550565b602081525f82518060208401528060208501604085015e5f604082850101526040601f19601f83011684010191505092915050565b80516020808301519190811015610232575f1960209190910360031b1b16919050565b60805160a05160c05160e0516101005161012051610140516110fc6103e75f395f61095901525f61092c01525f6108d501525f6108ad01525f61080801525f61083201525f61085c01526110fc5ff3fe6080604052600436106100e7575f3560e01c806370a0823111610087578063a9059cbb11610057578063a9059cbb1461026c578063d0e30db01461028b578063d505accf14610293578063dd62ed3e146102b2575f5ffd5b806370a08231146101de5780637ecebe001461021257806384b0196e1461023157806395d89b4114610258575f5ffd5b806323b872dd116100c257806323b872dd146101715780632e1a7d4d14610190578063313ce567146101af5780633644e515146101ca575f5ffd5b806306fdde03146100fa578063095ea7b31461012457806318160ddd14610153575f5ffd5b366100f6576100f46102f6565b005b5f5ffd5b348015610105575f5ffd5b5061010e610337565b60405161011b9190610e8a565b60405180910390f35b34801561012f575f5ffd5b5061014361013e366004610ebe565b6103c7565b604051901515815260200161011b565b34801561015e575f5ffd5b506002545b60405190815260200161011b565b34801561017c575f5ffd5b5061014361018b366004610ee6565b6103e0565b34801561019b575f5ffd5b506100f46101aa366004610f20565b610403565b3480156101ba575f5ffd5b506040516012815260200161011b565b3480156101d5575f5ffd5b5061016361044f565b3480156101e9575f5ffd5b506101636101f8366004610f37565b6001600160a01b03165f9081526020819052604090205490565b34801561021d575f5ffd5b5061016361022c366004610f37565b61045d565b34801561023c575f5ffd5b5061024561047a565b60405161011b9796959493929190610f50565b348015610263575f5ffd5b5061010e6104bc565b348015610277575f5ffd5b50610143610286366004610ebe565b6104cb565b6100f46102f6565b34801561029e575f5ffd5b506100f46102ad366004610fe6565b6104d8565b3480156102bd575f5ffd5b506101636102cc366004611053565b6001600160a01b039182165f90815260016020908152604080832093909416825291909152205490565b6103003334610613565b60405134815233907fe1fffcc4923d04b559f4d29a8bfc6cda04eb5b0d3c460751c2402c5c5cc9109c9060200160405180910390a2565b60606003805461034690611084565b80601f016020809104026020016040519081016040528092919081815260200182805461037290611084565b80156103bd5780601f10610394576101008083540402835291602001916103bd565b820191905f5260205f20905b8154815290600101906020018083116103a057829003601f168201915b5050505050905090565b5f336103d481858561064b565b60019150505b92915050565b5f336103ed85828561065d565b6103f88585856106d8565b506001949350505050565b61040d3382610735565b6104173382610769565b60405181815233907f7fcf532c15f0a6db0bd6d0e038bea71d30d808c7d98cb3bf7268a95bf5081b659060200160405180910390a250565b5f6104586107fc565b905090565b6001600160a01b0381165f908152600760205260408120546103da565b5f6060805f5f5f606061048b610925565b610493610952565b604080515f80825260208201909252600f60f81b9b939a50919850469750309650945092509050565b60606004805461034690611084565b5f336103d48185856106d8565b834211156105015760405163313c898160e11b8152600481018590526024015b60405180910390fd5b5f7f6e71edae12b1b97f4d1f60370fef10105fa2faae0126114a169c64845d6126c988888861054c8c6001600160a01b03165f90815260076020526040902080546001810190915590565b6040805160208101969096526001600160a01b0394851690860152929091166060840152608083015260a082015260c0810186905260e0016040516020818303038152906040528051906020012090505f6105a68261097f565b90505f6105b5828787876109ab565b9050896001600160a01b0316816001600160a01b0316146105fc576040516325c0072360e11b81526001600160a01b0380831660048301528b1660248201526044016104f8565b6106078a8a8a61064b565b50505050505050505050565b6001600160a01b03821661063c5760405163ec442f0560e01b81525f60048201526024016104f8565b6106475f83836109d7565b5050565b6106588383836001610afd565b505050565b6001600160a01b038381165f908152600160209081526040808320938616835292905220545f1981146106d257818110156106c457604051637dc7a0d960e11b81526001600160a01b038416600482015260248101829052604481018390526064016104f8565b6106d284848484035f610afd565b50505050565b6001600160a01b03831661070157604051634b637e8f60e11b81525f60048201526024016104f8565b6001600160a01b03821661072a5760405163ec442f0560e01b81525f60048201526024016104f8565b6106588383836109d7565b6001600160a01b03821661075e57604051634b637e8f60e11b81525f60048201526024016104f8565b610647825f836109d7565b8047101561078c5760405163cd78605960e01b81523060048201526024016104f8565b5f826001600160a01b0316826040515f6040518083038185875af1925050503d805f81146107d5576040519150601f19603f3d011682016040523d82523d5f602084013e6107da565b606091505b505090508061065857604051630a12f52160e11b815260040160405180910390fd5b5f306001600160a01b037f00000000000000000000000000000000000000000000000000000000000000001614801561085457507f000000000000000000000000000000000000000000000000000000000000000046145b1561087e57507f000000000000000000000000000000000000000000000000000000000000000090565b610458604080517f8b73c3c69bb8fe3d512ecc4cf759cc79239f7b179b0ffacaa9a75d522b39400f60208201527f0000000000000000000000000000000000000000000000000000000000000000918101919091527f000000000000000000000000000000000000000000000000000000000000000060608201524660808201523060a08201525f9060c00160405160208183030381529060405280519060200120905090565b60606104587f00000000000000000000000000000000000000000000000000000000000000006005610bcf565b60606104587f00000000000000000000000000000000000000000000000000000000000000006006610bcf565b5f6103da61098b6107fc565b8360405161190160f01b8152600281019290925260228201526042902090565b5f5f5f5f6109bb88888888610c78565b9250925092506109cb8282610d40565b50909695505050505050565b6001600160a01b038316610a01578060025f8282546109f691906110bc565b90915550610a719050565b6001600160a01b0383165f9081526020819052604090205481811015610a535760405163391434e360e21b81526001600160a01b038516600482015260248101829052604481018390526064016104f8565b6001600160a01b0384165f9081526020819052604090209082900390555b6001600160a01b038216610a8d57600280548290039055610aab565b6001600160a01b0382165f9081526020819052604090208054820190555b816001600160a01b0316836001600160a01b03167fddf252ad1be2c89b69c2b068fc378daa952ba7f163c4a11628f55a4df523b3ef83604051610af091815260200190565b60405180910390a3505050565b6001600160a01b038416610b265760405163e602df0560e01b81525f60048201526024016104f8565b6001600160a01b038316610b4f57604051634a1406b160e11b81525f60048201526024016104f8565b6001600160a01b038085165f90815260016020908152604080832093871683529290522082905580156106d257826001600160a01b0316846001600160a01b03167f8c5be1e5ebec7d5bd14f71427d1e84f3dd0314c0f7b2291e5b200ac8c7c3b92584604051610bc191815260200190565b60405180910390a350505050565b606060ff8314610be957610be283610df8565b90506103da565b818054610bf590611084565b80601f0160208091040260200160405190810160405280929190818152602001828054610c2190611084565b8015610c6c5780601f10610c4357610100808354040283529160200191610c6c565b820191905f5260205f20905b815481529060010190602001808311610c4f57829003601f168201915b505050505090506103da565b5f80807f7fffffffffffffffffffffffffffffff5d576e7357a4501ddfe92f46681b20a0841115610cb157505f91506003905082610d36565b604080515f808252602082018084528a905260ff891692820192909252606081018790526080810186905260019060a0016020604051602081039080840390855afa158015610d02573d5f5f3e3d5ffd5b5050604051601f1901519150506001600160a01b038116610d2d57505f925060019150829050610d36565b92505f91508190505b9450945094915050565b5f826003811115610d5357610d536110db565b03610d5c575050565b6001826003811115610d7057610d706110db565b03610d8e5760405163f645eedf60e01b815260040160405180910390fd5b6002826003811115610da257610da26110db565b03610dc35760405163fce698f760e01b8152600481018290526024016104f8565b6003826003811115610dd757610dd76110db565b03610647576040516335e2f38360e21b8152600481018290526024016104f8565b60605f610e0483610e35565b6040805160208082528183019092529192505f91906020820181803683375050509182525060208101929092525090565b5f60ff8216601f8111156103da57604051632cd44ac360e21b815260040160405180910390fd5b5f81518084528060208401602086015e5f602082860101526020601f19601f83011685010191505092915050565b602081525f610e9c6020830184610e5c565b9392505050565b80356001600160a01b0381168114610eb9575f5ffd5b919050565b5f5f60408385031215610ecf575f5ffd5b610ed883610ea3565b946020939093013593505050565b5f5f5f60608486031215610ef8575f5ffd5b610f0184610ea3565b9250610f0f60208501610ea3565b929592945050506040919091013590565b5f60208284031215610f30575f5ffd5b5035919050565b5f60208284031215610f47575f5ffd5b610e9c82610ea3565b60ff60f81b8816815260e060208201525f610f6e60e0830189610e5c565b8281036040840152610f808189610e5c565b606084018890526001600160a01b038716608085015260a0840186905283810360c0850152845180825260208087019350909101905f5b81811015610fd5578351835260209384019390920191600101610fb7565b50909b9a5050505050505050505050565b5f5f5f5f5f5f5f60e0888a031215610ffc575f5ffd5b61100588610ea3565b965061101360208901610ea3565b95506040880135945060608801359350608088013560ff81168114611036575f5ffd5b9699959850939692959460a0840135945060c09093013592915050565b5f5f60408385031215611064575f5ffd5b61106d83610ea3565b915061107b60208401610ea3565b90509250929050565b600181811c9082168061109857607f821691505b6020821081036110b657634e487b7160e01b5f52602260045260245ffd5b50919050565b808201808211156103da57634e487b7160e01b5f52601160045260245ffd5b634e487b7160e01b5f52602160045260245ffdfea164736f6c634300081b000a",
  "linkReferences": {},
  "deployedLinkReferences": {}
}