{"contracts/bridge/Bridge.sol":{"Bridge":{"abi":[{"inputs":[{"internalType":"address","name":"owner","type":"address"}],"stateMutability":"nonpayable","type":"constructor"},{"inputs":[],"name":"AccessDenied","type":"error"},{"inputs":[{"internalType":"address","name":"account","type":"address"}],"name":"AddressInsufficientBalance","type":"error"},{"inputs":[],"name":"FailedInnerCall","type":"error"},{"inputs":[],"name":"Forbidden","type":"error"},{"inputs":[],"name":"InvalidAddress","type":"error"},{"inputs":[],"name":"MalformedTax","type":"error"},{"inputs":[{"internalType":"address","name":"owner","type":"address"}],"name":"OwnableInvalidOwner","type":"error"},{"inputs":[{"internalType":"address","name":"account","type":"address"}],"name":"OwnableUnauthorizedAccount","type":"error"},{"inputs":[],"name":"RateLimitExceeded","type":"error"},{"inputs":[],"name":"TaxTooHigh","type":"error"},{"anonymous":false,"inputs":[{"indexed":true,"internalType":"uint256","name":"id","type":"uint256"}],"name":"Canceled","type":"event"},{"anonymous":false,"inputs":[{"indexed":true,"internalType":"uint256","name":"id","type":"uint256"}],"name":"Canceling","type":"event"},{"anonymous":false,"inputs":[{"indexed":true,"internalType":"address","name":"target","type":"address"},{"indexed":true,"internalType":"uint256","name":"amount","type":"uint256"},{"indexed":false,"internalType":"bytes32","name":"txid","type":"bytes32"},{"indexed":false,"internalType":"uint32","name":"txout","type":"uint32"},{"indexed":false,"internalType":"uint256","name":"tax","type":"uint256"}],"name":"Deposit","type":"event"},{"anonymous":false,"inputs":[{"indexed":false,"internalType":"uint16","name":"rate","type":"uint16"},{"indexed":false,"internalType":"uint64","name":"max","type":"uint64"}],"name":"DepositTaxUpdated","type":"event"},{"anonymous":false,"inputs":[{"indexed":true,"internalType":"address","name":"previousOwner","type":"address"},{"indexed":true,"internalType":"address","name":"newOwner","type":"address"}],"name":"OwnershipTransferred","type":"event"},{"anonymous":false,"inputs":[{"indexed":true,"internalType":"uint256","name":"id","type":"uint256"},{"indexed":false,"internalType":"bytes32","name":"txid","type":"bytes32"},{"indexed":false,"internalType":"uint32","name":"txout","type":"uint32"},{"indexed":false,"internalType":"uint256","name":"value","type":"uint256"}],"name":"Paid","type":"event"},{"anonymous":false,"inputs":[{"indexed":true,"internalType":"uint256","name":"id","type":"uint256"},{"indexed":false,"internalType":"uint256","name":"maxTxPrice","type":"uint256"}],"name":"RBF","type":"event"},{"anonymous":false,"inputs":[{"indexed":false,"internalType":"uint16","name":"","type":"uint16"}],"name":"RateLimitUpdated","type":"event"},{"anonymous":false,"inputs":[{"indexed":true,"internalType":"uint256","name":"id","type":"uint256"}],"name":"Refund","type":"event"},{"anonymous":false,"inputs":[{"indexed":true,"internalType":"uint256","name":"id","type":"uint256"},{"indexed":true,"internalType":"address","name":"from","type":"address"},{"indexed":false,"internalType":"uint256","name":"amount","type":"uint256"},{"indexed":false,"internalType":"uint256","name":"tax","type":"uint256"},{"indexed":false,"internalType":"uint256","name":"maxTxPrice","type":"uint256"},{"indexed":false,"internalType":"string","name":"receiver","type":"string"}],"name":"Withdraw","type":"event"},{"anonymous":false,"inputs":[{"indexed":false,"internalType":"uint16","name":"rate","type":"uint16"},{"indexed":false,"internalType":"uint64","name":"max","type":"uint64"}],"name":"WithdrawalTaxUpdated","type":"event"},{"inputs":[{"internalType":"uint256","name":"_wid","type":"uint256"}],"name":"cancel1","outputs":[],"stateMutability":"nonpayable","type":"function"},{"inputs":[{"internalType":"uint256","name":"_wid","type":"uint256"}],"name":"cancel2","outputs":[],"stateMutability":"nonpayable","type":"function"},{"inputs":[{"internalType":"bytes32","name":"_txid","type":"bytes32"},{"internalType":"uint32","name":"_txout","type":"uint32"},{"internalType":"address","name":"_target","type":"address"},{"internalType":"uint256","name":"_amount","type":"uint256"}],"name":"deposit","outputs":[{"internalType":"uint256","name":"tax","type":"uint256"}],"stateMutability":"nonpayable","type":"function"},{"inputs":[{"internalType":"bytes32","name":"_txid","type":"bytes32"},{"internalType":"uint32","name":"_txout","type":"uint32"}],"name":"isDeposited","outputs":[{"internalType":"bool","name":"","type":"bool"}],"stateMutability":"view","type":"function"},{"inputs":[],"name":"owner","outputs":[{"internalType":"address","name":"","type":"address"}],"stateMutability":"view","type":"function"},{"inputs":[{"internalType":"uint256","name":"_wid","type":"uint256"},{"internalType":"bytes32","name":"_txid","type":"bytes32"},{"internalType":"uint32","name":"_txout","type":"uint32"},{"internalType":"uint256","name":"_received","type":"uint256"}],"name":"paid","outputs":[],"stateMutability":"nonpayable","type":"function"},{"inputs":[],"name":"param","outputs":[{"internalType":"uint16","name":"rateLimit","type":"uint16"},{"internalType":"uint16","name":"depositTaxBP","type":"uint16"},{"internalType":"uint64","name":"maxDepositTax","type":"uint64"},{"internalType":"uint16","name":"withdrawalTaxBP","type":"uint16"},{"internalType":"uint64","name":"maxWithdrawalTax","type":"uint64"},{"internalType":"uint16","name":"_res1","type":"uint16"},{"internalType":"uint64","name":"_res2","type":"uint64"}],"stateMutability":"view","type":"function"},{"inputs":[{"internalType":"uint256","name":"id","type":"uint256"}],"name":"receipts","outputs":[{"internalType":"bytes32","name":"txid","type":"bytes32"},{"internalType":"uint32","name":"txout","type":"uint32"},{"internalType":"uint256","name":"received","type":"uint256"}],"stateMutability":"view","type":"function"},{"inputs":[{"internalType":"uint256","name":"_wid","type":"uint256"}],"name":"refund","outputs":[],"stateMutability":"nonpayable","type":"function"},{"inputs":[],"name":"renounceOwnership","outputs":[],"stateMutability":"nonpayable","type":"function"},{"inputs":[{"internalType":"uint256","name":"_wid","type":"uint256"},{"internalType":"uint16","name":"_maxTxPrice","type":"uint16"}],"name":"replaceByFee","outputs":[],"stateMutability":"nonpayable","type":"function"},{"inputs":[{"internalType":"uint16","name":"_bp","type":"uint16"},{"internalType":"uint64","name":"_max","type":"uint64"}],"name":"setDepositTax","outputs":[],"stateMutability":"nonpayable","type":"function"},{"inputs":[{"internalType":"uint16","name":"_sec","type":"uint16"}],"name":"setRateLimit","outputs":[],"stateMutability":"nonpayable","type":"function"},{"inputs":[{"internalType":"uint16","name":"_bp","type":"uint16"},{"internalType":"uint64","name":"_max","type":"uint64"}],"name":"setWithdrawalTax","outputs":[],"stateMutability":"nonpayable","type":"function"},{"inputs":[{"internalType":"bytes4","name":"id","type":"bytes4"}],"name":"supportsInterface","outputs":[{"internalType":"bool","name":"","type":"bool"}],"stateMutability":"view","type":"function"},{"inputs":[{"internalType":"address","name":"newOwner","type":"address"}],"name":"transferOwnership","outputs":[],"stateMutability":"nonpayable","type":"function"},{"inputs":[{"internalType":"string","name":"_receiver","type":"string"},{"internalType":"uint16","name":"_maxTxPrice","type":"uint16"}],"name":"withdraw","outputs":[],"stateMutability":"payable","type":"function"},{"inputs":[{"internalType":"uint256","name":"","type":"uint256"}],"name":"withdrawals","outputs":[{"internalType":"address","name":"sender","type":"address"},{"internalType":"uint256","name":"amount","type":"uint256"},{"internalType":"uint256","name":"tax","type":"uint256"},{"internalType":"uint256","name":"maxTxPrice","type":"uint256"},{"internalType":"uint256","name":"updatedAt","type":"uint256"},{"internalType":"string","name":"receiver","type":"string"},{"internalType":"enum IBridge.WithdrawalStatus","name":"status","type":"uint8"}],"stateMutability":"view","type":"function"}],"evm":{"bytecode":{"linkReferences":{},"object":"608060405234801561000f575f80fd5b50604051611d78380380611d7883398101604081905261002e91610110565b806001600160a01b03811661005c57604051631e4fbdf760e01b81525f600482015260240160405180910390fd5b610065816100c1565b50506040805160e08101825261012c81525f602082018190529181018290526014606082015266071afd498d0000608082015260a0810182905260c0015274071afd498d0000001400000000000000000000012c60015561013d565b5f80546001600160a01b038381166001600160a01b0319831681178455604051919092169283917f8be0079c531659141344cd1fd0a4f28419497f9722a3daafe3b4186f6b6457e09190a35050565b5f60208284031215610120575f80fd5b81516001600160a01b0381168114610136575f80fd5b9392505050565b611c2e8061014a5f395ff3fe608060405260043610610123575f3560e01c80638da5cb5b116100a1578063b55ada3911610071578063c19dd32011610057578063c19dd320146103f0578063d653d8201461040f578063f2fde38b1461042e575f80fd5b8063b55ada39146103a4578063b670ab5e146103d1575f80fd5b80638da5cb5b1461032d578063a81de86914610353578063b3dd64dd14610366578063b3f33eda14610385575f80fd5b80635cc07076116100f657806384a64c12116100dc57806384a64c1214610241578063883d87b1146102605780638aa4af891461030e575f80fd5b80635cc07076146101fb578063715018a61461022d575f80fd5b806301ffc9a7146101275780630f7ee1ec1461015b5780631ccc92c7146101bb578063278ecde1146101da575b5f80fd5b348015610132575f80fd5b5061014661014136600461171d565b61044d565b60405190151581526020015b60405180910390f35b348015610166575f80fd5b5061019b61017536600461174b565b60046020525f9081526040902080546001820154600290920154909163ffffffff169083565b6040805193845263ffffffff909216602084015290820152606001610152565b3480156101c6575f80fd5b506101466101d536600461177a565b61049e565b3480156101e5575f80fd5b506101f96101f436600461174b565b6104f8565b005b348015610206575f80fd5b5061021a61021536600461174b565b6105ec565b60405161015297969594939291906117b8565b348015610238575f80fd5b506101f96106cf565b34801561024c575f80fd5b506101f961025b36600461174b565b6106e2565b34801561026b575f80fd5b506001546102c19061ffff8082169162010000810482169167ffffffffffffffff6401000000008304811692600160601b8104831692600160701b8204831692600160b01b830490911691600160c01b90041687565b6040805161ffff9889168152968816602088015267ffffffffffffffff95861690870152928616606086015290831660808501529390931660a083015290911660c082015260e001610152565b348015610319575f80fd5b506101f9610328366004611850565b6107e5565b348015610338575f80fd5b505f546040516001600160a01b039091168152602001610152565b6101f9610361366004611891565b610932565b348015610371575f80fd5b506101f961038036600461190d565b610cdd565b348015610390575f80fd5b506101f961039f366004611850565b610ec7565b3480156103af575f80fd5b506103c36103be366004611944565b610fe6565b604051908152602001610152565b3480156103dc575f80fd5b506101f96103eb366004611985565b61127c565b3480156103fb575f80fd5b506101f961040a36600461174b565b611430565b34801561041a575f80fd5b506101f96104293660046119af565b61150f565b348015610439575f80fd5b506101f96104483660046119c8565b6115b4565b5f6001600160e01b031982166301ffc9a760e01b148061047d57506001600160e01b031982166366933dc760e01b145b8061049857506001600160e01b0319821663ef04497360e01b145b92915050565b5f8083836040516020016104c992919091825260e01b6001600160e01b031916602082015260240190565b60408051808303601f1901815291815281516020928301205f908152600290925290205460ff16949350505050565b5f6003828154811061050c5761050c6119e1565b5f918252602090912060079091020190506003600682015460ff166005811115610538576105386117a4565b1461055657604051631dd2188d60e31b815260040160405180910390fd5b60068101805460ff1916600417905580546001600160a01b031633811461059057604051634ca8886760e01b815260040160405180910390fd5b426004830155600282015460018301546105bd916105ad91611a09565b6001600160a01b038316906115f1565b60405183907f2e1897b0591d764356194f7a795238a87c1987c7a877568e50d829d547c92b97905f90a2505050565b600381815481106105fb575f80fd5b5f9182526020909120600790910201805460018201546002830154600384015460048501546005860180546001600160a01b03909616975093959294919390929161064590611a1c565b80601f016020809104026020016040519081016040528092919081815260200182805461067190611a1c565b80156106bc5780601f10610693576101008083540402835291602001916106bc565b820191905f5260205f20905b81548152906001019060200180831161069f57829003601f168201915b5050506006909301549192505060ff1687565b6106d7611689565b6106e05f6116b5565b565b5f600382815481106106f6576106f66119e1565b5f918252602090912060079091020190506001600682015460ff166005811115610722576107226117a4565b1461074057604051631dd2188d60e31b815260040160405180910390fd5b80546001600160a01b0316331461076a57604051634ca8886760e01b815260040160405180910390fd5b600154600482015461ffff909116906107839042611a54565b10156107a25760405163a74c1c5f60e01b815260040160405180910390fd5b42600482015560068101805460ff1916600217905560405182907f0106f4416537efff55311ef5e2f9c2a48204fcf84731f2b9d5091d23fc52160c905f90a25050565b6107ed611689565b6127108261ffff16111561081457604051632bc7b84d60e21b815260040160405180910390fd5b670de0b6b3a76400008167ffffffffffffffff16111561084757604051632bc7b84d60e21b815260040160405180910390fd5b5f8261ffff16118015610862575067ffffffffffffffff8116155b1561088057604051630fe9ec7160e41b815260040160405180910390fd5b600180547fffffffffffffffffffff00000000000000000000ffffffffffffffffffffffff16600160601b61ffff85169081027fffffffffffffffffffff0000000000000000ffffffffffffffffffffffffffff1691909117600160701b67ffffffffffffffff8516908102919091179092556040805191825260208201929092527f59b73ca79bcb3dcb02c4d2b81e1a2da4c9fd9857ed81cfb16c5431b502f8c71b91015b60405180910390a15050565b5f83838080601f0160208091040260200160405190810160405280939291908181526020018383808284375f9201919091525050825192935050602290911090508061097f5750605a8151115b1561099d5760405163e6c4247b60e01b815260040160405180910390fd5b6040805160e08101825260015461ffff80821683526201000082048116602084015267ffffffffffffffff6401000000008304811694840194909452600160601b8204811660608401819052600160701b830485166080850152600160b01b830490911660a0840152600160c01b90910490921660c082015234915f919015610a7857612710816060015161ffff1684610a379190611a67565b610a419190611a92565b9150806080015167ffffffffffffffff16821115610a6b57806080015167ffffffffffffffff1691505b610a758284611a54565b92505b5f610a886402540be40085611aa5565b90508015610aa957610a9a8184611a09565b9250610aa68185611a54565b93505b5f8661ffff1611610b015760405162461bcd60e51b815260206004820152601060248201527f696e76616c69642074782070726963650000000000000000000000000000000060448201526064015b60405180910390fd5b6402540be400610b1761012c61ffff8916611a67565b610b219190611a67565b8411610b5e5760405162461bcd60e51b815260206004820152600c60248201526b756e6166666f726461626c6560a01b6044820152606401610af8565b5f600380549050905060036040518060e00160405280336001600160a01b031681526020018781526020018681526020018961ffff1681526020014281526020018b8b8080601f0160208091040260200160405190810160405280939291908181526020018383808284375f92018290525093855250506001602093840181905285548082018755958352918390208451600790960201805473ffffffffffffffffffffffffffffffffffffffff19166001600160a01b0390961695909517855550908201519083015560408101516002830155606081015160038301556080810151600483015560a08101519091906005820190610c5d9082611b17565b5060c082015160068201805460ff19166001836005811115610c8157610c816117a4565b02179055505050336001600160a01b0316817fa7aa0bf5f2a5106eb711bca96c8ea6ea0d99ec2c496d4d2c5dc0af8217d43c7c87878b8e8e604051610cca959493929190611bd2565b60405180910390a3505050505050505050565b5f60038381548110610cf157610cf16119e1565b5f918252602090912060079091020190506001600682015460ff166005811115610d1d57610d1d6117a4565b14610d3b57604051631dd2188d60e31b815260040160405180910390fd5b80546001600160a01b03163314610d6557604051634ca8886760e01b815260040160405180910390fd5b600154600482015461ffff90911690610d7e9042611a54565b1015610d9d5760405163a74c1c5f60e01b815260040160405180910390fd5b80600301548261ffff1611610e1a5760405162461bcd60e51b815260206004820152602d60248201527f746865206e65772074782070726963652073686f756c64206265206c6172676560448201527f72207468616e206265666f7265000000000000000000000000000000000000006064820152608401610af8565b6402540be400610e3061012c61ffff8516611a67565b610e3a9190611a67565b816001015411610e7b5760405162461bcd60e51b815260206004820152600c60248201526b756e6166666f726461626c6560a01b6044820152606401610af8565b61ffff82166003820181905542600483015560405190815283907fe6190c43c634720bcd5b72bb0b920b88f8d0a15ae7e5dcbb0582c1bb2f98df4b9060200160405180910390a2505050565b610ecf611689565b6127108261ffff161115610ef657604051632bc7b84d60e21b815260040160405180910390fd5b670de0b6b3a76400008167ffffffffffffffff161115610f2957604051632bc7b84d60e21b815260040160405180910390fd5b5f8261ffff16118015610f44575067ffffffffffffffff8116155b15610f6257604051630fe9ec7160e41b815260040160405180910390fd5b600180546bffffffffffffffffffff000019166201000061ffff85169081026bffffffffffffffff0000000019169190911764010000000067ffffffffffffffff8516908102919091179092556040805191825260208201929092527f1007ff7aec53e9626ce51f25d4e093f290f60da8019c8cf489f0ae2f21ebf76a9101610926565b5f3373bc100000000000000000000000000000000010001461101b57604051634ca8886760e01b815260040160405180910390fd5b5f858560405160200161104592919091825260e01b6001600160e01b031916602082015260240190565b60408051601f1981840301815291815281516020928301205f818152600290935291205490915060ff16156110bc5760405162461bcd60e51b815260206004820152600a60248201527f6475706c696361746564000000000000000000000000000000000000000000006044820152606401610af8565b5f831180156110d757506110d56402540be40084611aa5565b155b6111235760405162461bcd60e51b815260206004820152600e60248201527f696e76616c696420616d6f756e740000000000000000000000000000000000006044820152606401610af8565b6040805160e08101825260015461ffff808216835262010000820481166020840181905267ffffffffffffffff6401000000008404811695850195909552600160601b830482166060850152600160701b830485166080850152600160b01b830490911660a0840152600160c01b90910490921660c082015290156111fa57612710816020015161ffff16856111b99190611a67565b6111c39190611a92565b9250806040015167ffffffffffffffff168311156111ed57806040015167ffffffffffffffff1692505b6111f78385611a54565b93505b5f8281526002602052604090819020805460ff191660011790555184906001600160a01b038716907fbc0e2d4f64f63e9c6b07a1665a26f689b20e42e836968119499db41c2d315efa9061126a908b908b90899092835263ffffffff919091166020830152604082015260600190565b60405180910390a35050949350505050565b3373bc10000000000000000000000000000000001000146112b057604051634ca8886760e01b815260040160405180910390fd5b5f600385815481106112c4576112c46119e1565b5f9182526020909120600790910201600681015490915060ff1660018160058111156112f2576112f26117a4565b148061130f5750600281600581111561130d5761130d6117a4565b145b611317575f80fd5b6040805160608101825286815263ffffffff86811660208084019182528385018881525f8c8152600492839052959095209351845590516001840180549190931663ffffffff1990911617909155915160029182015560068401805460ff19166005179055429184019190915582015480156113ab576113ab73bc10000000000000000000000000000000000002826115f1565b60018301546040515f91906113bf90611711565b82906040518091039083f5915050801580156113dd573d5f803e3d5ffd5b50506040805187815263ffffffff8716602082015290810185905287907fb74f5dbf34aabe02f20ff775b898acf1a9f70e4fbd48ad50548acae86e1ccd789060600160405180910390a250505050505050565b3373bc100000000000000000000000000000000010001461146457604051634ca8886760e01b815260040160405180910390fd5b5f60038281548110611478576114786119e1565b5f9182526020909120600790910201600681015490915060ff1660018160058111156114a6576114a66117a4565b14806114c3575060028160058111156114c1576114c16117a4565b145b6114cb575f80fd5b60068201805460ff1916600317905542600483015560405183907f829a8683c544ad289ce92d3ce06e9ebad69b18a6916e60ec766c2c217461d8e9905f90a2505050565b611517611689565b5f8161ffff161161156a5760405162461bcd60e51b815260206004820152601860248201527f696e76616c6964207468726f74746c652073657474696e6700000000000000006044820152606401610af8565b6001805461ffff191661ffff83169081179091556040519081527fe536f709e7276119ff965216f1bbd671ef9ea99059743501129a0c9bec5d37ed9060200160405180910390a150565b6115bc611689565b6001600160a01b0381166115e557604051631e4fbdf760e01b81525f6004820152602401610af8565b6115ee816116b5565b50565b804710156116145760405163cd78605960e01b8152306004820152602401610af8565b5f826001600160a01b0316826040515f6040518083038185875af1925050503d805f811461165d576040519150601f19603f3d011682016040523d82523d5f602084013e611662565b606091505b505090508061168457604051630a12f52160e11b815260040160405180910390fd5b505050565b5f546001600160a01b031633146106e05760405163118cdaa760e01b8152336004820152602401610af8565b5f80546001600160a01b0383811673ffffffffffffffffffffffffffffffffffffffff19831681178455604051919092169283917f8be0079c531659141344cd1fd0a4f28419497f9722a3daafe3b4186f6b6457e09190a35050565b600880611c1a83390190565b5f6020828403121561172d575f80fd5b81356001600160e01b031981168114611744575f80fd5b9392505050565b5f6020828403121561175b575f80fd5b5035919050565b803563ffffffff81168114611775575f80fd5b919050565b5f806040838503121561178b575f80fd5b8235915061179b60208401611762565b90509250929050565b634e487b7160e01b5f52602160045260245ffd5b6001600160a01b038816815286602082015285604082015284606082015283608082015260e060a08201525f83518060e0840152806020860161010085015e5f6101008285010152610100601f19601f8301168401019150506006831061182d57634e487b7160e01b5f52602160045260245ffd5b8260c083015298975050505050505050565b803561ffff81168114611775575f80fd5b5f8060408385031215611861575f80fd5b61186a8361183f565b9150602083013567ffffffffffffffff81168114611886575f80fd5b809150509250929050565b5f805f604084860312156118a3575f80fd5b833567ffffffffffffffff8111156118b9575f80fd5b8401601f810186136118c9575f80fd5b803567ffffffffffffffff8111156118df575f80fd5b8660208284010111156118f0575f80fd5b60209182019450925061190490850161183f565b90509250925092565b5f806040838503121561191e575f80fd5b8235915061179b6020840161183f565b80356001600160a01b0381168114611775575f80fd5b5f805f8060808587031215611957575f80fd5b8435935061196760208601611762565b92506119756040860161192e565b9396929550929360600135925050565b5f805f8060808587031215611998575f80fd5b843593506020850135925061197560408601611762565b5f602082840312156119bf575f80fd5b6117448261183f565b5f602082840312156119d8575f80fd5b6117448261192e565b634e487b7160e01b5f52603260045260245ffd5b634e487b7160e01b5f52601160045260245ffd5b80820180821115610498576104986119f5565b600181811c90821680611a3057607f821691505b602082108103611a4e57634e487b7160e01b5f52602260045260245ffd5b50919050565b81810381811115610498576104986119f5565b8082028115828204841417610498576104986119f5565b634e487b7160e01b5f52601260045260245ffd5b5f82611aa057611aa0611a7e565b500490565b5f82611ab357611ab3611a7e565b500690565b634e487b7160e01b5f52604160045260245ffd5b601f82111561168457805f5260205f20601f840160051c81016020851015611af15750805b601f840160051c820191505b81811015611b10575f8155600101611afd565b5050505050565b815167ffffffffffffffff811115611b3157611b31611ab8565b611b4581611b3f8454611a1c565b84611acc565b6020601f821160018114611b77575f8315611b605750848201515b5f19600385901b1c1916600184901b178455611b10565b5f84815260208120601f198516915b82811015611ba65787850151825560209485019460019092019101611b86565b5084821015611bc357868401515f19600387901b60f8161c191681555b50505050600190811b01905550565b85815284602082015261ffff8416604082015260806060820152816080820152818360a08301375f81830160a090810191909152601f909201601f1916010194935050505056fe608060405230fffea164736f6c634300081a000a","opcodes":"PUSH1 0x80 PUSH1 0x40 MSTORE CALLVALUE DUP1 ISZERO PUSH2 0xF JUMPI PUSH0 DUP1 REVERT JUMPDEST POP PUSH1 0x40 MLOAD PUSH2 0x1D78 CODESIZE SUB DUP1 PUSH2 0x1D78 DUP4 CODECOPY DUP2 ADD PUSH1 0x40 DUP2 SWAP1 MSTORE PUSH2 0x2E SWAP2 PUSH2 0x110 JUMP JUMPDEST DUP1 PUSH1 0x1 PUSH1 0x1 PUSH1 0xA0 SHL SUB DUP2 AND PUSH2 0x5C JUMPI PUSH1 0x40 MLOAD PUSH4 0x1E4FBDF7 PUSH1 0xE0 SHL DUP2 MSTORE PUSH0 PUSH1 0x4 DUP3 ADD MSTORE PUSH1 0x24 ADD PUSH1 0x40 MLOAD DUP1 SWAP2 SUB SWAP1 REVERT JUMPDEST PUSH2 0x65 DUP2 PUSH2 0xC1 JUMP JUMPDEST POP POP PUSH1 0x40 DUP1 MLOAD PUSH1 0xE0 DUP2 ADD DUP3 MSTORE PUSH2 0x12C DUP2 MSTORE PUSH0 PUSH1 0x20 DUP3 ADD DUP2 SWAP1 MSTORE SWAP2 DUP2 ADD DUP3 SWAP1 MSTORE PUSH1 0x14 PUSH1 0x60 DUP3 ADD MSTORE PUSH7 0x71AFD498D0000 PUSH1 0x80 DUP3 ADD MSTORE PUSH1 0xA0 DUP2 ADD DUP3 SWAP1 MSTORE PUSH1 0xC0 ADD MSTORE PUSH21 0x71AFD498D0000001400000000000000000000012C PUSH1 0x1 SSTORE PUSH2 0x13D JUMP JUMPDEST PUSH0 DUP1 SLOAD PUSH1 0x1 PUSH1 0x1 PUSH1 0xA0 SHL SUB DUP4 DUP2 AND PUSH1 0x1 PUSH1 0x1 PUSH1 0xA0 SHL SUB NOT DUP4 AND DUP2 OR DUP5 SSTORE PUSH1 0x40 MLOAD SWAP2 SWAP1 SWAP3 AND SWAP3 DUP4 SWAP2 PUSH32 0x8BE0079C531659141344CD1FD0A4F28419497F9722A3DAAFE3B4186F6B6457E0 SWAP2 SWAP1 LOG3 POP POP JUMP JUMPDEST PUSH0 PUSH1 0x20 DUP3 DUP5 SUB SLT ISZERO PUSH2 0x120 JUMPI PUSH0 DUP1 REVERT JUMPDEST DUP2 MLOAD PUSH1 0x1 PUSH1 0x1 PUSH1 0xA0 SHL SUB DUP2 AND DUP2 EQ PUSH2 0x136 JUMPI PUSH0 DUP1 REVERT JUMPDEST SWAP4 SWAP3 POP POP POP JUMP JUMPDEST PUSH2 0x1C2E DUP1 PUSH2 0x14A PUSH0 CODECOPY PUSH0 RETURN INVALID PUSH1 0x80 PUSH1 0x40 MSTORE PUSH1 0x4 CALLDATASIZE LT PUSH2 0x123 JUMPI PUSH0 CALLDATALOAD PUSH1 0xE0 SHR DUP1 PUSH4 0x8DA5CB5B GT PUSH2 0xA1 JUMPI DUP1 PUSH4 0xB55ADA39 GT PUSH2 0x71 JUMPI DUP1 PUSH4 0xC19DD320 GT PUSH2 0x57 JUMPI DUP1 PUSH4 0xC19DD320 EQ PUSH2 0x3F0 JUMPI DUP1 PUSH4 0xD653D820 EQ PUSH2 0x40F JUMPI DUP1 PUSH4 0xF2FDE38B EQ PUSH2 0x42E JUMPI PUSH0 DUP1 REVERT JUMPDEST DUP1 PUSH4 0xB55ADA39 EQ PUSH2 0x3A4 JUMPI DUP1 PUSH4 0xB670AB5E EQ PUSH2 0x3D1 JUMPI PUSH0 DUP1 REVERT JUMPDEST DUP1 PUSH4 0x8DA5CB5B EQ PUSH2 0x32D JUMPI DUP1 PUSH4 0xA81DE869 EQ PUSH2 0x353 JUMPI DUP1 PUSH4 0xB3DD64DD EQ PUSH2 0x366 JUMPI DUP1 PUSH4 0xB3F33EDA EQ PUSH2 0x385 JUMPI PUSH0 DUP1 REVERT JUMPDEST DUP1 PUSH4 0x5CC07076 GT PUSH2 0xF6 JUMPI DUP1 PUSH4 0x84A64C12 GT PUSH2 0xDC JUMPI DUP1 PUSH4 0x84A64C12 EQ PUSH2 0x241 JUMPI DUP1 PUSH4 0x883D87B1 EQ PUSH2 0x260 JUMPI DUP1 PUSH4 0x8AA4AF89 EQ PUSH2 0x30E JUMPI PUSH0 DUP1 REVERT JUMPDEST DUP1 PUSH4 0x5CC07076 EQ PUSH2 0x1FB JUMPI DUP1 PUSH4 0x715018A6 EQ PUSH2 0x22D JUMPI PUSH0 DUP1 REVERT JUMPDEST DUP1 PUSH4 0x1FFC9A7 EQ PUSH2 0x127 JUMPI DUP1 PUSH4 0xF7EE1EC EQ PUSH2 0x15B JUMPI DUP1 PUSH4 0x1CCC92C7 EQ PUSH2 0x1BB JUMPI DUP1 PUSH4 0x278ECDE1 EQ PUSH2 0x1DA JUMPI JUMPDEST PUSH0 DUP1 REVERT JUMPDEST CALLVALUE DUP1 ISZERO PUSH2 0x132 JUMPI PUSH0 DUP1 REVERT JUMPDEST POP PUSH2 0x146 PUSH2 0x141 CALLDATASIZE PUSH1 0x4 PUSH2 0x171D JUMP JUMPDEST PUSH2 0x44D JUMP JUMPDEST PUSH1 0x40 MLOAD SWAP1 ISZERO ISZERO DUP2 MSTORE PUSH1 0x20 ADD JUMPDEST PUSH1 0x40 MLOAD DUP1 SWAP2 SUB SWAP1 RETURN JUMPDEST CALLVALUE DUP1 ISZERO PUSH2 0x166 JUMPI PUSH0 DUP1 REVERT JUMPDEST POP PUSH2 0x19B PUSH2 0x175 CALLDATASIZE PUSH1 0x4 PUSH2 0x174B JUMP JUMPDEST PUSH1 0x4 PUSH1 0x20 MSTORE PUSH0 SWAP1 DUP2 MSTORE PUSH1 0x40 SWAP1 KECCAK256 DUP1 SLOAD PUSH1 0x1 DUP3 ADD SLOAD PUSH1 0x2 SWAP1 SWAP3 ADD SLOAD SWAP1 SWAP2 PUSH4 0xFFFFFFFF AND SWAP1 DUP4 JUMP JUMPDEST PUSH1 0x40 DUP1 MLOAD SWAP4 DUP5 MSTORE PUSH4 0xFFFFFFFF SWAP1 SWAP3 AND PUSH1 0x20 DUP5 ADD MSTORE SWAP1 DUP3 ADD MSTORE PUSH1 0x60 ADD PUSH2 0x152 JUMP JUMPDEST CALLVALUE DUP1 ISZERO PUSH2 0x1C6 JUMPI PUSH0 DUP1 REVERT JUMPDEST POP PUSH2 0x146 PUSH2 0x1D5 CALLDATASIZE PUSH1 0x4 PUSH2 0x177A JUMP JUMPDEST PUSH2 0x49E JUMP JUMPDEST CALLVALUE DUP1 ISZERO PUSH2 0x1E5 JUMPI PUSH0 DUP1 REVERT JUMPDEST POP PUSH2 0x1F9 PUSH2 0x1F4 CALLDATASIZE PUSH1 0x4 PUSH2 0x174B JUMP JUMPDEST PUSH2 0x4F8 JUMP JUMPDEST STOP JUMPDEST CALLVALUE DUP1 ISZERO PUSH2 0x206 JUMPI PUSH0 DUP1 REVERT JUMPDEST POP PUSH2 0x21A PUSH2 0x215 CALLDATASIZE PUSH1 0x4 PUSH2 0x174B JUMP JUMPDEST PUSH2 0x5EC JUMP JUMPDEST PUSH1 0x40 MLOAD PUSH2 0x152 SWAP8 SWAP7 SWAP6 SWAP5 SWAP4 SWAP3 SWAP2 SWAP1 PUSH2 0x17B8 JUMP JUMPDEST CALLVALUE DUP1 ISZERO PUSH2 0x238 JUMPI PUSH0 DUP1 REVERT JUMPDEST POP PUSH2 0x1F9 PUSH2 0x6CF JUMP JUMPDEST CALLVALUE DUP1 ISZERO PUSH2 0x24C JUMPI PUSH0 DUP1 REVERT JUMPDEST POP PUSH2 0x1F9 PUSH2 0x25B CALLDATASIZE PUSH1 0x4 PUSH2 0x174B JUMP JUMPDEST PUSH2 0x6E2 JUMP JUMPDEST CALLVALUE DUP1 ISZERO PUSH2 0x26B JUMPI PUSH0 DUP1 REVERT JUMPDEST POP PUSH1 0x1 SLOAD PUSH2 0x2C1 SWAP1 PUSH2 0xFFFF DUP1 DUP3 AND SWAP2 PUSH3 0x10000 DUP2 DIV DUP3 AND SWAP2 PUSH8 0xFFFFFFFFFFFFFFFF PUSH5 0x100000000 DUP4 DIV DUP2 AND SWAP3 PUSH1 0x1 PUSH1 0x60 SHL DUP2 DIV DUP4 AND SWAP3 PUSH1 0x1 PUSH1 0x70 SHL DUP3 DIV DUP4 AND SWAP3 PUSH1 0x1 PUSH1 0xB0 SHL DUP4 DIV SWAP1 SWAP2 AND SWAP2 PUSH1 0x1 PUSH1 0xC0 SHL SWAP1 DIV AND DUP8 JUMP JUMPDEST PUSH1 0x40 DUP1 MLOAD PUSH2 0xFFFF SWAP9 DUP10 AND DUP2 MSTORE SWAP7 DUP9 AND PUSH1 0x20 DUP9 ADD MSTORE PUSH8 0xFFFFFFFFFFFFFFFF SWAP6 DUP7 AND SWAP1 DUP8 ADD MSTORE SWAP3 DUP7 AND PUSH1 0x60 DUP7 ADD MSTORE SWAP1 DUP4 AND PUSH1 0x80 DUP6 ADD MSTORE SWAP4 SWAP1 SWAP4 AND PUSH1 0xA0 DUP4 ADD MSTORE SWAP1 SWAP2 AND PUSH1 0xC0 DUP3 ADD MSTORE PUSH1 0xE0 ADD PUSH2 0x152 JUMP JUMPDEST CALLVALUE DUP1 ISZERO PUSH2 0x319 JUMPI PUSH0 DUP1 REVERT JUMPDEST POP PUSH2 0x1F9 PUSH2 0x328 CALLDATASIZE PUSH1 0x4 PUSH2 0x1850 JUMP JUMPDEST PUSH2 0x7E5 JUMP JUMPDEST CALLVALUE DUP1 ISZERO PUSH2 0x338 JUMPI PUSH0 DUP1 REVERT JUMPDEST POP PUSH0 SLOAD PUSH1 0x40 MLOAD PUSH1 0x1 PUSH1 0x1 PUSH1 0xA0 SHL SUB SWAP1 SWAP2 AND DUP2 MSTORE PUSH1 0x20 ADD PUSH2 0x152 JUMP JUMPDEST PUSH2 0x1F9 PUSH2 0x361 CALLDATASIZE PUSH1 0x4 PUSH2 0x1891 JUMP JUMPDEST PUSH2 0x932 JUMP JUMPDEST CALLVALUE DUP1 ISZERO PUSH2 0x371 JUMPI PUSH0 DUP1 REVERT JUMPDEST POP PUSH2 0x1F9 PUSH2 0x380 CALLDATASIZE PUSH1 0x4 PUSH2 0x190D JUMP JUMPDEST PUSH2 0xCDD JUMP JUMPDEST CALLVALUE DUP1 ISZERO PUSH2 0x390 JUMPI PUSH0 DUP1 REVERT JUMPDEST POP PUSH2 0x1F9 PUSH2 0x39F CALLDATASIZE PUSH1 0x4 PUSH2 0x1850 JUMP JUMPDEST PUSH2 0xEC7 JUMP JUMPDEST CALLVALUE DUP1 ISZERO PUSH2 0x3AF JUMPI PUSH0 DUP1 REVERT JUMPDEST POP PUSH2 0x3C3 PUSH2 0x3BE CALLDATASIZE PUSH1 0x4 PUSH2 0x1944 JUMP JUMPDEST PUSH2 0xFE6 JUMP JUMPDEST PUSH1 0x40 MLOAD SWAP1 DUP2 MSTORE PUSH1 0x20 ADD PUSH2 0x152 JUMP JUMPDEST CALLVALUE DUP1 ISZERO PUSH2 0x3DC JUMPI PUSH0 DUP1 REVERT JUMPDEST POP PUSH2 0x1F9 PUSH2 0x3EB CALLDATASIZE PUSH1 0x4 PUSH2 0x1985 JUMP JUMPDEST PUSH2 0x127C JUMP JUMPDEST CALLVALUE DUP1 ISZERO PUSH2 0x3FB JUMPI PUSH0 DUP1 REVERT JUMPDEST POP PUSH2 0x1F9 PUSH2 0x40A CALLDATASIZE PUSH1 0x4 PUSH2 0x174B JUMP JUMPDEST PUSH2 0x1430 JUMP JUMPDEST CALLVALUE DUP1 ISZERO PUSH2 0x41A JUMPI PUSH0 DUP1 REVERT JUMPDEST POP PUSH2 0x1F9 PUSH2 0x429 CALLDATASIZE PUSH1 0x4 PUSH2 0x19AF JUMP JUMPDEST PUSH2 0x150F JUMP JUMPDEST CALLVALUE DUP1 ISZERO PUSH2 0x439 JUMPI PUSH0 DUP1 REVERT JUMPDEST POP PUSH2 0x1F9 PUSH2 0x448 CALLDATASIZE PUSH1 0x4 PUSH2 0x19C8 JUMP JUMPDEST PUSH2 0x15B4 JUMP JUMPDEST PUSH0 PUSH1 0x1 PUSH1 0x1 PUSH1 0xE0 SHL SUB NOT DUP3 AND PUSH4 0x1FFC9A7 PUSH1 0xE0 SHL EQ DUP1 PUSH2 0x47D JUMPI POP PUSH1 0x1 PUSH1 0x1 PUSH1 0xE0 SHL SUB NOT DUP3 AND PUSH4 0x66933DC7 PUSH1 0xE0 SHL EQ JUMPDEST DUP1 PUSH2 0x498 JUMPI POP PUSH1 0x1 PUSH1 0x1 PUSH1 0xE0 SHL SUB NOT DUP3 AND PUSH4 0xEF044973 PUSH1 0xE0 SHL EQ JUMPDEST SWAP3 SWAP2 POP POP JUMP JUMPDEST PUSH0 DUP1 DUP4 DUP4 PUSH1 0x40 MLOAD PUSH1 0x20 ADD PUSH2 0x4C9 SWAP3 SWAP2 SWAP1 SWAP2 DUP3 MSTORE PUSH1 0xE0 SHL PUSH1 0x1 PUSH1 0x1 PUSH1 0xE0 SHL SUB NOT AND PUSH1 0x20 DUP3 ADD MSTORE PUSH1 0x24 ADD SWAP1 JUMP JUMPDEST PUSH1 0x40 DUP1 MLOAD DUP1 DUP4 SUB PUSH1 0x1F NOT ADD DUP2 MSTORE SWAP2 DUP2 MSTORE DUP2 MLOAD PUSH1 0x20 SWAP3 DUP4 ADD KECCAK256 PUSH0 SWAP1 DUP2 MSTORE PUSH1 0x2 SWAP1 SWAP3 MSTORE SWAP1 KECCAK256 SLOAD PUSH1 0xFF AND SWAP5 SWAP4 POP POP POP POP JUMP JUMPDEST PUSH0 PUSH1 0x3 DUP3 DUP2 SLOAD DUP2 LT PUSH2 0x50C JUMPI PUSH2 0x50C PUSH2 0x19E1 JUMP JUMPDEST PUSH0 SWAP2 DUP3 MSTORE PUSH1 0x20 SWAP1 SWAP2 KECCAK256 PUSH1 0x7 SWAP1 SWAP2 MUL ADD SWAP1 POP PUSH1 0x3 PUSH1 0x6 DUP3 ADD SLOAD PUSH1 0xFF AND PUSH1 0x5 DUP2 GT ISZERO PUSH2 0x538 JUMPI PUSH2 0x538 PUSH2 0x17A4 JUMP JUMPDEST EQ PUSH2 0x556 JUMPI PUSH1 0x40 MLOAD PUSH4 0x1DD2188D PUSH1 0xE3 SHL DUP2 MSTORE PUSH1 0x4 ADD PUSH1 0x40 MLOAD DUP1 SWAP2 SUB SWAP1 REVERT JUMPDEST PUSH1 0x6 DUP2 ADD DUP1 SLOAD PUSH1 0xFF NOT AND PUSH1 0x4 OR SWAP1 SSTORE DUP1 SLOAD PUSH1 0x1 PUSH1 0x1 PUSH1 0xA0 SHL SUB AND CALLER DUP2 EQ PUSH2 0x590 JUMPI PUSH1 0x40 MLOAD PUSH4 0x4CA88867 PUSH1 0xE0 SHL DUP2 MSTORE PUSH1 0x4 ADD PUSH1 0x40 MLOAD DUP1 SWAP2 SUB SWAP1 REVERT JUMPDEST TIMESTAMP PUSH1 0x4 DUP4 ADD SSTORE PUSH1 0x2 DUP3 ADD SLOAD PUSH1 0x1 DUP4 ADD SLOAD PUSH2 0x5BD SWAP2 PUSH2 0x5AD SWAP2 PUSH2 0x1A09 JUMP JUMPDEST PUSH1 0x1 PUSH1 0x1 PUSH1 0xA0 SHL SUB DUP4 AND SWAP1 PUSH2 0x15F1 JUMP JUMPDEST PUSH1 0x40 MLOAD DUP4 SWAP1 PUSH32 0x2E1897B0591D764356194F7A795238A87C1987C7A877568E50D829D547C92B97 SWAP1 PUSH0 SWAP1 LOG2 POP POP POP JUMP JUMPDEST PUSH1 0x3 DUP2 DUP2 SLOAD DUP2 LT PUSH2 0x5FB JUMPI PUSH0 DUP1 REVERT JUMPDEST PUSH0 SWAP2 DUP3 MSTORE PUSH1 0x20 SWAP1 SWAP2 KECCAK256 PUSH1 0x7 SWAP1 SWAP2 MUL ADD DUP1 SLOAD PUSH1 0x1 DUP3 ADD SLOAD PUSH1 0x2 DUP4 ADD SLOAD PUSH1 0x3 DUP5 ADD SLOAD PUSH1 0x4 DUP6 ADD SLOAD PUSH1 0x5 DUP7 ADD DUP1 SLOAD PUSH1 0x1 PUSH1 0x1 PUSH1 0xA0 SHL SUB SWAP1 SWAP7 AND SWAP8 POP SWAP4 SWAP6 SWAP3 SWAP5 SWAP2 SWAP4 SWAP1 SWAP3 SWAP2 PUSH2 0x645 SWAP1 PUSH2 0x1A1C JUMP JUMPDEST DUP1 PUSH1 0x1F ADD PUSH1 0x20 DUP1 SWAP2 DIV MUL PUSH1 0x20 ADD PUSH1 0x40 MLOAD SWAP1 DUP2 ADD PUSH1 0x40 MSTORE DUP1 SWAP3 SWAP2 SWAP1 DUP2 DUP2 MSTORE PUSH1 0x20 ADD DUP3 DUP1 SLOAD PUSH2 0x671 SWAP1 PUSH2 0x1A1C JUMP JUMPDEST DUP1 ISZERO PUSH2 0x6BC JUMPI DUP1 PUSH1 0x1F LT PUSH2 0x693 JUMPI PUSH2 0x100 DUP1 DUP4 SLOAD DIV MUL DUP4 MSTORE SWAP2 PUSH1 0x20 ADD SWAP2 PUSH2 0x6BC JUMP JUMPDEST DUP3 ADD SWAP2 SWAP1 PUSH0 MSTORE PUSH1 0x20 PUSH0 KECCAK256 SWAP1 JUMPDEST DUP2 SLOAD DUP2 MSTORE SWAP1 PUSH1 0x1 ADD SWAP1 PUSH1 0x20 ADD DUP1 DUP4 GT PUSH2 0x69F JUMPI DUP3 SWAP1 SUB PUSH1 0x1F AND DUP3 ADD SWAP2 JUMPDEST POP POP POP PUSH1 0x6 SWAP1 SWAP4 ADD SLOAD SWAP2 SWAP3 POP POP PUSH1 0xFF AND DUP8 JUMP JUMPDEST PUSH2 0x6D7 PUSH2 0x1689 JUMP JUMPDEST PUSH2 0x6E0 PUSH0 PUSH2 0x16B5 JUMP JUMPDEST JUMP JUMPDEST PUSH0 PUSH1 0x3 DUP3 DUP2 SLOAD DUP2 LT PUSH2 0x6F6 JUMPI PUSH2 0x6F6 PUSH2 0x19E1 JUMP JUMPDEST PUSH0 SWAP2 DUP3 MSTORE PUSH1 0x20 SWAP1 SWAP2 KECCAK256 PUSH1 0x7 SWAP1 SWAP2 MUL ADD SWAP1 POP PUSH1 0x1 PUSH1 0x6 DUP3 ADD SLOAD PUSH1 0xFF AND PUSH1 0x5 DUP2 GT ISZERO PUSH2 0x722 JUMPI PUSH2 0x722 PUSH2 0x17A4 JUMP JUMPDEST EQ PUSH2 0x740 JUMPI PUSH1 0x40 MLOAD PUSH4 0x1DD2188D PUSH1 0xE3 SHL DUP2 MSTORE PUSH1 0x4 ADD PUSH1 0x40 MLOAD DUP1 SWAP2 SUB SWAP1 REVERT JUMPDEST DUP1 SLOAD PUSH1 0x1 PUSH1 0x1 PUSH1 0xA0 SHL SUB AND CALLER EQ PUSH2 0x76A JUMPI PUSH1 0x40 MLOAD PUSH4 0x4CA88867 PUSH1 0xE0 SHL DUP2 MSTORE PUSH1 0x4 ADD PUSH1 0x40 MLOAD DUP1 SWAP2 SUB SWAP1 REVERT JUMPDEST PUSH1 0x1 SLOAD PUSH1 0x4 DUP3 ADD SLOAD PUSH2 0xFFFF SWAP1 SWAP2 AND SWAP1 PUSH2 0x783 SWAP1 TIMESTAMP PUSH2 0x1A54 JUMP JUMPDEST LT ISZERO PUSH2 0x7A2 JUMPI PUSH1 0x40 MLOAD PUSH4 0xA74C1C5F PUSH1 0xE0 SHL DUP2 MSTORE PUSH1 0x4 ADD PUSH1 0x40 MLOAD DUP1 SWAP2 SUB SWAP1 REVERT JUMPDEST TIMESTAMP PUSH1 0x4 DUP3 ADD SSTORE PUSH1 0x6 DUP2 ADD DUP1 SLOAD PUSH1 0xFF NOT AND PUSH1 0x2 OR SWAP1 SSTORE PUSH1 0x40 MLOAD DUP3 SWAP1 PUSH32 0x106F4416537EFFF55311EF5E2F9C2A48204FCF84731F2B9D5091D23FC52160C SWAP1 PUSH0 SWAP1 LOG2 POP POP JUMP JUMPDEST PUSH2 0x7ED PUSH2 0x1689 JUMP JUMPDEST PUSH2 0x2710 DUP3 PUSH2 0xFFFF AND GT ISZERO PUSH2 0x814 JUMPI PUSH1 0x40 MLOAD PUSH4 0x2BC7B84D PUSH1 0xE2 SHL DUP2 MSTORE PUSH1 0x4 ADD PUSH1 0x40 MLOAD DUP1 SWAP2 SUB SWAP1 REVERT JUMPDEST PUSH8 0xDE0B6B3A7640000 DUP2 PUSH8 0xFFFFFFFFFFFFFFFF AND GT ISZERO PUSH2 0x847 JUMPI PUSH1 0x40 MLOAD PUSH4 0x2BC7B84D PUSH1 0xE2 SHL DUP2 MSTORE PUSH1 0x4 ADD PUSH1 0x40 MLOAD DUP1 SWAP2 SUB SWAP1 REVERT JUMPDEST PUSH0 DUP3 PUSH2 0xFFFF AND GT DUP1 ISZERO PUSH2 0x862 JUMPI POP PUSH8 0xFFFFFFFFFFFFFFFF DUP2 AND ISZERO JUMPDEST ISZERO PUSH2 0x880 JUMPI PUSH1 0x40 MLOAD PUSH4 0xFE9EC71 PUSH1 0xE4 SHL DUP2 MSTORE PUSH1 0x4 ADD PUSH1 0x40 MLOAD DUP1 SWAP2 SUB SWAP1 REVERT JUMPDEST PUSH1 0x1 DUP1 SLOAD PUSH32 0xFFFFFFFFFFFFFFFFFFFF00000000000000000000FFFFFFFFFFFFFFFFFFFFFFFF AND PUSH1 0x1 PUSH1 0x60 SHL PUSH2 0xFFFF DUP6 AND SWAP1 DUP2 MUL PUSH32 0xFFFFFFFFFFFFFFFFFFFF0000000000000000FFFFFFFFFFFFFFFFFFFFFFFFFFFF AND SWAP2 SWAP1 SWAP2 OR PUSH1 0x1 PUSH1 0x70 SHL PUSH8 0xFFFFFFFFFFFFFFFF DUP6 AND SWAP1 DUP2 MUL SWAP2 SWAP1 SWAP2 OR SWAP1 SWAP3 SSTORE PUSH1 0x40 DUP1 MLOAD SWAP2 DUP3 MSTORE PUSH1 0x20 DUP3 ADD SWAP3 SWAP1 SWAP3 MSTORE PUSH32 0x59B73CA79BCB3DCB02C4D2B81E1A2DA4C9FD9857ED81CFB16C5431B502F8C71B SWAP2 ADD JUMPDEST PUSH1 0x40 MLOAD DUP1 SWAP2 SUB SWAP1 LOG1 POP POP JUMP JUMPDEST PUSH0 DUP4 DUP4 DUP1 DUP1 PUSH1 0x1F ADD PUSH1 0x20 DUP1 SWAP2 DIV MUL PUSH1 0x20 ADD PUSH1 0x40 MLOAD SWAP1 DUP2 ADD PUSH1 0x40 MSTORE DUP1 SWAP4 SWAP3 SWAP2 SWAP1 DUP2 DUP2 MSTORE PUSH1 0x20 ADD DUP4 DUP4 DUP1 DUP3 DUP5 CALLDATACOPY PUSH0 SWAP3 ADD SWAP2 SWAP1 SWAP2 MSTORE POP POP DUP3 MLOAD SWAP3 SWAP4 POP POP PUSH1 0x22 SWAP1 SWAP2 LT SWAP1 POP DUP1 PUSH2 0x97F JUMPI POP PUSH1 0x5A DUP2 MLOAD GT JUMPDEST ISZERO PUSH2 0x99D JUMPI PUSH1 0x40 MLOAD PUSH4 0xE6C4247B PUSH1 0xE0 SHL DUP2 MSTORE PUSH1 0x4 ADD PUSH1 0x40 MLOAD DUP1 SWAP2 SUB SWAP1 REVERT JUMPDEST PUSH1 0x40 DUP1 MLOAD PUSH1 0xE0 DUP2 ADD DUP3 MSTORE PUSH1 0x1 SLOAD PUSH2 0xFFFF DUP1 DUP3 AND DUP4 MSTORE PUSH3 0x10000 DUP3 DIV DUP2 AND PUSH1 0x20 DUP5 ADD MSTORE PUSH8 0xFFFFFFFFFFFFFFFF PUSH5 0x100000000 DUP4 DIV DUP2 AND SWAP5 DUP5 ADD SWAP5 SWAP1 SWAP5 MSTORE PUSH1 0x1 PUSH1 0x60 SHL DUP3 DIV DUP2 AND PUSH1 0x60 DUP5 ADD DUP2 SWAP1 MSTORE PUSH1 0x1 PUSH1 0x70 SHL DUP4 DIV DUP6 AND PUSH1 0x80 DUP6 ADD MSTORE PUSH1 0x1 PUSH1 0xB0 SHL DUP4 DIV SWAP1 SWAP2 AND PUSH1 0xA0 DUP5 ADD MSTORE PUSH1 0x1 PUSH1 0xC0 SHL SWAP1 SWAP2 DIV SWAP1 SWAP3 AND PUSH1 0xC0 DUP3 ADD MSTORE CALLVALUE SWAP2 PUSH0 SWAP2 SWAP1 ISZERO PUSH2 0xA78 JUMPI PUSH2 0x2710 DUP2 PUSH1 0x60 ADD MLOAD PUSH2 0xFFFF AND DUP5 PUSH2 0xA37 SWAP2 SWAP1 PUSH2 0x1A67 JUMP JUMPDEST PUSH2 0xA41 SWAP2 SWAP1 PUSH2 0x1A92 JUMP JUMPDEST SWAP2 POP DUP1 PUSH1 0x80 ADD MLOAD PUSH8 0xFFFFFFFFFFFFFFFF AND DUP3 GT ISZERO PUSH2 0xA6B JUMPI DUP1 PUSH1 0x80 ADD MLOAD PUSH8 0xFFFFFFFFFFFFFFFF AND SWAP2 POP JUMPDEST PUSH2 0xA75 DUP3 DUP5 PUSH2 0x1A54 JUMP JUMPDEST SWAP3 POP JUMPDEST PUSH0 PUSH2 0xA88 PUSH5 0x2540BE400 DUP6 PUSH2 0x1AA5 JUMP JUMPDEST SWAP1 POP DUP1 ISZERO PUSH2 0xAA9 JUMPI PUSH2 0xA9A DUP2 DUP5 PUSH2 0x1A09 JUMP JUMPDEST SWAP3 POP PUSH2 0xAA6 DUP2 DUP6 PUSH2 0x1A54 JUMP JUMPDEST SWAP4 POP JUMPDEST PUSH0 DUP7 PUSH2 0xFFFF AND GT PUSH2 0xB01 JUMPI PUSH1 0x40 MLOAD PUSH3 0x461BCD PUSH1 0xE5 SHL DUP2 MSTORE PUSH1 0x20 PUSH1 0x4 DUP3 ADD MSTORE PUSH1 0x10 PUSH1 0x24 DUP3 ADD MSTORE PUSH32 0x696E76616C696420747820707269636500000000000000000000000000000000 PUSH1 0x44 DUP3 ADD MSTORE PUSH1 0x64 ADD JUMPDEST PUSH1 0x40 MLOAD DUP1 SWAP2 SUB SWAP1 REVERT JUMPDEST PUSH5 0x2540BE400 PUSH2 0xB17 PUSH2 0x12C PUSH2 0xFFFF DUP10 AND PUSH2 0x1A67 JUMP JUMPDEST PUSH2 0xB21 SWAP2 SWAP1 PUSH2 0x1A67 JUMP JUMPDEST DUP5 GT PUSH2 0xB5E JUMPI PUSH1 0x40 MLOAD PUSH3 0x461BCD PUSH1 0xE5 SHL DUP2 MSTORE PUSH1 0x20 PUSH1 0x4 DUP3 ADD MSTORE PUSH1 0xC PUSH1 0x24 DUP3 ADD MSTORE PUSH12 0x756E6166666F726461626C65 PUSH1 0xA0 SHL PUSH1 0x44 DUP3 ADD MSTORE PUSH1 0x64 ADD PUSH2 0xAF8 JUMP JUMPDEST PUSH0 PUSH1 0x3 DUP1 SLOAD SWAP1 POP SWAP1 POP PUSH1 0x3 PUSH1 0x40 MLOAD DUP1 PUSH1 0xE0 ADD PUSH1 0x40 MSTORE DUP1 CALLER PUSH1 0x1 PUSH1 0x1 PUSH1 0xA0 SHL SUB AND DUP2 MSTORE PUSH1 0x20 ADD DUP8 DUP2 MSTORE PUSH1 0x20 ADD DUP7 DUP2 MSTORE PUSH1 0x20 ADD DUP10 PUSH2 0xFFFF AND DUP2 MSTORE PUSH1 0x20 ADD TIMESTAMP DUP2 MSTORE PUSH1 0x20 ADD DUP12 DUP12 DUP1 DUP1 PUSH1 0x1F ADD PUSH1 0x20 DUP1 SWAP2 DIV MUL PUSH1 0x20 ADD PUSH1 0x40 MLOAD SWAP1 DUP2 ADD PUSH1 0x40 MSTORE DUP1 SWAP4 SWAP3 SWAP2 SWAP1 DUP2 DUP2 MSTORE PUSH1 0x20 ADD DUP4 DUP4 DUP1 DUP3 DUP5 CALLDATACOPY PUSH0 SWAP3 ADD DUP3 SWAP1 MSTORE POP SWAP4 DUP6 MSTORE POP POP PUSH1 0x1 PUSH1 0x20 SWAP4 DUP5 ADD DUP2 SWAP1 MSTORE DUP6 SLOAD DUP1 DUP3 ADD DUP8 SSTORE SWAP6 DUP4 MSTORE SWAP2 DUP4 SWAP1 KECCAK256 DUP5 MLOAD PUSH1 0x7 SWAP1 SWAP7 MUL ADD DUP1 SLOAD PUSH20 0xFFFFFFFFFFFFFFFFFFFFFFFFFFFFFFFFFFFFFFFF NOT AND PUSH1 0x1 PUSH1 0x1 PUSH1 0xA0 SHL SUB SWAP1 SWAP7 AND SWAP6 SWAP1 SWAP6 OR DUP6 SSTORE POP SWAP1 DUP3 ADD MLOAD SWAP1 DUP4 ADD SSTORE PUSH1 0x40 DUP2 ADD MLOAD PUSH1 0x2 DUP4 ADD SSTORE PUSH1 0x60 DUP2 ADD MLOAD PUSH1 0x3 DUP4 ADD SSTORE PUSH1 0x80 DUP2 ADD MLOAD PUSH1 0x4 DUP4 ADD SSTORE PUSH1 0xA0 DUP2 ADD MLOAD SWAP1 SWAP2 SWAP1 PUSH1 0x5 DUP3 ADD SWAP1 PUSH2 0xC5D SWAP1 DUP3 PUSH2 0x1B17 JUMP JUMPDEST POP PUSH1 0xC0 DUP3 ADD MLOAD PUSH1 0x6 DUP3 ADD DUP1 SLOAD PUSH1 0xFF NOT AND PUSH1 0x1 DUP4 PUSH1 0x5 DUP2 GT ISZERO PUSH2 0xC81 JUMPI PUSH2 0xC81 PUSH2 0x17A4 JUMP JUMPDEST MUL OR SWAP1 SSTORE POP POP POP CALLER PUSH1 0x1 PUSH1 0x1 PUSH1 0xA0 SHL SUB AND DUP2 PUSH32 0xA7AA0BF5F2A5106EB711BCA96C8EA6EA0D99EC2C496D4D2C5DC0AF8217D43C7C DUP8 DUP8 DUP12 DUP15 DUP15 PUSH1 0x40 MLOAD PUSH2 0xCCA SWAP6 SWAP5 SWAP4 SWAP3 SWAP2 SWAP1 PUSH2 0x1BD2 JUMP JUMPDEST PUSH1 0x40 MLOAD DUP1 SWAP2 SUB SWAP1 LOG3 POP POP POP POP POP POP POP POP POP JUMP JUMPDEST PUSH0 PUSH1 0x3 DUP4 DUP2 SLOAD DUP2 LT PUSH2 0xCF1 JUMPI PUSH2 0xCF1 PUSH2 0x19E1 JUMP JUMPDEST PUSH0 SWAP2 DUP3 MSTORE PUSH1 0x20 SWAP1 SWAP2 KECCAK256 PUSH1 0x7 SWAP1 SWAP2 MUL ADD SWAP1 POP PUSH1 0x1 PUSH1 0x6 DUP3 ADD SLOAD PUSH1 0xFF AND PUSH1 0x5 DUP2 GT ISZERO PUSH2 0xD1D JUMPI PUSH2 0xD1D PUSH2 0x17A4 JUMP JUMPDEST EQ PUSH2 0xD3B JUMPI PUSH1 0x40 MLOAD PUSH4 0x1DD2188D PUSH1 0xE3 SHL DUP2 MSTORE PUSH1 0x4 ADD PUSH1 0x40 MLOAD DUP1 SWAP2 SUB SWAP1 REVERT JUMPDEST DUP1 SLOAD PUSH1 0x1 PUSH1 0x1 PUSH1 0xA0 SHL SUB AND CALLER EQ PUSH2 0xD65 JUMPI PUSH1 0x40 MLOAD PUSH4 0x4CA88867 PUSH1 0xE0 SHL DUP2 MSTORE PUSH1 0x4 ADD PUSH1 0x40 MLOAD DUP1 SWAP2 SUB SWAP1 REVERT JUMPDEST PUSH1 0x1 SLOAD PUSH1 0x4 DUP3 ADD SLOAD PUSH2 0xFFFF SWAP1 SWAP2 AND SWAP1 PUSH2 0xD7E SWAP1 TIMESTAMP PUSH2 0x1A54 JUMP JUMPDEST LT ISZERO PUSH2 0xD9D JUMPI PUSH1 0x40 MLOAD PUSH4 0xA74C1C5F PUSH1 0xE0 SHL DUP2 MSTORE PUSH1 0x4 ADD PUSH1 0x40 MLOAD DUP1 SWAP2 SUB SWAP1 REVERT JUMPDEST DUP1 PUSH1 0x3 ADD SLOAD DUP3 PUSH2 0xFFFF AND GT PUSH2 0xE1A JUMPI PUSH1 0x40 MLOAD PUSH3 0x461BCD PUSH1 0xE5 SHL DUP2 MSTORE PUSH1 0x20 PUSH1 0x4 DUP3 ADD MSTORE PUSH1 0x2D PUSH1 0x24 DUP3 ADD MSTORE PUSH32 0x746865206E65772074782070726963652073686F756C64206265206C61726765 PUSH1 0x44 DUP3 ADD MSTORE PUSH32 0x72207468616E206265666F726500000000000000000000000000000000000000 PUSH1 0x64 DUP3 ADD MSTORE PUSH1 0x84 ADD PUSH2 0xAF8 JUMP JUMPDEST PUSH5 0x2540BE400 PUSH2 0xE30 PUSH2 0x12C PUSH2 0xFFFF DUP6 AND PUSH2 0x1A67 JUMP JUMPDEST PUSH2 0xE3A SWAP2 SWAP1 PUSH2 0x1A67 JUMP JUMPDEST DUP2 PUSH1 0x1 ADD SLOAD GT PUSH2 0xE7B JUMPI PUSH1 0x40 MLOAD PUSH3 0x461BCD PUSH1 0xE5 SHL DUP2 MSTORE PUSH1 0x20 PUSH1 0x4 DUP3 ADD MSTORE PUSH1 0xC PUSH1 0x24 DUP3 ADD MSTORE PUSH12 0x756E6166666F726461626C65 PUSH1 0xA0 SHL PUSH1 0x44 DUP3 ADD MSTORE PUSH1 0x64 ADD PUSH2 0xAF8 JUMP JUMPDEST PUSH2 0xFFFF DUP3 AND PUSH1 0x3 DUP3 ADD DUP2 SWAP1 SSTORE TIMESTAMP PUSH1 0x4 DUP4 ADD SSTORE PUSH1 0x40 MLOAD SWAP1 DUP2 MSTORE DUP4 SWAP1 PUSH32 0xE6190C43C634720BCD5B72BB0B920B88F8D0A15AE7E5DCBB0582C1BB2F98DF4B SWAP1 PUSH1 0x20 ADD PUSH1 0x40 MLOAD DUP1 SWAP2 SUB SWAP1 LOG2 POP POP POP JUMP JUMPDEST PUSH2 0xECF PUSH2 0x1689 JUMP JUMPDEST PUSH2 0x2710 DUP3 PUSH2 0xFFFF AND GT ISZERO PUSH2 0xEF6 JUMPI PUSH1 0x40 MLOAD PUSH4 0x2BC7B84D PUSH1 0xE2 SHL DUP2 MSTORE PUSH1 0x4 ADD PUSH1 0x40 MLOAD DUP1 SWAP2 SUB SWAP1 REVERT JUMPDEST PUSH8 0xDE0B6B3A7640000 DUP2 PUSH8 0xFFFFFFFFFFFFFFFF AND GT ISZERO PUSH2 0xF29 JUMPI PUSH1 0x40 MLOAD PUSH4 0x2BC7B84D PUSH1 0xE2 SHL DUP2 MSTORE PUSH1 0x4 ADD PUSH1 0x40 MLOAD DUP1 SWAP2 SUB SWAP1 REVERT JUMPDEST PUSH0 DUP3 PUSH2 0xFFFF AND GT DUP1 ISZERO PUSH2 0xF44 JUMPI POP PUSH8 0xFFFFFFFFFFFFFFFF DUP2 AND ISZERO JUMPDEST ISZERO PUSH2 0xF62 JUMPI PUSH1 0x40 MLOAD PUSH4 0xFE9EC71 PUSH1 0xE4 SHL DUP2 MSTORE PUSH1 0x4 ADD PUSH1 0x40 MLOAD DUP1 SWAP2 SUB SWAP1 REVERT JUMPDEST PUSH1 0x1 DUP1 SLOAD PUSH12 0xFFFFFFFFFFFFFFFFFFFF0000 NOT AND PUSH3 0x10000 PUSH2 0xFFFF DUP6 AND SWAP1 DUP2 MUL PUSH12 0xFFFFFFFFFFFFFFFF00000000 NOT AND SWAP2 SWAP1 SWAP2 OR PUSH5 0x100000000 PUSH8 0xFFFFFFFFFFFFFFFF DUP6 AND SWAP1 DUP2 MUL SWAP2 SWAP1 SWAP2 OR SWAP1 SWAP3 SSTORE PUSH1 0x40 DUP1 MLOAD SWAP2 DUP3 MSTORE PUSH1 0x20 DUP3 ADD SWAP3 SWAP1 SWAP3 MSTORE PUSH32 0x1007FF7AEC53E9626CE51F25D4E093F290F60DA8019C8CF489F0AE2F21EBF76A SWAP2 ADD PUSH2 0x926 JUMP JUMPDEST PUSH0 CALLER PUSH20 0xBC10000000000000000000000000000000001000 EQ PUSH2 0x101B JUMPI PUSH1 0x40 MLOAD PUSH4 0x4CA88867 PUSH1 0xE0 SHL DUP2 MSTORE PUSH1 0x4 ADD PUSH1 0x40 MLOAD DUP1 SWAP2 SUB SWAP1 REVERT JUMPDEST PUSH0 DUP6 DUP6 PUSH1 0x40 MLOAD PUSH1 0x20 ADD PUSH2 0x1045 SWAP3 SWAP2 SWAP1 SWAP2 DUP3 MSTORE PUSH1 0xE0 SHL PUSH1 0x1 PUSH1 0x1 PUSH1 0xE0 SHL SUB NOT AND PUSH1 0x20 DUP3 ADD MSTORE PUSH1 0x24 ADD SWAP1 JUMP JUMPDEST PUSH1 0x40 DUP1 MLOAD PUSH1 0x1F NOT DUP2 DUP5 SUB ADD DUP2 MSTORE SWAP2 DUP2 MSTORE DUP2 MLOAD PUSH1 0x20 SWAP3 DUP4 ADD KECCAK256 PUSH0 DUP2 DUP2 MSTORE PUSH1 0x2 SWAP1 SWAP4 MSTORE SWAP2 KECCAK256 SLOAD SWAP1 SWAP2 POP PUSH1 0xFF AND ISZERO PUSH2 0x10BC JUMPI PUSH1 0x40 MLOAD PUSH3 0x461BCD PUSH1 0xE5 SHL DUP2 MSTORE PUSH1 0x20 PUSH1 0x4 DUP3 ADD MSTORE PUSH1 0xA PUSH1 0x24 DUP3 ADD MSTORE PUSH32 0x6475706C69636174656400000000000000000000000000000000000000000000 PUSH1 0x44 DUP3 ADD MSTORE PUSH1 0x64 ADD PUSH2 0xAF8 JUMP JUMPDEST PUSH0 DUP4 GT DUP1 ISZERO PUSH2 0x10D7 JUMPI POP PUSH2 0x10D5 PUSH5 0x2540BE400 DUP5 PUSH2 0x1AA5 JUMP JUMPDEST ISZERO JUMPDEST PUSH2 0x1123 JUMPI PUSH1 0x40 MLOAD PUSH3 0x461BCD PUSH1 0xE5 SHL DUP2 MSTORE PUSH1 0x20 PUSH1 0x4 DUP3 ADD MSTORE PUSH1 0xE PUSH1 0x24 DUP3 ADD MSTORE PUSH32 0x696E76616C696420616D6F756E74000000000000000000000000000000000000 PUSH1 0x44 DUP3 ADD MSTORE PUSH1 0x64 ADD PUSH2 0xAF8 JUMP JUMPDEST PUSH1 0x40 DUP1 MLOAD PUSH1 0xE0 DUP2 ADD DUP3 MSTORE PUSH1 0x1 SLOAD PUSH2 0xFFFF DUP1 DUP3 AND DUP4 MSTORE PUSH3 0x10000 DUP3 DIV DUP2 AND PUSH1 0x20 DUP5 ADD DUP2 SWAP1 MSTORE PUSH8 0xFFFFFFFFFFFFFFFF PUSH5 0x100000000 DUP5 DIV DUP2 AND SWAP6 DUP6 ADD SWAP6 SWAP1 SWAP6 MSTORE PUSH1 0x1 PUSH1 0x60 SHL DUP4 DIV DUP3 AND PUSH1 0x60 DUP6 ADD MSTORE PUSH1 0x1 PUSH1 0x70 SHL DUP4 DIV DUP6 AND PUSH1 0x80 DUP6 ADD MSTORE PUSH1 0x1 PUSH1 0xB0 SHL DUP4 DIV SWAP1 SWAP2 AND PUSH1 0xA0 DUP5 ADD MSTORE PUSH1 0x1 PUSH1 0xC0 SHL SWAP1 SWAP2 DIV SWAP1 SWAP3 AND PUSH1 0xC0 DUP3 ADD MSTORE SWAP1 ISZERO PUSH2 0x11FA JUMPI PUSH2 0x2710 DUP2 PUSH1 0x20 ADD MLOAD PUSH2 0xFFFF AND DUP6 PUSH2 0x11B9 SWAP2 SWAP1 PUSH2 0x1A67 JUMP JUMPDEST PUSH2 0x11C3 SWAP2 SWAP1 PUSH2 0x1A92 JUMP JUMPDEST SWAP3 POP DUP1 PUSH1 0x40 ADD MLOAD PUSH8 0xFFFFFFFFFFFFFFFF AND DUP4 GT ISZERO PUSH2 0x11ED JUMPI DUP1 PUSH1 0x40 ADD MLOAD PUSH8 0xFFFFFFFFFFFFFFFF AND SWAP3 POP JUMPDEST PUSH2 0x11F7 DUP4 DUP6 PUSH2 0x1A54 JUMP JUMPDEST SWAP4 POP JUMPDEST PUSH0 DUP3 DUP2 MSTORE PUSH1 0x2 PUSH1 0x20 MSTORE PUSH1 0x40 SWAP1 DUP2 SWAP1 KECCAK256 DUP1 SLOAD PUSH1 0xFF NOT AND PUSH1 0x1 OR SWAP1 SSTORE MLOAD DUP5 SWAP1 PUSH1 0x1 PUSH1 0x1 PUSH1 0xA0 SHL SUB DUP8 AND SWAP1 PUSH32 0xBC0E2D4F64F63E9C6B07A1665A26F689B20E42E836968119499DB41C2D315EFA SWAP1 PUSH2 0x126A SWAP1 DUP12 SWAP1 DUP12 SWAP1 DUP10 SWAP1 SWAP3 DUP4 MSTORE PUSH4 0xFFFFFFFF SWAP2 SWAP1 SWAP2 AND PUSH1 0x20 DUP4 ADD MSTORE PUSH1 0x40 DUP3 ADD MSTORE PUSH1 0x60 ADD SWAP1 JUMP JUMPDEST PUSH1 0x40 MLOAD DUP1 SWAP2 SUB SWAP1 LOG3 POP POP SWAP5 SWAP4 POP POP POP POP JUMP JUMPDEST CALLER PUSH20 0xBC10000000000000000000000000000000001000 EQ PUSH2 0x12B0 JUMPI PUSH1 0x40 MLOAD PUSH4 0x4CA88867 PUSH1 0xE0 SHL DUP2 MSTORE PUSH1 0x4 ADD PUSH1 0x40 MLOAD DUP1 SWAP2 SUB SWAP1 REVERT JUMPDEST PUSH0 PUSH1 0x3 DUP6 DUP2 SLOAD DUP2 LT PUSH2 0x12C4 JUMPI PUSH2 0x12C4 PUSH2 0x19E1 JUMP JUMPDEST PUSH0 SWAP2 DUP3 MSTORE PUSH1 0x20 SWAP1 SWAP2 KECCAK256 PUSH1 0x7 SWAP1 SWAP2 MUL ADD PUSH1 0x6 DUP2 ADD SLOAD SWAP1 SWAP2 POP PUSH1 0xFF AND PUSH1 0x1 DUP2 PUSH1 0x5 DUP2 GT ISZERO PUSH2 0x12F2 JUMPI PUSH2 0x12F2 PUSH2 0x17A4 JUMP JUMPDEST EQ DUP1 PUSH2 0x130F JUMPI POP PUSH1 0x2 DUP2 PUSH1 0x5 DUP2 GT ISZERO PUSH2 0x130D JUMPI PUSH2 0x130D PUSH2 0x17A4 JUMP JUMPDEST EQ JUMPDEST PUSH2 0x1317 JUMPI PUSH0 DUP1 REVERT JUMPDEST PUSH1 0x40 DUP1 MLOAD PUSH1 0x60 DUP2 ADD DUP3 MSTORE DUP7 DUP2 MSTORE PUSH4 0xFFFFFFFF DUP7 DUP2 AND PUSH1 0x20 DUP1 DUP5 ADD SWAP2 DUP3 MSTORE DUP4 DUP6 ADD DUP9 DUP2 MSTORE PUSH0 DUP13 DUP2 MSTORE PUSH1 0x4 SWAP3 DUP4 SWAP1 MSTORE SWAP6 SWAP1 SWAP6 KECCAK256 SWAP4 MLOAD DUP5 SSTORE SWAP1 MLOAD PUSH1 0x1 DUP5 ADD DUP1 SLOAD SWAP2 SWAP1 SWAP4 AND PUSH4 0xFFFFFFFF NOT SWAP1 SWAP2 AND OR SWAP1 SWAP2 SSTORE SWAP2 MLOAD PUSH1 0x2 SWAP2 DUP3 ADD SSTORE PUSH1 0x6 DUP5 ADD DUP1 SLOAD PUSH1 0xFF NOT AND PUSH1 0x5 OR SWAP1 SSTORE TIMESTAMP SWAP2 DUP5 ADD SWAP2 SWAP1 SWAP2 SSTORE DUP3 ADD SLOAD DUP1 ISZERO PUSH2 0x13AB JUMPI PUSH2 0x13AB PUSH20 0xBC10000000000000000000000000000000000002 DUP3 PUSH2 0x15F1 JUMP JUMPDEST PUSH1 0x1 DUP4 ADD SLOAD PUSH1 0x40 MLOAD PUSH0 SWAP2 SWAP1 PUSH2 0x13BF SWAP1 PUSH2 0x1711 JUMP JUMPDEST DUP3 SWAP1 PUSH1 0x40 MLOAD DUP1 SWAP2 SUB SWAP1 DUP4 CREATE2 SWAP2 POP POP DUP1 ISZERO DUP1 ISZERO PUSH2 0x13DD JUMPI RETURNDATASIZE PUSH0 DUP1 RETURNDATACOPY RETURNDATASIZE PUSH0 REVERT JUMPDEST POP POP PUSH1 0x40 DUP1 MLOAD DUP8 DUP2 MSTORE PUSH4 0xFFFFFFFF DUP8 AND PUSH1 0x20 DUP3 ADD MSTORE SWAP1 DUP2 ADD DUP6 SWAP1 MSTORE DUP8 SWAP1 PUSH32 0xB74F5DBF34AABE02F20FF775B898ACF1A9F70E4FBD48AD50548ACAE86E1CCD78 SWAP1 PUSH1 0x60 ADD PUSH1 0x40 MLOAD DUP1 SWAP2 SUB SWAP1 LOG2 POP POP POP POP POP POP POP JUMP JUMPDEST CALLER PUSH20 0xBC10000000000000000000000000000000001000 EQ PUSH2 0x1464 JUMPI PUSH1 0x40 MLOAD PUSH4 0x4CA88867 PUSH1 0xE0 SHL DUP2 MSTORE PUSH1 0x4 ADD PUSH1 0x40 MLOAD DUP1 SWAP2 SUB SWAP1 REVERT JUMPDEST PUSH0 PUSH1 0x3 DUP3 DUP2 SLOAD DUP2 LT PUSH2 0x1478 JUMPI PUSH2 0x1478 PUSH2 0x19E1 JUMP JUMPDEST PUSH0 SWAP2 DUP3 MSTORE PUSH1 0x20 SWAP1 SWAP2 KECCAK256 PUSH1 0x7 SWAP1 SWAP2 MUL ADD PUSH1 0x6 DUP2 ADD SLOAD SWAP1 SWAP2 POP PUSH1 0xFF AND PUSH1 0x1 DUP2 PUSH1 0x5 DUP2 GT ISZERO PUSH2 0x14A6 JUMPI PUSH2 0x14A6 PUSH2 0x17A4 JUMP JUMPDEST EQ DUP1 PUSH2 0x14C3 JUMPI POP PUSH1 0x2 DUP2 PUSH1 0x5 DUP2 GT ISZERO PUSH2 0x14C1 JUMPI PUSH2 0x14C1 PUSH2 0x17A4 JUMP JUMPDEST EQ JUMPDEST PUSH2 0x14CB JUMPI PUSH0 DUP1 REVERT JUMPDEST PUSH1 0x6 DUP3 ADD DUP1 SLOAD PUSH1 0xFF NOT AND PUSH1 0x3 OR SWAP1 SSTORE TIMESTAMP PUSH1 0x4 DUP4 ADD SSTORE PUSH1 0x40 MLOAD DUP4 SWAP1 PUSH32 0x829A8683C544AD289CE92D3CE06E9EBAD69B18A6916E60EC766C2C217461D8E9 SWAP1 PUSH0 SWAP1 LOG2 POP POP POP JUMP JUMPDEST PUSH2 0x1517 PUSH2 0x1689 JUMP JUMPDEST PUSH0 DUP2 PUSH2 0xFFFF AND GT PUSH2 0x156A JUMPI PUSH1 0x40 MLOAD PUSH3 0x461BCD PUSH1 0xE5 SHL DUP2 MSTORE PUSH1 0x20 PUSH1 0x4 DUP3 ADD MSTORE PUSH1 0x18 PUSH1 0x24 DUP3 ADD MSTORE PUSH32 0x696E76616C6964207468726F74746C652073657474696E670000000000000000 PUSH1 0x44 DUP3 ADD MSTORE PUSH1 0x64 ADD PUSH2 0xAF8 JUMP JUMPDEST PUSH1 0x1 DUP1 SLOAD PUSH2 0xFFFF NOT AND PUSH2 0xFFFF DUP4 AND SWAP1 DUP2 OR SWAP1 SWAP2 SSTORE PUSH1 0x40 MLOAD SWAP1 DUP2 MSTORE PUSH32 0xE536F709E7276119FF965216F1BBD671EF9EA99059743501129A0C9BEC5D37ED SWAP1 PUSH1 0x20 ADD PUSH1 0x40 MLOAD DUP1 SWAP2 SUB SWAP1 LOG1 POP JUMP JUMPDEST PUSH2 0x15BC PUSH2 0x1689 JUMP JUMPDEST PUSH1 0x1 PUSH1 0x1 PUSH1 0xA0 SHL SUB DUP2 AND PUSH2 0x15E5 JUMPI PUSH1 0x40 MLOAD PUSH4 0x1E4FBDF7 PUSH1 0xE0 SHL DUP2 MSTORE PUSH0 PUSH1 0x4 DUP3 ADD MSTORE PUSH1 0x24 ADD PUSH2 0xAF8 JUMP JUMPDEST PUSH2 0x15EE DUP2 PUSH2 0x16B5 JUMP JUMPDEST POP JUMP JUMPDEST DUP1 SELFBALANCE LT ISZERO PUSH2 0x1614 JUMPI PUSH1 0x40 MLOAD PUSH4 0xCD786059 PUSH1 0xE0 SHL DUP2 MSTORE ADDRESS PUSH1 0x4 DUP3 ADD MSTORE PUSH1 0x24 ADD PUSH2 0xAF8 JUMP JUMPDEST PUSH0 DUP3 PUSH1 0x1 PUSH1 0x1 PUSH1 0xA0 SHL SUB AND DUP3 PUSH1 0x40 MLOAD PUSH0 PUSH1 0x40 MLOAD DUP1 DUP4 SUB DUP2 DUP6 DUP8 GAS CALL SWAP3 POP POP POP RETURNDATASIZE DUP1 PUSH0 DUP2 EQ PUSH2 0x165D JUMPI PUSH1 0x40 MLOAD SWAP2 POP PUSH1 0x1F NOT PUSH1 0x3F RETURNDATASIZE ADD AND DUP3 ADD PUSH1 0x40 MSTORE RETURNDATASIZE DUP3 MSTORE RETURNDATASIZE PUSH0 PUSH1 0x20 DUP5 ADD RETURNDATACOPY PUSH2 0x1662 JUMP JUMPDEST PUSH1 0x60 SWAP2 POP JUMPDEST POP POP SWAP1 POP DUP1 PUSH2 0x1684 JUMPI PUSH1 0x40 MLOAD PUSH4 0xA12F521 PUSH1 0xE1 SHL DUP2 MSTORE PUSH1 0x4 ADD PUSH1 0x40 MLOAD DUP1 SWAP2 SUB SWAP1 REVERT JUMPDEST POP POP POP JUMP JUMPDEST PUSH0 SLOAD PUSH1 0x1 PUSH1 0x1 PUSH1 0xA0 SHL SUB AND CALLER EQ PUSH2 0x6E0 JUMPI PUSH1 0x40 MLOAD PUSH4 0x118CDAA7 PUSH1 0xE0 SHL DUP2 MSTORE CALLER PUSH1 0x4 DUP3 ADD MSTORE PUSH1 0x24 ADD PUSH2 0xAF8 JUMP JUMPDEST PUSH0 DUP1 SLOAD PUSH1 0x1 PUSH1 0x1 PUSH1 0xA0 SHL SUB DUP4 DUP2 AND PUSH20 0xFFFFFFFFFFFFFFFFFFFFFFFFFFFFFFFFFFFFFFFF NOT DUP4 AND DUP2 OR DUP5 SSTORE PUSH1 0x40 MLOAD SWAP2 SWAP1 SWAP3 AND SWAP3 DUP4 SWAP2 PUSH32 0x8BE0079C531659141344CD1FD0A4F28419497F9722A3DAAFE3B4186F6B6457E0 SWAP2 SWAP1 LOG3 POP POP JUMP JUMPDEST PUSH1 0x8 DUP1 PUSH2 0x1C1A DUP4 CODECOPY ADD SWAP1 JUMP JUMPDEST PUSH0 PUSH1 0x20 DUP3 DUP5 SUB SLT ISZERO PUSH2 0x172D JUMPI PUSH0 DUP1 REVERT JUMPDEST DUP2 CALLDATALOAD PUSH1 0x1 PUSH1 0x1 PUSH1 0xE0 SHL SUB NOT DUP2 AND DUP2 EQ PUSH2 0x1744 JUMPI PUSH0 DUP1 REVERT JUMPDEST SWAP4 SWAP3 POP POP POP JUMP JUMPDEST PUSH0 PUSH1 0x20 DUP3 DUP5 SUB SLT ISZERO PUSH2 0x175B JUMPI PUSH0 DUP1 REVERT JUMPDEST POP CALLDATALOAD SWAP2 SWAP1 POP JUMP JUMPDEST DUP1 CALLDATALOAD PUSH4 0xFFFFFFFF DUP2 AND DUP2 EQ PUSH2 0x1775 JUMPI PUSH0 DUP1 REVERT JUMPDEST SWAP2 SWAP1 POP JUMP JUMPDEST PUSH0 DUP1 PUSH1 0x40 DUP4 DUP6 SUB SLT ISZERO PUSH2 0x178B JUMPI PUSH0 DUP1 REVERT JUMPDEST DUP3 CALLDATALOAD SWAP2 POP PUSH2 0x179B PUSH1 0x20 DUP5 ADD PUSH2 0x1762 JUMP JUMPDEST SWAP1 POP SWAP3 POP SWAP3 SWAP1 POP JUMP JUMPDEST PUSH4 0x4E487B71 PUSH1 0xE0 SHL PUSH0 MSTORE PUSH1 0x21 PUSH1 0x4 MSTORE PUSH1 0x24 PUSH0 REVERT JUMPDEST PUSH1 0x1 PUSH1 0x1 PUSH1 0xA0 SHL SUB DUP9 AND DUP2 MSTORE DUP7 PUSH1 0x20 DUP3 ADD MSTORE DUP6 PUSH1 0x40 DUP3 ADD MSTORE DUP5 PUSH1 0x60 DUP3 ADD MSTORE DUP4 PUSH1 0x80 DUP3 ADD MSTORE PUSH1 0xE0 PUSH1 0xA0 DUP3 ADD MSTORE PUSH0 DUP4 MLOAD DUP1 PUSH1 0xE0 DUP5 ADD MSTORE DUP1 PUSH1 0x20 DUP7 ADD PUSH2 0x100 DUP6 ADD MCOPY PUSH0 PUSH2 0x100 DUP3 DUP6 ADD ADD MSTORE PUSH2 0x100 PUSH1 0x1F NOT PUSH1 0x1F DUP4 ADD AND DUP5 ADD ADD SWAP2 POP POP PUSH1 0x6 DUP4 LT PUSH2 0x182D JUMPI PUSH4 0x4E487B71 PUSH1 0xE0 SHL PUSH0 MSTORE PUSH1 0x21 PUSH1 0x4 MSTORE PUSH1 0x24 PUSH0 REVERT JUMPDEST DUP3 PUSH1 0xC0 DUP4 ADD MSTORE SWAP9 SWAP8 POP POP POP POP POP POP POP POP JUMP JUMPDEST DUP1 CALLDATALOAD PUSH2 0xFFFF DUP2 AND DUP2 EQ PUSH2 0x1775 JUMPI PUSH0 DUP1 REVERT JUMPDEST PUSH0 DUP1 PUSH1 0x40 DUP4 DUP6 SUB SLT ISZERO PUSH2 0x1861 JUMPI PUSH0 DUP1 REVERT JUMPDEST PUSH2 0x186A DUP4 PUSH2 0x183F JUMP JUMPDEST SWAP2 POP PUSH1 0x20 DUP4 ADD CALLDATALOAD PUSH8 0xFFFFFFFFFFFFFFFF DUP2 AND DUP2 EQ PUSH2 0x1886 JUMPI PUSH0 DUP1 REVERT JUMPDEST DUP1 SWAP2 POP POP SWAP3 POP SWAP3 SWAP1 POP JUMP JUMPDEST PUSH0 DUP1 PUSH0 PUSH1 0x40 DUP5 DUP7 SUB SLT ISZERO PUSH2 0x18A3 JUMPI PUSH0 DUP1 REVERT JUMPDEST DUP4 CALLDATALOAD PUSH8 0xFFFFFFFFFFFFFFFF DUP2 GT ISZERO PUSH2 0x18B9 JUMPI PUSH0 DUP1 REVERT JUMPDEST DUP5 ADD PUSH1 0x1F DUP2 ADD DUP7 SGT PUSH2 0x18C9 JUMPI PUSH0 DUP1 REVERT JUMPDEST DUP1 CALLDATALOAD PUSH8 0xFFFFFFFFFFFFFFFF DUP2 GT ISZERO PUSH2 0x18DF JUMPI PUSH0 DUP1 REVERT JUMPDEST DUP7 PUSH1 0x20 DUP3 DUP5 ADD ADD GT ISZERO PUSH2 0x18F0 JUMPI PUSH0 DUP1 REVERT JUMPDEST PUSH1 0x20 SWAP2 DUP3 ADD SWAP5 POP SWAP3 POP PUSH2 0x1904 SWAP1 DUP6 ADD PUSH2 0x183F JUMP JUMPDEST SWAP1 POP SWAP3 POP SWAP3 POP SWAP3 JUMP JUMPDEST PUSH0 DUP1 PUSH1 0x40 DUP4 DUP6 SUB SLT ISZERO PUSH2 0x191E JUMPI PUSH0 DUP1 REVERT JUMPDEST DUP3 CALLDATALOAD SWAP2 POP PUSH2 0x179B PUSH1 0x20 DUP5 ADD PUSH2 0x183F JUMP JUMPDEST DUP1 CALLDATALOAD PUSH1 0x1 PUSH1 0x1 PUSH1 0xA0 SHL SUB DUP2 AND DUP2 EQ PUSH2 0x1775 JUMPI PUSH0 DUP1 REVERT JUMPDEST PUSH0 DUP1 PUSH0 DUP1 PUSH1 0x80 DUP6 DUP8 SUB SLT ISZERO PUSH2 0x1957 JUMPI PUSH0 DUP1 REVERT JUMPDEST DUP5 CALLDATALOAD SWAP4 POP PUSH2 0x1967 PUSH1 0x20 DUP7 ADD PUSH2 0x1762 JUMP JUMPDEST SWAP3 POP PUSH2 0x1975 PUSH1 0x40 DUP7 ADD PUSH2 0x192E JUMP JUMPDEST SWAP4 SWAP7 SWAP3 SWAP6 POP SWAP3 SWAP4 PUSH1 0x60 ADD CALLDATALOAD SWAP3 POP POP JUMP JUMPDEST PUSH0 DUP1 PUSH0 DUP1 PUSH1 0x80 DUP6 DUP8 SUB SLT ISZERO PUSH2 0x1998 JUMPI PUSH0 DUP1 REVERT JUMPDEST DUP5 CALLDATALOAD SWAP4 POP PUSH1 0x20 DUP6 ADD CALLDATALOAD SWAP3 POP PUSH2 0x1975 PUSH1 0x40 DUP7 ADD PUSH2 0x1762 JUMP JUMPDEST PUSH0 PUSH1 0x20 DUP3 DUP5 SUB SLT ISZERO PUSH2 0x19BF JUMPI PUSH0 DUP1 REVERT JUMPDEST PUSH2 0x1744 DUP3 PUSH2 0x183F JUMP JUMPDEST PUSH0 PUSH1 0x20 DUP3 DUP5 SUB SLT ISZERO PUSH2 0x19D8 JUMPI PUSH0 DUP1 REVERT JUMPDEST PUSH2 0x1744 DUP3 PUSH2 0x192E JUMP JUMPDEST PUSH4 0x4E487B71 PUSH1 0xE0 SHL PUSH0 MSTORE PUSH1 0x32 PUSH1 0x4 MSTORE PUSH1 0x24 PUSH0 REVERT JUMPDEST PUSH4 0x4E487B71 PUSH1 0xE0 SHL PUSH0 MSTORE PUSH1 0x11 PUSH1 0x4 MSTORE PUSH1 0x24 PUSH0 REVERT JUMPDEST DUP1 DUP3 ADD DUP1 DUP3 GT ISZERO PUSH2 0x498 JUMPI PUSH2 0x498 PUSH2 0x19F5 JUMP JUMPDEST PUSH1 0x1 DUP2 DUP2 SHR SWAP1 DUP3 AND DUP1 PUSH2 0x1A30 JUMPI PUSH1 0x7F DUP3 AND SWAP2 POP JUMPDEST PUSH1 0x20 DUP3 LT DUP2 SUB PUSH2 0x1A4E JUMPI PUSH4 0x4E487B71 PUSH1 0xE0 SHL PUSH0 MSTORE PUSH1 0x22 PUSH1 0x4 MSTORE PUSH1 0x24 PUSH0 REVERT JUMPDEST POP SWAP2 SWAP1 POP JUMP JUMPDEST DUP2 DUP2 SUB DUP2 DUP2 GT ISZERO PUSH2 0x498 JUMPI PUSH2 0x498 PUSH2 0x19F5 JUMP JUMPDEST DUP1 DUP3 MUL DUP2 ISZERO DUP3 DUP3 DIV DUP5 EQ OR PUSH2 0x498 JUMPI PUSH2 0x498 PUSH2 0x19F5 JUMP JUMPDEST PUSH4 0x4E487B71 PUSH1 0xE0 SHL PUSH0 MSTORE PUSH1 0x12 PUSH1 0x4 MSTORE PUSH1 0x24 PUSH0 REVERT JUMPDEST PUSH0 DUP3 PUSH2 0x1AA0 JUMPI PUSH2 0x1AA0 PUSH2 0x1A7E JUMP JUMPDEST POP DIV SWAP1 JUMP JUMPDEST PUSH0 DUP3 PUSH2 0x1AB3 JUMPI PUSH2 0x1AB3 PUSH2 0x1A7E JUMP JUMPDEST POP MOD SWAP1 JUMP JUMPDEST PUSH4 0x4E487B71 PUSH1 0xE0 SHL PUSH0 MSTORE PUSH1 0x41 PUSH1 0x4 MSTORE PUSH1 0x24 PUSH0 REVERT JUMPDEST PUSH1 0x1F DUP3 GT ISZERO PUSH2 0x1684 JUMPI DUP1 PUSH0 MSTORE PUSH1 0x20 PUSH0 KECCAK256 PUSH1 0x1F DUP5 ADD PUSH1 0x5 SHR DUP2 ADD PUSH1 0x20 DUP6 LT ISZERO PUSH2 0x1AF1 JUMPI POP DUP1 JUMPDEST PUSH1 0x1F DUP5 ADD PUSH1 0x5 SHR DUP3 ADD SWAP2 POP JUMPDEST DUP2 DUP2 LT ISZERO PUSH2 0x1B10 JUMPI PUSH0 DUP2 SSTORE PUSH1 0x1 ADD PUSH2 0x1AFD JUMP JUMPDEST POP POP POP POP POP JUMP JUMPDEST DUP2 MLOAD PUSH8 0xFFFFFFFFFFFFFFFF DUP2 GT ISZERO PUSH2 0x1B31 JUMPI PUSH2 0x1B31 PUSH2 0x1AB8 JUMP JUMPDEST PUSH2 0x1B45 DUP2 PUSH2 0x1B3F DUP5 SLOAD PUSH2 0x1A1C JUMP JUMPDEST DUP5 PUSH2 0x1ACC JUMP JUMPDEST PUSH1 0x20 PUSH1 0x1F DUP3 GT PUSH1 0x1 DUP2 EQ PUSH2 0x1B77 JUMPI PUSH0 DUP4 ISZERO PUSH2 0x1B60 JUMPI POP DUP5 DUP3 ADD MLOAD JUMPDEST PUSH0 NOT PUSH1 0x3 DUP6 SWAP1 SHL SHR NOT AND PUSH1 0x1 DUP5 SWAP1 SHL OR DUP5 SSTORE PUSH2 0x1B10 JUMP JUMPDEST PUSH0 DUP5 DUP2 MSTORE PUSH1 0x20 DUP2 KECCAK256 PUSH1 0x1F NOT DUP6 AND SWAP2 JUMPDEST DUP3 DUP2 LT ISZERO PUSH2 0x1BA6 JUMPI DUP8 DUP6 ADD MLOAD DUP3 SSTORE PUSH1 0x20 SWAP5 DUP6 ADD SWAP5 PUSH1 0x1 SWAP1 SWAP3 ADD SWAP2 ADD PUSH2 0x1B86 JUMP JUMPDEST POP DUP5 DUP3 LT ISZERO PUSH2 0x1BC3 JUMPI DUP7 DUP5 ADD MLOAD PUSH0 NOT PUSH1 0x3 DUP8 SWAP1 SHL PUSH1 0xF8 AND SHR NOT AND DUP2 SSTORE JUMPDEST POP POP POP POP PUSH1 0x1 SWAP1 DUP2 SHL ADD SWAP1 SSTORE POP JUMP JUMPDEST DUP6 DUP2 MSTORE DUP5 PUSH1 0x20 DUP3 ADD MSTORE PUSH2 0xFFFF DUP5 AND PUSH1 0x40 DUP3 ADD MSTORE PUSH1 0x80 PUSH1 0x60 DUP3 ADD MSTORE DUP2 PUSH1 0x80 DUP3 ADD MSTORE DUP2 DUP4 PUSH1 0xA0 DUP4 ADD CALLDATACOPY PUSH0 DUP2 DUP4 ADD PUSH1 0xA0 SWAP1 DUP2 ADD SWAP2 SWAP1 SWAP2 MSTORE PUSH1 0x1F SWAP1 SWAP3 ADD PUSH1 0x1F NOT AND ADD ADD SWAP5 SWAP4 POP POP POP POP JUMP INVALID PUSH1 0x80 PUSH1 0x40 MSTORE ADDRESS SELFDESTRUCT INVALID LOG1 PUSH5 0x736F6C6343 STOP ADDMOD BYTE STOP EXP "},"methodIdentifiers":{"cancel1(uint256)":"84a64c12","cancel2(uint256)":"c19dd320","deposit(bytes32,uint32,address,uint256)":"b55ada39","isDeposited(bytes32,uint32)":"1ccc92c7","owner()":"8da5cb5b","paid(uint256,bytes32,uint32,uint256)":"b670ab5e","param()":"883d87b1","receipts(uint256)":"0f7ee1ec","refund(uint256)":"278ecde1","renounceOwnership()":"715018a6","replaceByFee(uint256,uint16)":"b3dd64dd","setDepositTax(uint16,uint64)":"b3f33eda","setRateLimit(uint16)":"d653d820","setWithdrawalTax(uint16,uint64)":"8aa4af89","supportsInterface(bytes4)":"01ffc9a7","transferOwnership(address)":"f2fde38b","withdraw(string,uint16)":"a81de869","withdrawals(uint256)":"5cc07076"}}}}}