{
  "_format": "hh-sol-artifact-1",
  "contractName": "Bridge",
  "sourceName": "contracts/bridge/Bridge.sol",
  "abi": [
    {
      "inputs": [
        {
          "internalType": "address",
          "name": "owner",
          "type": "address"
        }
      ],
      "stateMutability": "nonpayable",
      "type": "constructor"
    },
    {
      "inputs": [],
      "name": "AccessDenied",
      "type": "error"
    },
    {
      "inputs": [
        {
          "internalType": "address",
          "name": "account",
          "type": "address"
        }
      ],
      "name": "AddressInsufficientBalance",
      "type": "error"
    },
    {
      "inputs": [],
      "name": "FailedInnerCall",
      "type": "error"
    },
    {
      "inputs": [],
      "name": "Forbidden",
      "type": "error"
    },
    {
      "inputs": [],
      "name": "InvalidAddress",
      "type": "error"
    },
    {
      "inputs": [],
      "name": "MalformedTax",
      "type": "error"
    },
    {
      "inputs": [
        {
          "internalType": "address",
          "name": "owner",
          "type": "address"
        }
      ],
      "name": "OwnableInvalidOwner",
      "type": "error"
    },
    {
      "inputs": [
        {
          "internalType": "address",
          "name": "account",
          "type": "address"
        }
      ],
      "name": "OwnableUnauthorizedAccount",
      "type": "error"
    },
    {
      "inputs": [],
      "name": "RateLimitExceeded",
      "type": "error"
    },
    {
      "inputs": [],
      "name": "RequestTooFrequent",
      "type": "error"
    },
    {
      "inputs": [],
      "name": "TaxTooHigh",
      "type": "error"
    },
    {
      "inputs": [],
      "name": "TooManyRequest",
      "type": "error"
    },
    {
      "anonymous": false,
      "inputs": [
        {
          "indexed": true,
          "internalType": "uint256",
          "name": "id",
          "type": "uint256"
        }
      ],
      "name": "Canceled",
      "type": "event"
    },
    {
      "anonymous": false,
      "inputs": [
        {
          "indexed": true,
          "internalType": "uint256",
          "name": "id",
          "type": "uint256"
        }
      ],
      "name": "Canceling",
      "type": "event"
    },
    {
      "anonymous": false,
      "inputs": [
        {
          "indexed": true,
          "internalType": "address",
          "name": "target",
          "type": "address"
        },
        {
          "indexed": true,
          "internalType": "uint256",
          "name": "amount",
          "type": "uint256"
        },
        {
          "indexed": false,
          "internalType": "bytes32",
          "name": "txid",
          "type": "bytes32"
        },
        {
          "indexed": false,
          "internalType": "uint32",
          "name": "txout",
          "type": "uint32"
        },
        {
          "indexed": false,
          "internalType": "uint256",
          "name": "tax",
          "type": "uint256"
        }
      ],
      "name": "Deposit",
      "type": "event"
    },
    {
      "anonymous": false,
      "inputs": [
        {
          "indexed": false,
          "internalType": "uint16",
          "name": "rate",
          "type": "uint16"
        },
        {
          "indexed": false,
          "internalType": "uint64",
          "name": "max",
          "type": "uint64"
        }
      ],
      "name": "DepositTaxUpdated",
      "type": "event"
    },
    {
      "anonymous": false,
      "inputs": [
        {
          "indexed": false,
          "internalType": "uint64",
          "name": "",
          "type": "uint64"
        }
      ],
      "name": "MinWithdrawalUpdated",
      "type": "event"
    },
    {
      "anonymous": false,
      "inputs": [
        {
          "indexed": true,
          "internalType": "address",
          "name": "previousOwner",
          "type": "address"
        },
        {
          "indexed": true,
          "internalType": "address",
          "name": "newOwner",
          "type": "address"
        }
      ],
      "name": "OwnershipTransferred",
      "type": "event"
    },
    {
      "anonymous": false,
      "inputs": [
        {
          "indexed": true,
          "internalType": "uint256",
          "name": "id",
          "type": "uint256"
        },
        {
          "indexed": false,
          "internalType": "bytes32",
          "name": "txid",
          "type": "bytes32"
        },
        {
          "indexed": false,
          "internalType": "uint32",
          "name": "txout",
          "type": "uint32"
        },
        {
          "indexed": false,
          "internalType": "uint256",
          "name": "value",
          "type": "uint256"
        }
      ],
      "name": "Paid",
      "type": "event"
    },
    {
      "anonymous": false,
      "inputs": [
        {
          "indexed": true,
          "internalType": "uint256",
          "name": "id",
          "type": "uint256"
        },
        {
          "indexed": false,
          "internalType": "uint16",
          "name": "maxTxPrice",
          "type": "uint16"
        }
      ],
      "name": "RBF",
      "type": "event"
    },
    {
      "anonymous": false,
      "inputs": [
        {
          "indexed": false,
          "internalType": "uint16",
          "name": "",
          "type": "uint16"
        }
      ],
      "name": "RateLimitUpdated",
      "type": "event"
    },
    {
      "anonymous": false,
      "inputs": [
        {
          "indexed": true,
          "internalType": "uint256",
          "name": "id",
          "type": "uint256"
        }
      ],
      "name": "Refund",
      "type": "event"
    },
    {
      "anonymous": false,
      "inputs": [
        {
          "indexed": true,
          "internalType": "uint256",
          "name": "id",
          "type": "uint256"
        },
        {
          "indexed": true,
          "internalType": "address",
          "name": "from",
          "type": "address"
        },
        {
          "indexed": false,
          "internalType": "uint256",
          "name": "amount",
          "type": "uint256"
        },
        {
          "indexed": false,
          "internalType": "uint256",
          "name": "tax",
          "type": "uint256"
        },
        {
          "indexed": false,
          "internalType": "uint16",
          "name": "maxTxPrice",
          "type": "uint16"
        },
        {
          "indexed": false,
          "internalType": "string",
          "name": "receiver",
          "type": "string"
        }
      ],
      "name": "Withdraw",
      "type": "event"
    },
    {
      "anonymous": false,
      "inputs": [
        {
          "indexed": false,
          "internalType": "uint16",
          "name": "rate",
          "type": "uint16"
        },
        {
          "indexed": false,
          "internalType": "uint64",
          "name": "max",
          "type": "uint64"
        }
      ],
      "name": "WithdrawalTaxUpdated",
      "type": "event"
    },
    {
      "inputs": [],
      "name": "REQUEST_PER_BLOCK",
      "outputs": [
        {
          "internalType": "uint256",
          "name": "",
          "type": "uint256"
        }
      ],
      "stateMutability": "view",
      "type": "function"
    },
    {
      "inputs": [
        {
          "internalType": "uint256",
          "name": "wid",
          "type": "uint256"
        }
      ],
      "name": "cancel1",
      "outputs": [],
      "stateMutability": "nonpayable",
      "type": "function"
    },
    {
      "inputs": [
        {
          "internalType": "uint256",
          "name": "wid",
          "type": "uint256"
        }
      ],
      "name": "cancel2",
      "outputs": [],
      "stateMutability": "nonpayable",
      "type": "function"
    },
    {
      "inputs": [
        {
          "internalType": "bytes32",
          "name": "txid",
          "type": "bytes32"
        },
        {
          "internalType": "uint32",
          "name": "txout",
          "type": "uint32"
        },
        {
          "internalType": "address",
          "name": "target",
          "type": "address"
        },
        {
          "internalType": "uint256",
          "name": "amount",
          "type": "uint256"
        }
      ],
      "name": "deposit",
      "outputs": [
        {
          "internalType": "uint256",
          "name": "tax",
          "type": "uint256"
        }
      ],
      "stateMutability": "nonpayable",
      "type": "function"
    },
    {
      "inputs": [
        {
          "internalType": "bytes32",
          "name": "txid",
          "type": "bytes32"
        },
        {
          "internalType": "uint32",
          "name": "txout",
          "type": "uint32"
        }
      ],
      "name": "isDeposited",
      "outputs": [
        {
          "internalType": "bool",
          "name": "",
          "type": "bool"
        }
      ],
      "stateMutability": "view",
      "type": "function"
    },
    {
      "inputs": [],
      "name": "owner",
      "outputs": [
        {
          "internalType": "address",
          "name": "",
          "type": "address"
        }
      ],
      "stateMutability": "view",
      "type": "function"
    },
    {
      "inputs": [
        {
          "internalType": "uint256",
          "name": "wid",
          "type": "uint256"
        },
        {
          "internalType": "bytes32",
          "name": "txid",
          "type": "bytes32"
        },
        {
          "internalType": "uint32",
          "name": "txout",
          "type": "uint32"
        },
        {
          "internalType": "uint256",
          "name": "received",
          "type": "uint256"
        }
      ],
      "name": "paid",
      "outputs": [],
      "stateMutability": "nonpayable",
      "type": "function"
    },
    {
      "inputs": [],
      "name": "param",
      "outputs": [
        {
          "internalType": "uint16",
          "name": "depositTaxBP",
          "type": "uint16"
        },
        {
          "internalType": "uint64",
          "name": "maxDepositTax",
          "type": "uint64"
        },
        {
          "internalType": "uint16",
          "name": "withdrawalTaxBP",
          "type": "uint16"
        },
        {
          "internalType": "uint64",
          "name": "maxWithdrawalTax",
          "type": "uint64"
        },
        {
          "internalType": "uint64",
          "name": "minWithdrawal",
          "type": "uint64"
        }
      ],
      "stateMutability": "view",
      "type": "function"
    },
    {
      "inputs": [
        {
          "internalType": "uint256",
          "name": "wid",
          "type": "uint256"
        }
      ],
      "name": "refund",
      "outputs": [],
      "stateMutability": "nonpayable",
      "type": "function"
    },
    {
      "inputs": [],
      "name": "renounceOwnership",
      "outputs": [],
      "stateMutability": "nonpayable",
      "type": "function"
    },
    {
      "inputs": [
        {
          "internalType": "uint256",
          "name": "wid",
          "type": "uint256"
        },
        {
          "internalType": "uint16",
          "name": "maxTxPrice",
          "type": "uint16"
        }
      ],
      "name": "replaceByFee",
      "outputs": [],
      "stateMutability": "nonpayable",
      "type": "function"
    },
    {
      "inputs": [
        {
          "internalType": "uint16",
          "name": "bp",
          "type": "uint16"
        },
        {
          "internalType": "uint64",
          "name": "max",
          "type": "uint64"
        }
      ],
      "name": "setDepositTax",
      "outputs": [],
      "stateMutability": "nonpayable",
      "type": "function"
    },
    {
      "inputs": [
        {
          "internalType": "uint64",
          "name": "amount",
          "type": "uint64"
        }
      ],
      "name": "setMinWithdrawal",
      "outputs": [],
      "stateMutability": "nonpayable",
      "type": "function"
    },
    {
      "inputs": [
        {
          "internalType": "uint16",
          "name": "bp",
          "type": "uint16"
        },
        {
          "internalType": "uint64",
          "name": "max",
          "type": "uint64"
        }
      ],
      "name": "setWithdrawalTax",
      "outputs": [],
      "stateMutability": "nonpayable",
      "type": "function"
    },
    {
      "inputs": [
        {
          "internalType": "bytes4",
          "name": "id",
          "type": "bytes4"
        }
      ],
      "name": "supportsInterface",
      "outputs": [
        {
          "internalType": "bool",
          "name": "",
          "type": "bool"
        }
      ],
      "stateMutability": "view",
      "type": "function"
    },
    {
      "inputs": [
        {
          "internalType": "address",
          "name": "newOwner",
          "type": "address"
        }
      ],
      "name": "transferOwnership",
      "outputs": [],
      "stateMutability": "nonpayable",
      "type": "function"
    },
    {
      "inputs": [
        {
          "internalType": "string",
          "name": "receiver",
          "type": "string"
        },
        {
          "internalType": "uint16",
          "name": "maxTxPrice",
          "type": "uint16"
        }
      ],
      "name": "withdraw",
      "outputs": [],
      "stateMutability": "payable",
      "type": "function"
    },
    {
      "inputs": [
        {
          "internalType": "uint256",
          "name": "",
          "type": "uint256"
        }
      ],
      "name": "withdrawals",
      "outputs": [
        {
          "internalType": "address",
          "name": "sender",
          "type": "address"
        },
        {
          "internalType": "uint16",
          "name": "maxTxPrice",
          "type": "uint16"
        },
        {
          "internalType": "enum IBridge.WithdrawalStatus",
          "name": "status",
          "type": "uint8"
        },
        {
          "internalType": "uint256",
          "name": "amount",
          "type": "uint256"
        },
        {
          "internalType": "uint256",
          "name": "tax",
          "type": "uint256"
        },
        {
          "internalType": "uint256",
          "name": "updatedAt",
          "type": "uint256"
        }
      ],
      "stateMutability": "view",
      "type": "function"
    }
  ],
  "bytecode": "0x60c060405234801561000f575f5ffd5b50604051611cb1380380611cb183398101604081905261002e91610127565b60205f826001600160a01b03811661005f57604051631e4fbdf760e01b81525f600482015260240160405180910390fd5b610068816100d8565b506080918252151560a09081526040805191820181525f808352602083015260149082015266071afd498d0000606082015266038d7ea4c6800091015250600480546001600160e01b0319167a038d7ea4c6800000071afd498d0000001400000000000000000000179055610154565b5f80546001600160a01b038381166001600160a01b0319831681178455604051919092169283917f8be0079c531659141344cd1fd0a4f28419497f9722a3daafe3b4186f6b6457e09190a35050565b5f60208284031215610137575f5ffd5b81516001600160a01b038116811461014d575f5ffd5b9392505050565b60805160a051611b3561017c5f395f6116a001525f81816101ac01526117580152611b355ff3fe608060405260043610610123575f3560e01c80638da5cb5b116100a1578063b3f33eda11610071578063b670ab5e11610057578063b670ab5e1461039c578063c19dd320146103bb578063f2fde38b146103da575f5ffd5b8063b3f33eda1461035e578063b55ada391461037d575f5ffd5b80638da5cb5b146102e7578063a0ea84511461030d578063a81de8691461032c578063b3dd64dd1461033f575f5ffd5b80635cc07076116100f657806384a64c12116100dc57806384a64c1214610221578063883d87b1146102405780638aa4af89146102c8575f5ffd5b80635cc07076146101dc578063715018a61461020d575f5ffd5b806301ffc9a7146101275780631ccc92c71461015b578063278ecde11461017a5780633396c8091461019b575b5f5ffd5b348015610132575f5ffd5b506101466101413660046117a6565b6103f9565b60405190151581526020015b60405180910390f35b348015610166575f5ffd5b506101466101753660046117ec565b61044a565b348015610185575f5ffd5b50610199610194366004611816565b6104a4565b005b3480156101a6575f5ffd5b506101ce7f000000000000000000000000000000000000000000000000000000000000000081565b604051908152602001610152565b3480156101e7575f5ffd5b506101fb6101f6366004611816565b6105b0565b60405161015296959493929190611841565b348015610218575f5ffd5b50610199610608565b34801561022c575f5ffd5b5061019961023b366004611816565b61061b565b34801561024b575f5ffd5b5060045461028b9061ffff8082169167ffffffffffffffff620100008204811692600160501b83041691600160601b8104821691600160a01b9091041685565b6040805161ffff968716815267ffffffffffffffff958616602082015295909316928501929092528216606084015216608082015260a001610152565b3480156102d3575f5ffd5b506101996102e23660046118c2565b61073c565b3480156102f2575f5ffd5b505f546040516001600160a01b039091168152602001610152565b348015610318575f5ffd5b506101996103273660046118ea565b610889565b61019961033a366004611903565b61097b565b34801561034a575f5ffd5b5061019961035936600461197f565b610d38565b348015610369575f5ffd5b506101996103783660046118c2565b610f5e565b348015610388575f5ffd5b506101ce6103973660046119b6565b611063565b3480156103a7575f5ffd5b506101996103b63660046119f7565b6112c7565b3480156103c6575f5ffd5b506101996103d5366004611816565b61143e565b3480156103e5575f5ffd5b506101996103f4366004611a21565b611536565b5f6001600160e01b031982166301ffc9a760e01b148061042957506001600160e01b031982166366933dc760e01b145b8061044457506001600160e01b03198216634cde8a8160e11b145b92915050565b5f5f838360405160200161047592919091825260e01b6001600160e01b031916602082015260240190565b60408051808303601f1901815291815281516020928301205f908152600590925290205460ff16949350505050565b5f600682815481106104b8576104b8611a3a565b5f9182526020909120600490910201905060038154600160b01b900460ff1660058111156104e8576104e861182d565b1461050657604051631dd2188d60e31b815260040160405180910390fd5b805476040000000000000000000000000000000000000000000060ff60b01b1982161782556001600160a01b031633811461055457604051634ca8886760e01b815260040160405180910390fd5b426003830155600282015460018301546105819161057191611a62565b6001600160a01b03831690611573565b60405183907f2e1897b0591d764356194f7a795238a87c1987c7a877568e50d829d547c92b97905f90a2505050565b600681815481106105bf575f80fd5b5f91825260209091206004909102018054600182015460028301546003909301546001600160a01b0383169450600160a01b830461ffff1693600160b01b90930460ff16929086565b61061061160b565b6106195f611637565b565b61062633600161169e565b5f6006828154811061063a5761063a611a3a565b5f9182526020909120600490910201905060018154600160b01b900460ff16600581111561066a5761066a61182d565b1461068857604051631dd2188d60e31b815260040160405180910390fd5b80546001600160a01b031633146106b257604051634ca8886760e01b815260040160405180910390fd5b61012c8160030154426106c59190611a75565b10156106e457604051633234675360e21b815260040160405180910390fd5b426003820155805460ff60b01b191676020000000000000000000000000000000000000000000017815560405182907f0106f4416537efff55311ef5e2f9c2a48204fcf84731f2b9d5091d23fc52160c905f90a25050565b61074461160b565b6127108261ffff16111561076b57604051632bc7b84d60e21b815260040160405180910390fd5b670de0b6b3a76400008167ffffffffffffffff16111561079e57604051632bc7b84d60e21b815260040160405180910390fd5b5f8261ffff161180156107b9575067ffffffffffffffff8116155b156107d757604051630fe9ec7160e41b815260040160405180910390fd5b600480547fffffffffffffffffffffffff00000000000000000000ffffffffffffffffffff16600160501b61ffff85169081027fffffffffffffffffffffffff0000000000000000ffffffffffffffffffffffff1691909117600160601b67ffffffffffffffff8516908102919091179092556040805191825260208201929092527f59b73ca79bcb3dcb02c4d2b81e1a2da4c9fd9857ed81cfb16c5431b502f8c71b91015b60405180910390a15050565b61089161160b565b655af3107a40008167ffffffffffffffff16101580156108c35750670de0b6b3a76400008167ffffffffffffffff1611155b6109055760405162461bcd60e51b815260206004820152600e60248201526d1a5b9d985b1a5908185b5bdd5b9d60921b60448201526064015b60405180910390fd5b600480547fffffffff0000000000000000ffffffffffffffffffffffffffffffffffffffff16600160a01b67ffffffffffffffff8416908102919091179091556040519081527f69458aa02de2093876897ec9cd5653bbdd83360ef731be0da0e3c94bf9a22dba9060200160405180910390a150565b61098633600161169e565b5f83838080601f0160208091040260200160405190810160405280939291908181526020018383808284375f920191909152505082519293505060229091109050806109d35750605a8151115b156109f15760405163e6c4247b60e01b815260040160405180910390fd5b6040805160a08101825260045461ffff808216835267ffffffffffffffff62010000830481166020850152600160501b830490911693830193909352600160601b810483166060830152600160a01b90049091166080820181905234915f91831015610a9f5760405162461bcd60e51b815260206004820152600e60248201527f616d6f756e7420746f6f206c6f7700000000000000000000000000000000000060448201526064016108fc565b604081015161ffff1615610b0557612710816040015161ffff1684610ac49190611a88565b610ace9190611ab3565b9150806060015167ffffffffffffffff16821115610af857806060015167ffffffffffffffff1691505b610b028284611a75565b92505b5f610b156402540be40085611ac6565b90508015610b3657610b278184611a62565b9250610b338185611a75565b93505b5f8661ffff1611610b895760405162461bcd60e51b815260206004820152601060248201527f696e76616c69642074782070726963650000000000000000000000000000000060448201526064016108fc565b6402540be400610b9f61012c61ffff8916611a88565b610ba99190611a88565b8411610be65760405162461bcd60e51b815260206004820152600c60248201526b756e6166666f726461626c6560a01b60448201526064016108fc565b600680546040805160c08101825233815261ffff8a8116602083019081526001938301848152606084018b9052608084018a90524260a085015293850186555f9590955281517ff652222313e28459528d920b65115c16c04f3efc82aaedc97be59f3f377c0d3f600486020180549651909216600160a01b027fffffffffffffffffffff000000000000000000000000000000000000000000009096166001600160a01b0390911617949094178085559151929390929091829060ff60b01b1916600160b01b836005811115610cbe57610cbe61182d565b0217905550606082015181600101556080820151816002015560a082015181600301555050336001600160a01b0316817fbe7c38d37e8132b1d2b29509df9bf58cf1126edf2563c00db0ef3a271fb9f35b87878b8e8e604051610d25959493929190611ad9565b60405180910390a3505050505050505050565b610d4333600161169e565b5f60068381548110610d5757610d57611a3a565b5f9182526020909120600490910201905060018154600160b01b900460ff166005811115610d8757610d8761182d565b14610da557604051631dd2188d60e31b815260040160405180910390fd5b80546001600160a01b03163314610dcf57604051634ca8886760e01b815260040160405180910390fd5b61012c816003015442610de29190611a75565b1015610e0157604051633234675360e21b815260040160405180910390fd5b805461ffff600160a01b909104811690831611610e865760405162461bcd60e51b815260206004820152602d60248201527f746865206e65772074782070726963652073686f756c64206265206c6172676560448201527f72207468616e206265666f72650000000000000000000000000000000000000060648201526084016108fc565b6402540be400610e9c61012c61ffff8516611a88565b610ea69190611a88565b816001015411610ee75760405162461bcd60e51b815260206004820152600c60248201526b756e6166666f726461626c6560a01b60448201526064016108fc565b80547fffffffffffffffffffff0000ffffffffffffffffffffffffffffffffffffffff16600160a01b61ffff841690810291909117825542600383015560405190815283907f19875a7124af51c604454b74336ce2168c45bceade9d9a1e6dfae9ba7d31b7fa9060200160405180910390a2505050565b610f6661160b565b6127108261ffff161115610f8d57604051632bc7b84d60e21b815260040160405180910390fd5b670de0b6b3a76400008167ffffffffffffffff161115610fc057604051632bc7b84d60e21b815260040160405180910390fd5b5f8261ffff16118015610fdb575067ffffffffffffffff8116155b15610ff957604051630fe9ec7160e41b815260040160405180910390fd5b6004805461ffff841669ffffffffffffffffffff1990911681176201000067ffffffffffffffff8516908102919091179092556040805191825260208201929092527f1007ff7aec53e9626ce51f25d4e093f290f60da8019c8cf489f0ae2f21ebf76a910161087d565b5f33739139ee5450fd3b0d07e3a623ee5e3df013bfdea71461109857604051634ca8886760e01b815260040160405180910390fd5b5f85856040516020016110c292919091825260e01b6001600160e01b031916602082015260240190565b60408051601f1981840301815291815281516020928301205f818152600590935291205490915060ff16156111395760405162461bcd60e51b815260206004820152600a60248201527f6475706c6963617465640000000000000000000000000000000000000000000060448201526064016108fc565b5f8311801561115457506111526402540be40084611ac6565b155b6111915760405162461bcd60e51b815260206004820152600e60248201526d1a5b9d985b1a5908185b5bdd5b9d60921b60448201526064016108fc565b6040805160a08101825260045461ffff80821680845267ffffffffffffffff62010000840481166020860152600160501b840490921694840194909452600160601b820481166060840152600160a01b9091041660808201529015611245578051612710906112049061ffff1686611a88565b61120e9190611ab3565b9250806020015167ffffffffffffffff1683111561123857806020015167ffffffffffffffff1692505b6112428385611a75565b93505b5f8281526005602052604090819020805460ff191660011790555184906001600160a01b038716907fbc0e2d4f64f63e9c6b07a1665a26f689b20e42e836968119499db41c2d315efa906112b5908b908b90899092835263ffffffff919091166020830152604082015260600190565b60405180910390a35050949350505050565b33739139ee5450fd3b0d07e3a623ee5e3df013bfdea7146112fb57604051634ca8886760e01b815260040160405180910390fd5b5f6006858154811061130f5761130f611a3a565b5f91825260209091206004909102018054909150600160b01b900460ff1660018160058111156113415761134161182d565b148061135e5750600281600581111561135c5761135c61182d565b145b611366575f5ffd5b815460ff60b01b1916760500000000000000000000000000000000000000000000178255426003830155600282015480156113b9576113b97370997970c51812dc3a010c7d01b50e0d17dc79c882611573565b60018301546040515f91906113cd9061179a565b82906040518091039083f5915050801580156113eb573d5f5f3e3d5ffd5b50506040805187815263ffffffff8716602082015290810185905287907fb74f5dbf34aabe02f20ff775b898acf1a9f70e4fbd48ad50548acae86e1ccd789060600160405180910390a250505050505050565b33739139ee5450fd3b0d07e3a623ee5e3df013bfdea71461147257604051634ca8886760e01b815260040160405180910390fd5b5f6006828154811061148657611486611a3a565b5f91825260209091206004909102018054909150600160b01b900460ff1660018160058111156114b8576114b861182d565b14806114d5575060028160058111156114d3576114d361182d565b145b6114dd575f5ffd5b815460ff60b01b191676030000000000000000000000000000000000000000000017825542600383015560405183907f829a8683c544ad289ce92d3ce06e9ebad69b18a6916e60ec766c2c217461d8e9905f90a2505050565b61153e61160b565b6001600160a01b03811661156757604051631e4fbdf760e01b81525f60048201526024016108fc565b61157081611637565b50565b804710156115965760405163cd78605960e01b81523060048201526024016108fc565b5f826001600160a01b0316826040515f6040518083038185875af1925050503d805f81146115df576040519150601f19603f3d011682016040523d82523d5f602084013e6115e4565b606091505b505090508061160657604051630a12f52160e11b815260040160405180910390fd5b505050565b5f546001600160a01b031633146106195760405163118cdaa760e01b81523360048201526024016108fc565b5f80546001600160a01b038381167fffffffffffffffffffffffff0000000000000000000000000000000000000000831681178455604051919092169283917f8be0079c531659141344cd1fd0a4f28419497f9722a3daafe3b4186f6b6457e09190a35050565b7f000000000000000000000000000000000000000000000000000000000000000015611717576001600160a01b0382165f908152600360205260409020544390036116fc57604051631736a31960e01b815260040160405180910390fd5b6001600160a01b0382165f9081526003602052604090204390555b805f03611722575050565b60015443036117495780600180015f82825461173e9190611a62565b909155506117539050565b4360015560028190555b6002547f000000000000000000000000000000000000000000000000000000000000000010156117965760405163a74c1c5f60e01b815260040160405180910390fd5b5050565b600880611b2183390190565b5f602082840312156117b6575f5ffd5b81356001600160e01b0319811681146117cd575f5ffd5b9392505050565b803563ffffffff811681146117e7575f5ffd5b919050565b5f5f604083850312156117fd575f5ffd5b8235915061180d602084016117d4565b90509250929050565b5f60208284031215611826575f5ffd5b5035919050565b634e487b7160e01b5f52602160045260245ffd5b6001600160a01b038716815261ffff8616602082015260c081016006861061187757634e487b7160e01b5f52602160045260245ffd5b8560408301528460608301528360808301528260a0830152979650505050505050565b803561ffff811681146117e7575f5ffd5b803567ffffffffffffffff811681146117e7575f5ffd5b5f5f604083850312156118d3575f5ffd5b6118dc8361189a565b915061180d602084016118ab565b5f602082840312156118fa575f5ffd5b6117cd826118ab565b5f5f5f60408486031215611915575f5ffd5b833567ffffffffffffffff81111561192b575f5ffd5b8401601f8101861361193b575f5ffd5b803567ffffffffffffffff811115611951575f5ffd5b866020828401011115611962575f5ffd5b60209182019450925061197690850161189a565b90509250925092565b5f5f60408385031215611990575f5ffd5b8235915061180d6020840161189a565b80356001600160a01b03811681146117e7575f5ffd5b5f5f5f5f608085870312156119c9575f5ffd5b843593506119d9602086016117d4565b92506119e7604086016119a0565b9396929550929360600135925050565b5f5f5f5f60808587031215611a0a575f5ffd5b84359350602085013592506119e7604086016117d4565b5f60208284031215611a31575f5ffd5b6117cd826119a0565b634e487b7160e01b5f52603260045260245ffd5b634e487b7160e01b5f52601160045260245ffd5b8082018082111561044457610444611a4e565b8181038181111561044457610444611a4e565b808202811582820484141761044457610444611a4e565b634e487b7160e01b5f52601260045260245ffd5b5f82611ac157611ac1611a9f565b500490565b5f82611ad457611ad4611a9f565b500690565b85815284602082015261ffff8416604082015260806060820152816080820152818360a08301375f81830160a090810191909152601f909201601f1916010194935050505056fe608060405230fffea164736f6c634300081b000a",
  "linkReferences": {},
  "deployedLinkReferences": {}
}