{
  "_format": "hh-sol-artifact-1",
  "contractName": "Bridge",
  "sourceName": "contracts/bridge/Bridge.sol",
  "abi": [
    {
      "inputs": [
        {
          "internalType": "address",
          "name": "owner",
          "type": "address"
        }
      ],
      "stateMutability": "nonpayable",
      "type": "constructor"
    },
    {
      "inputs": [],
      "name": "AccessDenied",
      "type": "error"
    },
    {
      "inputs": [
        {
          "internalType": "address",
          "name": "account",
          "type": "address"
        }
      ],
      "name": "AddressInsufficientBalance",
      "type": "error"
    },
    {
      "inputs": [],
      "name": "FailedInnerCall",
      "type": "error"
    },
    {
      "inputs": [],
      "name": "Forbidden",
      "type": "error"
    },
    {
      "inputs": [],
      "name": "InvalidAddress",
      "type": "error"
    },
    {
      "inputs": [],
      "name": "MalformedTax",
      "type": "error"
    },
    {
      "inputs": [
        {
          "internalType": "address",
          "name": "owner",
          "type": "address"
        }
      ],
      "name": "OwnableInvalidOwner",
      "type": "error"
    },
    {
      "inputs": [
        {
          "internalType": "address",
          "name": "account",
          "type": "address"
        }
      ],
      "name": "OwnableUnauthorizedAccount",
      "type": "error"
    },
    {
      "inputs": [],
      "name": "RateLimitExceeded",
      "type": "error"
    },
    {
      "inputs": [],
      "name": "TaxTooHigh",
      "type": "error"
    },
    {
      "anonymous": false,
      "inputs": [
        {
          "indexed": true,
          "internalType": "uint256",
          "name": "id",
          "type": "uint256"
        }
      ],
      "name": "Canceled",
      "type": "event"
    },
    {
      "anonymous": false,
      "inputs": [
        {
          "indexed": true,
          "internalType": "uint256",
          "name": "id",
          "type": "uint256"
        }
      ],
      "name": "Canceling",
      "type": "event"
    },
    {
      "anonymous": false,
      "inputs": [
        {
          "indexed": true,
          "internalType": "address",
          "name": "target",
          "type": "address"
        },
        {
          "indexed": true,
          "internalType": "uint256",
          "name": "amount",
          "type": "uint256"
        },
        {
          "indexed": false,
          "internalType": "bytes32",
          "name": "txid",
          "type": "bytes32"
        },
        {
          "indexed": false,
          "internalType": "uint32",
          "name": "txout",
          "type": "uint32"
        },
        {
          "indexed": false,
          "internalType": "uint256",
          "name": "tax",
          "type": "uint256"
        }
      ],
      "name": "Deposit",
      "type": "event"
    },
    {
      "anonymous": false,
      "inputs": [
        {
          "indexed": false,
          "internalType": "uint16",
          "name": "rate",
          "type": "uint16"
        },
        {
          "indexed": false,
          "internalType": "uint64",
          "name": "max",
          "type": "uint64"
        }
      ],
      "name": "DepositTaxUpdated",
      "type": "event"
    },
    {
      "anonymous": false,
      "inputs": [
        {
          "indexed": true,
          "internalType": "address",
          "name": "previousOwner",
          "type": "address"
        },
        {
          "indexed": true,
          "internalType": "address",
          "name": "newOwner",
          "type": "address"
        }
      ],
      "name": "OwnershipTransferred",
      "type": "event"
    },
    {
      "anonymous": false,
      "inputs": [
        {
          "indexed": true,
          "internalType": "uint256",
          "name": "id",
          "type": "uint256"
        },
        {
          "indexed": false,
          "internalType": "bytes32",
          "name": "txid",
          "type": "bytes32"
        },
        {
          "indexed": false,
          "internalType": "uint32",
          "name": "txout",
          "type": "uint32"
        },
        {
          "indexed": false,
          "internalType": "uint256",
          "name": "value",
          "type": "uint256"
        }
      ],
      "name": "Paid",
      "type": "event"
    },
    {
      "anonymous": false,
      "inputs": [
        {
          "indexed": true,
          "internalType": "uint256",
          "name": "id",
          "type": "uint256"
        },
        {
          "indexed": false,
          "internalType": "uint256",
          "name": "maxTxPrice",
          "type": "uint256"
        }
      ],
      "name": "RBF",
      "type": "event"
    },
    {
      "anonymous": false,
      "inputs": [
        {
          "indexed": false,
          "internalType": "uint16",
          "name": "",
          "type": "uint16"
        }
      ],
      "name": "RateLimitUpdated",
      "type": "event"
    },
    {
      "anonymous": false,
      "inputs": [
        {
          "indexed": true,
          "internalType": "uint256",
          "name": "id",
          "type": "uint256"
        }
      ],
      "name": "Refund",
      "type": "event"
    },
    {
      "anonymous": false,
      "inputs": [
        {
          "indexed": true,
          "internalType": "uint256",
          "name": "id",
          "type": "uint256"
        },
        {
          "indexed": true,
          "internalType": "address",
          "name": "from",
          "type": "address"
        },
        {
          "indexed": false,
          "internalType": "uint256",
          "name": "amount",
          "type": "uint256"
        },
        {
          "indexed": false,
          "internalType": "uint256",
          "name": "tax",
          "type": "uint256"
        },
        {
          "indexed": false,
          "internalType": "uint256",
          "name": "maxTxPrice",
          "type": "uint256"
        },
        {
          "indexed": false,
          "internalType": "string",
          "name": "receiver",
          "type": "string"
        }
      ],
      "name": "Withdraw",
      "type": "event"
    },
    {
      "anonymous": false,
      "inputs": [
        {
          "indexed": false,
          "internalType": "uint16",
          "name": "rate",
          "type": "uint16"
        },
        {
          "indexed": false,
          "internalType": "uint64",
          "name": "max",
          "type": "uint64"
        }
      ],
      "name": "WithdrawalTaxUpdated",
      "type": "event"
    },
    {
      "inputs": [
        {
          "internalType": "uint256",
          "name": "_wid",
          "type": "uint256"
        }
      ],
      "name": "cancel1",
      "outputs": [],
      "stateMutability": "nonpayable",
      "type": "function"
    },
    {
      "inputs": [
        {
          "internalType": "uint256",
          "name": "_wid",
          "type": "uint256"
        }
      ],
      "name": "cancel2",
      "outputs": [],
      "stateMutability": "nonpayable",
      "type": "function"
    },
    {
      "inputs": [
        {
          "internalType": "bytes32",
          "name": "_txid",
          "type": "bytes32"
        },
        {
          "internalType": "uint32",
          "name": "_txout",
          "type": "uint32"
        },
        {
          "internalType": "address",
          "name": "_target",
          "type": "address"
        },
        {
          "internalType": "uint256",
          "name": "_amount",
          "type": "uint256"
        }
      ],
      "name": "deposit",
      "outputs": [
        {
          "internalType": "uint256",
          "name": "tax",
          "type": "uint256"
        }
      ],
      "stateMutability": "nonpayable",
      "type": "function"
    },
    {
      "inputs": [
        {
          "internalType": "bytes32",
          "name": "_txid",
          "type": "bytes32"
        },
        {
          "internalType": "uint32",
          "name": "_txout",
          "type": "uint32"
        }
      ],
      "name": "isDeposited",
      "outputs": [
        {
          "internalType": "bool",
          "name": "",
          "type": "bool"
        }
      ],
      "stateMutability": "view",
      "type": "function"
    },
    {
      "inputs": [],
      "name": "owner",
      "outputs": [
        {
          "internalType": "address",
          "name": "",
          "type": "address"
        }
      ],
      "stateMutability": "view",
      "type": "function"
    },
    {
      "inputs": [
        {
          "internalType": "uint256",
          "name": "_wid",
          "type": "uint256"
        },
        {
          "internalType": "bytes32",
          "name": "_txid",
          "type": "bytes32"
        },
        {
          "internalType": "uint32",
          "name": "_txout",
          "type": "uint32"
        },
        {
          "internalType": "uint256",
          "name": "_received",
          "type": "uint256"
        }
      ],
      "name": "paid",
      "outputs": [],
      "stateMutability": "nonpayable",
      "type": "function"
    },
    {
      "inputs": [],
      "name": "param",
      "outputs": [
        {
          "internalType": "uint16",
          "name": "rateLimit",
          "type": "uint16"
        },
        {
          "internalType": "uint16",
          "name": "depositTaxBP",
          "type": "uint16"
        },
        {
          "internalType": "uint64",
          "name": "maxDepositTax",
          "type": "uint64"
        },
        {
          "internalType": "uint16",
          "name": "withdrawalTaxBP",
          "type": "uint16"
        },
        {
          "internalType": "uint64",
          "name": "maxWithdrawalTax",
          "type": "uint64"
        },
        {
          "internalType": "uint16",
          "name": "_res1",
          "type": "uint16"
        },
        {
          "internalType": "uint64",
          "name": "_res2",
          "type": "uint64"
        }
      ],
      "stateMutability": "view",
      "type": "function"
    },
    {
      "inputs": [
        {
          "internalType": "uint256",
          "name": "id",
          "type": "uint256"
        }
      ],
      "name": "receipts",
      "outputs": [
        {
          "internalType": "bytes32",
          "name": "txid",
          "type": "bytes32"
        },
        {
          "internalType": "uint32",
          "name": "txout",
          "type": "uint32"
        },
        {
          "internalType": "uint256",
          "name": "received",
          "type": "uint256"
        }
      ],
      "stateMutability": "view",
      "type": "function"
    },
    {
      "inputs": [
        {
          "internalType": "uint256",
          "name": "_wid",
          "type": "uint256"
        }
      ],
      "name": "refund",
      "outputs": [],
      "stateMutability": "nonpayable",
      "type": "function"
    },
    {
      "inputs": [],
      "name": "renounceOwnership",
      "outputs": [],
      "stateMutability": "nonpayable",
      "type": "function"
    },
    {
      "inputs": [
        {
          "internalType": "uint256",
          "name": "_wid",
          "type": "uint256"
        },
        {
          "internalType": "uint16",
          "name": "_maxTxPrice",
          "type": "uint16"
        }
      ],
      "name": "replaceByFee",
      "outputs": [],
      "stateMutability": "nonpayable",
      "type": "function"
    },
    {
      "inputs": [
        {
          "internalType": "uint16",
          "name": "_bp",
          "type": "uint16"
        },
        {
          "internalType": "uint64",
          "name": "_max",
          "type": "uint64"
        }
      ],
      "name": "setDepositTax",
      "outputs": [],
      "stateMutability": "nonpayable",
      "type": "function"
    },
    {
      "inputs": [
        {
          "internalType": "uint16",
          "name": "_sec",
          "type": "uint16"
        }
      ],
      "name": "setRateLimit",
      "outputs": [],
      "stateMutability": "nonpayable",
      "type": "function"
    },
    {
      "inputs": [
        {
          "internalType": "uint16",
          "name": "_bp",
          "type": "uint16"
        },
        {
          "internalType": "uint64",
          "name": "_max",
          "type": "uint64"
        }
      ],
      "name": "setWithdrawalTax",
      "outputs": [],
      "stateMutability": "nonpayable",
      "type": "function"
    },
    {
      "inputs": [
        {
          "internalType": "bytes4",
          "name": "id",
          "type": "bytes4"
        }
      ],
      "name": "supportsInterface",
      "outputs": [
        {
          "internalType": "bool",
          "name": "",
          "type": "bool"
        }
      ],
      "stateMutability": "view",
      "type": "function"
    },
    {
      "inputs": [
        {
          "internalType": "address",
          "name": "newOwner",
          "type": "address"
        }
      ],
      "name": "transferOwnership",
      "outputs": [],
      "stateMutability": "nonpayable",
      "type": "function"
    },
    {
      "inputs": [
        {
          "internalType": "string",
          "name": "_receiver",
          "type": "string"
        },
        {
          "internalType": "uint16",
          "name": "_maxTxPrice",
          "type": "uint16"
        }
      ],
      "name": "withdraw",
      "outputs": [],
      "stateMutability": "payable",
      "type": "function"
    },
    {
      "inputs": [
        {
          "internalType": "uint256",
          "name": "",
          "type": "uint256"
        }
      ],
      "name": "withdrawals",
      "outputs": [
        {
          "internalType": "address",
          "name": "sender",
          "type": "address"
        },
        {
          "internalType": "uint256",
          "name": "amount",
          "type": "uint256"
        },
        {
          "internalType": "uint256",
          "name": "tax",
          "type": "uint256"
        },
        {
          "internalType": "uint256",
          "name": "maxTxPrice",
          "type": "uint256"
        },
        {
          "internalType": "uint256",
          "name": "updatedAt",
          "type": "uint256"
        },
        {
          "internalType": "string",
          "name": "receiver",
          "type": "string"
        },
        {
          "internalType": "enum IBridge.WithdrawalStatus",
          "name": "status",
          "type": "uint8"
        }
      ],
      "stateMutability": "view",
      "type": "function"
    }
  ],
  "bytecode": "0x608060405234801561000f575f80fd5b50604051611d78380380611d7883398101604081905261002e91610110565b806001600160a01b03811661005c57604051631e4fbdf760e01b81525f600482015260240160405180910390fd5b610065816100c1565b50506040805160e08101825261012c81525f602082018190529181018290526014606082015266071afd498d0000608082015260a0810182905260c0015274071afd498d0000001400000000000000000000012c60015561013d565b5f80546001600160a01b038381166001600160a01b0319831681178455604051919092169283917f8be0079c531659141344cd1fd0a4f28419497f9722a3daafe3b4186f6b6457e09190a35050565b5f60208284031215610120575f80fd5b81516001600160a01b0381168114610136575f80fd5b9392505050565b611c2e8061014a5f395ff3fe608060405260043610610123575f3560e01c80638da5cb5b116100a1578063b55ada3911610071578063c19dd32011610057578063c19dd320146103f0578063d653d8201461040f578063f2fde38b1461042e575f80fd5b8063b55ada39146103a4578063b670ab5e146103d1575f80fd5b80638da5cb5b1461032d578063a81de86914610353578063b3dd64dd14610366578063b3f33eda14610385575f80fd5b80635cc07076116100f657806384a64c12116100dc57806384a64c1214610241578063883d87b1146102605780638aa4af891461030e575f80fd5b80635cc07076146101fb578063715018a61461022d575f80fd5b806301ffc9a7146101275780630f7ee1ec1461015b5780631ccc92c7146101bb578063278ecde1146101da575b5f80fd5b348015610132575f80fd5b5061014661014136600461171d565b61044d565b60405190151581526020015b60405180910390f35b348015610166575f80fd5b5061019b61017536600461174b565b60046020525f9081526040902080546001820154600290920154909163ffffffff169083565b6040805193845263ffffffff909216602084015290820152606001610152565b3480156101c6575f80fd5b506101466101d536600461177a565b61049e565b3480156101e5575f80fd5b506101f96101f436600461174b565b6104f8565b005b348015610206575f80fd5b5061021a61021536600461174b565b6105ec565b60405161015297969594939291906117b8565b348015610238575f80fd5b506101f96106cf565b34801561024c575f80fd5b506101f961025b36600461174b565b6106e2565b34801561026b575f80fd5b506001546102c19061ffff8082169162010000810482169167ffffffffffffffff6401000000008304811692600160601b8104831692600160701b8204831692600160b01b830490911691600160c01b90041687565b6040805161ffff9889168152968816602088015267ffffffffffffffff95861690870152928616606086015290831660808501529390931660a083015290911660c082015260e001610152565b348015610319575f80fd5b506101f9610328366004611850565b6107e5565b348015610338575f80fd5b505f546040516001600160a01b039091168152602001610152565b6101f9610361366004611891565b610932565b348015610371575f80fd5b506101f961038036600461190d565b610cdd565b348015610390575f80fd5b506101f961039f366004611850565b610ec7565b3480156103af575f80fd5b506103c36103be366004611944565b610fe6565b604051908152602001610152565b3480156103dc575f80fd5b506101f96103eb366004611985565b61127c565b3480156103fb575f80fd5b506101f961040a36600461174b565b611430565b34801561041a575f80fd5b506101f96104293660046119af565b61150f565b348015610439575f80fd5b506101f96104483660046119c8565b6115b4565b5f6001600160e01b031982166301ffc9a760e01b148061047d57506001600160e01b031982166366933dc760e01b145b8061049857506001600160e01b0319821663ef04497360e01b145b92915050565b5f8083836040516020016104c992919091825260e01b6001600160e01b031916602082015260240190565b60408051808303601f1901815291815281516020928301205f908152600290925290205460ff16949350505050565b5f6003828154811061050c5761050c6119e1565b5f918252602090912060079091020190506003600682015460ff166005811115610538576105386117a4565b1461055657604051631dd2188d60e31b815260040160405180910390fd5b60068101805460ff1916600417905580546001600160a01b031633811461059057604051634ca8886760e01b815260040160405180910390fd5b426004830155600282015460018301546105bd916105ad91611a09565b6001600160a01b038316906115f1565b60405183907f2e1897b0591d764356194f7a795238a87c1987c7a877568e50d829d547c92b97905f90a2505050565b600381815481106105fb575f80fd5b5f9182526020909120600790910201805460018201546002830154600384015460048501546005860180546001600160a01b03909616975093959294919390929161064590611a1c565b80601f016020809104026020016040519081016040528092919081815260200182805461067190611a1c565b80156106bc5780601f10610693576101008083540402835291602001916106bc565b820191905f5260205f20905b81548152906001019060200180831161069f57829003601f168201915b5050506006909301549192505060ff1687565b6106d7611689565b6106e05f6116b5565b565b5f600382815481106106f6576106f66119e1565b5f918252602090912060079091020190506001600682015460ff166005811115610722576107226117a4565b1461074057604051631dd2188d60e31b815260040160405180910390fd5b80546001600160a01b0316331461076a57604051634ca8886760e01b815260040160405180910390fd5b600154600482015461ffff909116906107839042611a54565b10156107a25760405163a74c1c5f60e01b815260040160405180910390fd5b42600482015560068101805460ff1916600217905560405182907f0106f4416537efff55311ef5e2f9c2a48204fcf84731f2b9d5091d23fc52160c905f90a25050565b6107ed611689565b6127108261ffff16111561081457604051632bc7b84d60e21b815260040160405180910390fd5b670de0b6b3a76400008167ffffffffffffffff16111561084757604051632bc7b84d60e21b815260040160405180910390fd5b5f8261ffff16118015610862575067ffffffffffffffff8116155b1561088057604051630fe9ec7160e41b815260040160405180910390fd5b600180547fffffffffffffffffffff00000000000000000000ffffffffffffffffffffffff16600160601b61ffff85169081027fffffffffffffffffffff0000000000000000ffffffffffffffffffffffffffff1691909117600160701b67ffffffffffffffff8516908102919091179092556040805191825260208201929092527f59b73ca79bcb3dcb02c4d2b81e1a2da4c9fd9857ed81cfb16c5431b502f8c71b91015b60405180910390a15050565b5f83838080601f0160208091040260200160405190810160405280939291908181526020018383808284375f9201919091525050825192935050602290911090508061097f5750605a8151115b1561099d5760405163e6c4247b60e01b815260040160405180910390fd5b6040805160e08101825260015461ffff80821683526201000082048116602084015267ffffffffffffffff6401000000008304811694840194909452600160601b8204811660608401819052600160701b830485166080850152600160b01b830490911660a0840152600160c01b90910490921660c082015234915f919015610a7857612710816060015161ffff1684610a379190611a67565b610a419190611a92565b9150806080015167ffffffffffffffff16821115610a6b57806080015167ffffffffffffffff1691505b610a758284611a54565b92505b5f610a886402540be40085611aa5565b90508015610aa957610a9a8184611a09565b9250610aa68185611a54565b93505b5f8661ffff1611610b015760405162461bcd60e51b815260206004820152601060248201527f696e76616c69642074782070726963650000000000000000000000000000000060448201526064015b60405180910390fd5b6402540be400610b1761012c61ffff8916611a67565b610b219190611a67565b8411610b5e5760405162461bcd60e51b815260206004820152600c60248201526b756e6166666f726461626c6560a01b6044820152606401610af8565b5f600380549050905060036040518060e00160405280336001600160a01b031681526020018781526020018681526020018961ffff1681526020014281526020018b8b8080601f0160208091040260200160405190810160405280939291908181526020018383808284375f92018290525093855250506001602093840181905285548082018755958352918390208451600790960201805473ffffffffffffffffffffffffffffffffffffffff19166001600160a01b0390961695909517855550908201519083015560408101516002830155606081015160038301556080810151600483015560a08101519091906005820190610c5d9082611b17565b5060c082015160068201805460ff19166001836005811115610c8157610c816117a4565b02179055505050336001600160a01b0316817fa7aa0bf5f2a5106eb711bca96c8ea6ea0d99ec2c496d4d2c5dc0af8217d43c7c87878b8e8e604051610cca959493929190611bd2565b60405180910390a3505050505050505050565b5f60038381548110610cf157610cf16119e1565b5f918252602090912060079091020190506001600682015460ff166005811115610d1d57610d1d6117a4565b14610d3b57604051631dd2188d60e31b815260040160405180910390fd5b80546001600160a01b03163314610d6557604051634ca8886760e01b815260040160405180910390fd5b600154600482015461ffff90911690610d7e9042611a54565b1015610d9d5760405163a74c1c5f60e01b815260040160405180910390fd5b80600301548261ffff1611610e1a5760405162461bcd60e51b815260206004820152602d60248201527f746865206e65772074782070726963652073686f756c64206265206c6172676560448201527f72207468616e206265666f7265000000000000000000000000000000000000006064820152608401610af8565b6402540be400610e3061012c61ffff8516611a67565b610e3a9190611a67565b816001015411610e7b5760405162461bcd60e51b815260206004820152600c60248201526b756e6166666f726461626c6560a01b6044820152606401610af8565b61ffff82166003820181905542600483015560405190815283907fe6190c43c634720bcd5b72bb0b920b88f8d0a15ae7e5dcbb0582c1bb2f98df4b9060200160405180910390a2505050565b610ecf611689565b6127108261ffff161115610ef657604051632bc7b84d60e21b815260040160405180910390fd5b670de0b6b3a76400008167ffffffffffffffff161115610f2957604051632bc7b84d60e21b815260040160405180910390fd5b5f8261ffff16118015610f44575067ffffffffffffffff8116155b15610f6257604051630fe9ec7160e41b815260040160405180910390fd5b600180546bffffffffffffffffffff000019166201000061ffff85169081026bffffffffffffffff0000000019169190911764010000000067ffffffffffffffff8516908102919091179092556040805191825260208201929092527f1007ff7aec53e9626ce51f25d4e093f290f60da8019c8cf489f0ae2f21ebf76a9101610926565b5f3373bc100000000000000000000000000000000010001461101b57604051634ca8886760e01b815260040160405180910390fd5b5f858560405160200161104592919091825260e01b6001600160e01b031916602082015260240190565b60408051601f1981840301815291815281516020928301205f818152600290935291205490915060ff16156110bc5760405162461bcd60e51b815260206004820152600a60248201527f6475706c696361746564000000000000000000000000000000000000000000006044820152606401610af8565b5f831180156110d757506110d56402540be40084611aa5565b155b6111235760405162461bcd60e51b815260206004820152600e60248201527f696e76616c696420616d6f756e740000000000000000000000000000000000006044820152606401610af8565b6040805160e08101825260015461ffff808216835262010000820481166020840181905267ffffffffffffffff6401000000008404811695850195909552600160601b830482166060850152600160701b830485166080850152600160b01b830490911660a0840152600160c01b90910490921660c082015290156111fa57612710816020015161ffff16856111b99190611a67565b6111c39190611a92565b9250806040015167ffffffffffffffff168311156111ed57806040015167ffffffffffffffff1692505b6111f78385611a54565b93505b5f8281526002602052604090819020805460ff191660011790555184906001600160a01b038716907fbc0e2d4f64f63e9c6b07a1665a26f689b20e42e836968119499db41c2d315efa9061126a908b908b90899092835263ffffffff919091166020830152604082015260600190565b60405180910390a35050949350505050565b3373bc10000000000000000000000000000000001000146112b057604051634ca8886760e01b815260040160405180910390fd5b5f600385815481106112c4576112c46119e1565b5f9182526020909120600790910201600681015490915060ff1660018160058111156112f2576112f26117a4565b148061130f5750600281600581111561130d5761130d6117a4565b145b611317575f80fd5b6040805160608101825286815263ffffffff86811660208084019182528385018881525f8c8152600492839052959095209351845590516001840180549190931663ffffffff1990911617909155915160029182015560068401805460ff19166005179055429184019190915582015480156113ab576113ab73bc10000000000000000000000000000000000002826115f1565b60018301546040515f91906113bf90611711565b82906040518091039083f5915050801580156113dd573d5f803e3d5ffd5b50506040805187815263ffffffff8716602082015290810185905287907fb74f5dbf34aabe02f20ff775b898acf1a9f70e4fbd48ad50548acae86e1ccd789060600160405180910390a250505050505050565b3373bc100000000000000000000000000000000010001461146457604051634ca8886760e01b815260040160405180910390fd5b5f60038281548110611478576114786119e1565b5f9182526020909120600790910201600681015490915060ff1660018160058111156114a6576114a66117a4565b14806114c3575060028160058111156114c1576114c16117a4565b145b6114cb575f80fd5b60068201805460ff1916600317905542600483015560405183907f829a8683c544ad289ce92d3ce06e9ebad69b18a6916e60ec766c2c217461d8e9905f90a2505050565b611517611689565b5f8161ffff161161156a5760405162461bcd60e51b815260206004820152601860248201527f696e76616c6964207468726f74746c652073657474696e6700000000000000006044820152606401610af8565b6001805461ffff191661ffff83169081179091556040519081527fe536f709e7276119ff965216f1bbd671ef9ea99059743501129a0c9bec5d37ed9060200160405180910390a150565b6115bc611689565b6001600160a01b0381166115e557604051631e4fbdf760e01b81525f6004820152602401610af8565b6115ee816116b5565b50565b804710156116145760405163cd78605960e01b8152306004820152602401610af8565b5f826001600160a01b0316826040515f6040518083038185875af1925050503d805f811461165d576040519150601f19603f3d011682016040523d82523d5f602084013e611662565b606091505b505090508061168457604051630a12f52160e11b815260040160405180910390fd5b505050565b5f546001600160a01b031633146106e05760405163118cdaa760e01b8152336004820152602401610af8565b5f80546001600160a01b0383811673ffffffffffffffffffffffffffffffffffffffff19831681178455604051919092169283917f8be0079c531659141344cd1fd0a4f28419497f9722a3daafe3b4186f6b6457e09190a35050565b600880611c1a83390190565b5f6020828403121561172d575f80fd5b81356001600160e01b031981168114611744575f80fd5b9392505050565b5f6020828403121561175b575f80fd5b5035919050565b803563ffffffff81168114611775575f80fd5b919050565b5f806040838503121561178b575f80fd5b8235915061179b60208401611762565b90509250929050565b634e487b7160e01b5f52602160045260245ffd5b6001600160a01b038816815286602082015285604082015284606082015283608082015260e060a08201525f83518060e0840152806020860161010085015e5f6101008285010152610100601f19601f8301168401019150506006831061182d57634e487b7160e01b5f52602160045260245ffd5b8260c083015298975050505050505050565b803561ffff81168114611775575f80fd5b5f8060408385031215611861575f80fd5b61186a8361183f565b9150602083013567ffffffffffffffff81168114611886575f80fd5b809150509250929050565b5f805f604084860312156118a3575f80fd5b833567ffffffffffffffff8111156118b9575f80fd5b8401601f810186136118c9575f80fd5b803567ffffffffffffffff8111156118df575f80fd5b8660208284010111156118f0575f80fd5b60209182019450925061190490850161183f565b90509250925092565b5f806040838503121561191e575f80fd5b8235915061179b6020840161183f565b80356001600160a01b0381168114611775575f80fd5b5f805f8060808587031215611957575f80fd5b8435935061196760208601611762565b92506119756040860161192e565b9396929550929360600135925050565b5f805f8060808587031215611998575f80fd5b843593506020850135925061197560408601611762565b5f602082840312156119bf575f80fd5b6117448261183f565b5f602082840312156119d8575f80fd5b6117448261192e565b634e487b7160e01b5f52603260045260245ffd5b634e487b7160e01b5f52601160045260245ffd5b80820180821115610498576104986119f5565b600181811c90821680611a3057607f821691505b602082108103611a4e57634e487b7160e01b5f52602260045260245ffd5b50919050565b81810381811115610498576104986119f5565b8082028115828204841417610498576104986119f5565b634e487b7160e01b5f52601260045260245ffd5b5f82611aa057611aa0611a7e565b500490565b5f82611ab357611ab3611a7e565b500690565b634e487b7160e01b5f52604160045260245ffd5b601f82111561168457805f5260205f20601f840160051c81016020851015611af15750805b601f840160051c820191505b81811015611b10575f8155600101611afd565b5050505050565b815167ffffffffffffffff811115611b3157611b31611ab8565b611b4581611b3f8454611a1c565b84611acc565b6020601f821160018114611b77575f8315611b605750848201515b5f19600385901b1c1916600184901b178455611b10565b5f84815260208120601f198516915b82811015611ba65787850151825560209485019460019092019101611b86565b5084821015611bc357868401515f19600387901b60f8161c191681555b50505050600190811b01905550565b85815284602082015261ffff8416604082015260806060820152816080820152818360a08301375f81830160a090810191909152601f909201601f1916010194935050505056fe608060405230fffea164736f6c634300081a000a",
  "linkReferences": {},
  "deployedLinkReferences": {}
}