{
  "_format": "hh-sol-artifact-1",
  "contractName": "Relayer",
  "sourceName": "contracts/relayer/Relayer.sol",
  "abi": [
    {
      "inputs": [
        {
          "internalType": "address",
          "name": "owner",
          "type": "address"
        }
      ],
      "stateMutability": "nonpayable",
      "type": "constructor"
    },
    {
      "inputs": [
        {
          "internalType": "address",
          "name": "owner",
          "type": "address"
        }
      ],
      "name": "OwnableInvalidOwner",
      "type": "error"
    },
    {
      "inputs": [
        {
          "internalType": "address",
          "name": "account",
          "type": "address"
        }
      ],
      "name": "OwnableUnauthorizedAccount",
      "type": "error"
    },
    {
      "anonymous": false,
      "inputs": [
        {
          "indexed": true,
          "internalType": "address",
          "name": "voter",
          "type": "address"
        },
        {
          "indexed": false,
          "internalType": "bytes32",
          "name": "keyHash",
          "type": "bytes32"
        }
      ],
      "name": "AddedVoter",
      "type": "event"
    },
    {
      "anonymous": false,
      "inputs": [
        {
          "indexed": true,
          "internalType": "address",
          "name": "previousOwner",
          "type": "address"
        },
        {
          "indexed": true,
          "internalType": "address",
          "name": "newOwner",
          "type": "address"
        }
      ],
      "name": "OwnershipTransferred",
      "type": "event"
    },
    {
      "anonymous": false,
      "inputs": [
        {
          "indexed": true,
          "internalType": "address",
          "name": "voter",
          "type": "address"
        }
      ],
      "name": "RemovedVoter",
      "type": "event"
    },
    {
      "inputs": [],
      "name": "MAX_VOTER_COUNT",
      "outputs": [
        {
          "internalType": "uint16",
          "name": "",
          "type": "uint16"
        }
      ],
      "stateMutability": "view",
      "type": "function"
    },
    {
      "inputs": [
        {
          "internalType": "address",
          "name": "voter",
          "type": "address"
        },
        {
          "internalType": "bytes32",
          "name": "vtkey",
          "type": "bytes32"
        }
      ],
      "name": "addVoter",
      "outputs": [],
      "stateMutability": "nonpayable",
      "type": "function"
    },
    {
      "inputs": [],
      "name": "owner",
      "outputs": [
        {
          "internalType": "address",
          "name": "",
          "type": "address"
        }
      ],
      "stateMutability": "view",
      "type": "function"
    },
    {
      "inputs": [
        {
          "internalType": "bytes32",
          "name": "vtkh",
          "type": "bytes32"
        }
      ],
      "name": "pubkeys",
      "outputs": [
        {
          "internalType": "bool",
          "name": "exists",
          "type": "bool"
        }
      ],
      "stateMutability": "view",
      "type": "function"
    },
    {
      "inputs": [
        {
          "internalType": "address",
          "name": "voter",
          "type": "address"
        }
      ],
      "name": "removeVoter",
      "outputs": [],
      "stateMutability": "nonpayable",
      "type": "function"
    },
    {
      "inputs": [],
      "name": "renounceOwnership",
      "outputs": [],
      "stateMutability": "nonpayable",
      "type": "function"
    },
    {
      "inputs": [],
      "name": "total",
      "outputs": [
        {
          "internalType": "uint16",
          "name": "",
          "type": "uint16"
        }
      ],
      "stateMutability": "view",
      "type": "function"
    },
    {
      "inputs": [
        {
          "internalType": "address",
          "name": "newOwner",
          "type": "address"
        }
      ],
      "name": "transferOwnership",
      "outputs": [],
      "stateMutability": "nonpayable",
      "type": "function"
    },
    {
      "inputs": [
        {
          "internalType": "address",
          "name": "voter",
          "type": "address"
        }
      ],
      "name": "voters",
      "outputs": [
        {
          "internalType": "bool",
          "name": "exists",
          "type": "bool"
        }
      ],
      "stateMutability": "view",
      "type": "function"
    }
  ],
  "bytecode": "0x608060405234801561000f575f80fd5b5060405161075c38038061075c83398101604081905261002e916100bb565b806001600160a01b03811661005c57604051631e4fbdf760e01b81525f600482015260240160405180910390fd5b6100658161006c565b50506100e8565b5f80546001600160a01b038381166001600160a01b0319831681178455604051919092169283917f8be0079c531659141344cd1fd0a4f28419497f9722a3daafe3b4186f6b6457e09190a35050565b5f602082840312156100cb575f80fd5b81516001600160a01b03811681146100e1575f80fd5b9392505050565b610667806100f55f395ff3fe608060405234801561000f575f80fd5b506004361061009f575f3560e01c806386c1ff681161007257806398611f121161005857806398611f1214610122578063a3ec138d14610154578063f2fde38b14610176575f80fd5b806386c1ff68146100f55780638da5cb5b14610108575f80fd5b80632ddbd13a146100a35780637090a943146100cf578063715018a6146100e4578063827fb811146100ec575b5f80fd5b5f546100b790600160a01b900461ffff1681565b60405161ffff90911681526020015b60405180910390f35b6100e26100dd3660046105ab565b610189565b005b6100e2610355565b6100b761010081565b6100e26101033660046105d3565b610368565b5f546040516001600160a01b0390911681526020016100c6565b6101446101303660046105f3565b60016020525f908152604090205460ff1681565b60405190151581526020016100c6565b6101446101623660046105d3565b60026020525f908152604090205460ff1681565b6100e26101843660046105d3565b6104c0565b6101916104fd565b5f8181526001602052604090205460ff16156101f45760405162461bcd60e51b815260206004820152600e60248201527f6475706c696361746564206b657900000000000000000000000000000000000060448201526064015b60405180910390fd5b6001600160a01b0382165f9081526002602052604090205460ff161561025c5760405162461bcd60e51b815260206004820152601060248201527f6475706c69636174656420766f7465720000000000000000000000000000000060448201526064016101eb565b5f8054610100919060149061027b90600160a01b900461ffff1661061e565b91906101000a81548161ffff021916908361ffff160217905561ffff16106102e55760405162461bcd60e51b815260206004820152600f60248201527f746f6f206d616e7920766f74657273000000000000000000000000000000000060448201526064016101eb565b6001600160a01b0382165f8181526002602090815260408083208054600160ff1991821681179092558685528184529382902080549094161790925590518381527f101c617f43dd1b8a54a9d747d9121bbc55e93b88bc50560d782a79c4e28fc838910160405180910390a25050565b61035d6104fd565b6103665f610529565b565b6103706104fd565b6001600160a01b0381165f9081526002602052604090205460ff166103d75760405162461bcd60e51b815260206004820152600f60248201527f766f746572206e6f7420666f756e64000000000000000000000000000000000060448201526064016101eb565b5f546001600160a01b90910461ffff16116104345760405162461bcd60e51b815260206004820152600e60248201527f746f6f2066657720766f7465727300000000000000000000000000000000000060448201526064016101eb565b6001600160a01b0381165f908152600260205260408120805460ff191690558054600160a01b900461ffff1690601461046c8361063e565b91906101000a81548161ffff021916908361ffff16021790555050806001600160a01b03167f183393fc5cffbfc7d03d623966b85f76b9430f42d3aada2ac3f3deabc78899e860405160405180910390a250565b6104c86104fd565b6001600160a01b0381166104f157604051631e4fbdf760e01b81525f60048201526024016101eb565b6104fa81610529565b50565b5f546001600160a01b031633146103665760405163118cdaa760e01b81523360048201526024016101eb565b5f80546001600160a01b038381167fffffffffffffffffffffffff0000000000000000000000000000000000000000831681178455604051919092169283917f8be0079c531659141344cd1fd0a4f28419497f9722a3daafe3b4186f6b6457e09190a35050565b80356001600160a01b03811681146105a6575f80fd5b919050565b5f80604083850312156105bc575f80fd5b6105c583610590565b946020939093013593505050565b5f602082840312156105e3575f80fd5b6105ec82610590565b9392505050565b5f60208284031215610603575f80fd5b5035919050565b634e487b7160e01b5f52601160045260245ffd5b5f61ffff821661ffff81036106355761063561060a565b60010192915050565b5f61ffff8216806106515761065161060a565b5f19019291505056fea164736f6c634300081a000a",
  "linkReferences": {},
  "deployedLinkReferences": {}
}