{
  "_format": "hh-sol-artifact-1",
  "contractName": "Relayer",
  "sourceName": "contracts/relayer/relayer.sol",
  "abi": [
    {
      "inputs": [
        {
          "internalType": "address",
          "name": "owner",
          "type": "address"
        }
      ],
      "stateMutability": "nonpayable",
      "type": "constructor"
    },
    {
      "inputs": [
        {
          "internalType": "address",
          "name": "owner",
          "type": "address"
        }
      ],
      "name": "OwnableInvalidOwner",
      "type": "error"
    },
    {
      "inputs": [
        {
          "internalType": "address",
          "name": "account",
          "type": "address"
        }
      ],
      "name": "OwnableUnauthorizedAccount",
      "type": "error"
    },
    {
      "anonymous": false,
      "inputs": [
        {
          "indexed": true,
          "internalType": "bytes20",
          "name": "voter",
          "type": "bytes20"
        },
        {
          "indexed": false,
          "internalType": "bytes32",
          "name": "keyHash",
          "type": "bytes32"
        }
      ],
      "name": "AddedVoter",
      "type": "event"
    },
    {
      "anonymous": false,
      "inputs": [
        {
          "indexed": true,
          "internalType": "address",
          "name": "previousOwner",
          "type": "address"
        },
        {
          "indexed": true,
          "internalType": "address",
          "name": "newOwner",
          "type": "address"
        }
      ],
      "name": "OwnershipTransferred",
      "type": "event"
    },
    {
      "anonymous": false,
      "inputs": [
        {
          "indexed": true,
          "internalType": "bytes20",
          "name": "voter",
          "type": "bytes20"
        }
      ],
      "name": "RemovedVoter",
      "type": "event"
    },
    {
      "inputs": [],
      "name": "MAX_VOTER_COUNT",
      "outputs": [
        {
          "internalType": "uint16",
          "name": "",
          "type": "uint16"
        }
      ],
      "stateMutability": "view",
      "type": "function"
    },
    {
      "inputs": [
        {
          "internalType": "bytes20",
          "name": "voter",
          "type": "bytes20"
        },
        {
          "internalType": "bytes32",
          "name": "vtkey",
          "type": "bytes32"
        }
      ],
      "name": "addVoter",
      "outputs": [],
      "stateMutability": "nonpayable",
      "type": "function"
    },
    {
      "inputs": [],
      "name": "owner",
      "outputs": [
        {
          "internalType": "address",
          "name": "",
          "type": "address"
        }
      ],
      "stateMutability": "view",
      "type": "function"
    },
    {
      "inputs": [
        {
          "internalType": "bytes32",
          "name": "vtkh",
          "type": "bytes32"
        }
      ],
      "name": "pubkeys",
      "outputs": [
        {
          "internalType": "bool",
          "name": "exists",
          "type": "bool"
        }
      ],
      "stateMutability": "view",
      "type": "function"
    },
    {
      "inputs": [
        {
          "internalType": "bytes20",
          "name": "voter",
          "type": "bytes20"
        }
      ],
      "name": "removeVoter",
      "outputs": [],
      "stateMutability": "nonpayable",
      "type": "function"
    },
    {
      "inputs": [],
      "name": "renounceOwnership",
      "outputs": [],
      "stateMutability": "nonpayable",
      "type": "function"
    },
    {
      "inputs": [],
      "name": "total",
      "outputs": [
        {
          "internalType": "uint16",
          "name": "",
          "type": "uint16"
        }
      ],
      "stateMutability": "view",
      "type": "function"
    },
    {
      "inputs": [
        {
          "internalType": "address",
          "name": "newOwner",
          "type": "address"
        }
      ],
      "name": "transferOwnership",
      "outputs": [],
      "stateMutability": "nonpayable",
      "type": "function"
    },
    {
      "inputs": [
        {
          "internalType": "bytes20",
          "name": "voter",
          "type": "bytes20"
        }
      ],
      "name": "voters",
      "outputs": [
        {
          "internalType": "bool",
          "name": "exists",
          "type": "bool"
        }
      ],
      "stateMutability": "view",
      "type": "function"
    }
  ],
  "bytecode": "0x608060405234801561000f575f80fd5b506040516107a63803806107a683398101604081905261002e916100bb565b806001600160a01b03811661005c57604051631e4fbdf760e01b81525f600482015260240160405180910390fd5b6100658161006c565b50506100e8565b5f80546001600160a01b038381166001600160a01b0319831681178455604051919092169283917f8be0079c531659141344cd1fd0a4f28419497f9722a3daafe3b4186f6b6457e09190a35050565b5f602082840312156100cb575f80fd5b81516001600160a01b03811681146100e1575f80fd5b9392505050565b6106b1806100f55f395ff3fe608060405234801561000f575f80fd5b506004361061009f575f3560e01c8063827fb8111161007257806398611f121161005857806398611f1214610141578063d782d4f714610163578063f2fde38b14610176575f80fd5b8063827fb8111461011e5780638da5cb5b14610127575f80fd5b80631a41e890146100a35780632ddbd13a146100da5780636b75a2b314610101578063715018a614610116575b5f80fd5b6100c56100b13660046105cf565b60026020525f908152604090205460ff1681565b60405190151581526020015b60405180910390f35b5f546100ee90600160a01b900461ffff1681565b60405161ffff90911681526020016100d1565b61011461010f3660046105cf565b610189565b005b6101146102f8565b6100ee61010081565b5f546040516001600160a01b0390911681526020016100d1565b6100c561014f3660046105ef565b60016020525f908152604090205460ff1681565b610114610171366004610606565b61030b565b61011461018436600461062e565b6104de565b61019161051b565b6bffffffffffffffffffffffff1981165f9081526002602052604090205460ff166102035760405162461bcd60e51b815260206004820152600f60248201527f766f746572206e6f7420666f756e64000000000000000000000000000000000060448201526064015b60405180910390fd5b5f546001600160a01b90910461ffff16116102605760405162461bcd60e51b815260206004820152600e60248201527f746f6f2066657720766f7465727300000000000000000000000000000000000060448201526064016101fa565b6bffffffffffffffffffffffff1981165f908152600260205260408120805460ff191690558054600160a01b900461ffff1690601461029e83610668565b91906101000a81548161ffff021916908361ffff16021790555050806bffffffffffffffffffffffff19167fa4d0070f0847ad2444266e520aecd08cc31d75b1f1facc657f007083f985777860405160405180910390a250565b61030061051b565b6103095f610547565b565b61031361051b565b5f8181526001602052604090205460ff16156103715760405162461bcd60e51b815260206004820152600e60248201527f6475706c696361746564206b657900000000000000000000000000000000000060448201526064016101fa565b6bffffffffffffffffffffffff1982165f9081526002602052604090205460ff16156103df5760405162461bcd60e51b815260206004820152601060248201527f6475706c69636174656420766f7465720000000000000000000000000000000060448201526064016101fa565b5f805461010091906014906103fe90600160a01b900461ffff16610684565b91906101000a81548161ffff021916908361ffff160217905561ffff16106104685760405162461bcd60e51b815260206004820152600f60248201527f746f6f206d616e7920766f74657273000000000000000000000000000000000060448201526064016101fa565b6bffffffffffffffffffffffff1982165f8181526002602090815260408083208054600160ff1991821681179092558685528184529382902080549094161790925590518381527f2940969868a5545331aa91a95aaa97def154a66f4ed34985622a4136be3b1b04910160405180910390a25050565b6104e661051b565b6001600160a01b03811661050f57604051631e4fbdf760e01b81525f60048201526024016101fa565b61051881610547565b50565b5f546001600160a01b031633146103095760405163118cdaa760e01b81523360048201526024016101fa565b5f80546001600160a01b038381167fffffffffffffffffffffffff0000000000000000000000000000000000000000831681178455604051919092169283917f8be0079c531659141344cd1fd0a4f28419497f9722a3daafe3b4186f6b6457e09190a35050565b80356bffffffffffffffffffffffff19811681146105ca575f80fd5b919050565b5f602082840312156105df575f80fd5b6105e8826105ae565b9392505050565b5f602082840312156105ff575f80fd5b5035919050565b5f8060408385031215610617575f80fd5b610620836105ae565b946020939093013593505050565b5f6020828403121561063e575f80fd5b81356001600160a01b03811681146105e8575f80fd5b634e487b7160e01b5f52601160045260245ffd5b5f61ffff82168061067b5761067b610654565b5f190192915050565b5f61ffff821661ffff810361069b5761069b610654565b6001019291505056fea164736f6c634300081a000a",
  "linkReferences": {},
  "deployedLinkReferences": {}
}