{
  "_format": "hh-sol-artifact-1",
  "contractName": "Relayer",
  "sourceName": "contracts/relayer/Relayer.sol",
  "abi": [
    {
      "inputs": [
        {
          "internalType": "address",
          "name": "owner",
          "type": "address"
        }
      ],
      "stateMutability": "nonpayable",
      "type": "constructor"
    },
    {
      "inputs": [
        {
          "internalType": "address",
          "name": "owner",
          "type": "address"
        }
      ],
      "name": "OwnableInvalidOwner",
      "type": "error"
    },
    {
      "inputs": [
        {
          "internalType": "address",
          "name": "account",
          "type": "address"
        }
      ],
      "name": "OwnableUnauthorizedAccount",
      "type": "error"
    },
    {
      "anonymous": false,
      "inputs": [
        {
          "indexed": true,
          "internalType": "address",
          "name": "voter",
          "type": "address"
        },
        {
          "indexed": false,
          "internalType": "bytes32",
          "name": "keyHash",
          "type": "bytes32"
        }
      ],
      "name": "AddedVoter",
      "type": "event"
    },
    {
      "anonymous": false,
      "inputs": [
        {
          "indexed": true,
          "internalType": "address",
          "name": "previousOwner",
          "type": "address"
        },
        {
          "indexed": true,
          "internalType": "address",
          "name": "newOwner",
          "type": "address"
        }
      ],
      "name": "OwnershipTransferred",
      "type": "event"
    },
    {
      "anonymous": false,
      "inputs": [
        {
          "indexed": true,
          "internalType": "address",
          "name": "voter",
          "type": "address"
        }
      ],
      "name": "RemovedVoter",
      "type": "event"
    },
    {
      "inputs": [],
      "name": "MAX_VOTER_COUNT",
      "outputs": [
        {
          "internalType": "uint256",
          "name": "",
          "type": "uint256"
        }
      ],
      "stateMutability": "view",
      "type": "function"
    },
    {
      "inputs": [
        {
          "internalType": "address",
          "name": "voter",
          "type": "address"
        },
        {
          "internalType": "bytes32",
          "name": "vtkey",
          "type": "bytes32"
        }
      ],
      "name": "addVoter",
      "outputs": [],
      "stateMutability": "nonpayable",
      "type": "function"
    },
    {
      "inputs": [],
      "name": "owner",
      "outputs": [
        {
          "internalType": "address",
          "name": "",
          "type": "address"
        }
      ],
      "stateMutability": "view",
      "type": "function"
    },
    {
      "inputs": [
        {
          "internalType": "bytes32",
          "name": "vtkh",
          "type": "bytes32"
        }
      ],
      "name": "pubkeys",
      "outputs": [
        {
          "internalType": "bool",
          "name": "exists",
          "type": "bool"
        }
      ],
      "stateMutability": "view",
      "type": "function"
    },
    {
      "inputs": [
        {
          "internalType": "address",
          "name": "voter",
          "type": "address"
        }
      ],
      "name": "removeVoter",
      "outputs": [],
      "stateMutability": "nonpayable",
      "type": "function"
    },
    {
      "inputs": [],
      "name": "renounceOwnership",
      "outputs": [],
      "stateMutability": "nonpayable",
      "type": "function"
    },
    {
      "inputs": [],
      "name": "total",
      "outputs": [
        {
          "internalType": "uint256",
          "name": "",
          "type": "uint256"
        }
      ],
      "stateMutability": "view",
      "type": "function"
    },
    {
      "inputs": [
        {
          "internalType": "address",
          "name": "newOwner",
          "type": "address"
        }
      ],
      "name": "transferOwnership",
      "outputs": [],
      "stateMutability": "nonpayable",
      "type": "function"
    },
    {
      "inputs": [
        {
          "internalType": "address",
          "name": "voter",
          "type": "address"
        }
      ],
      "name": "voters",
      "outputs": [
        {
          "internalType": "bool",
          "name": "exists",
          "type": "bool"
        }
      ],
      "stateMutability": "view",
      "type": "function"
    }
  ],
  "bytecode": "0x6080604052348015600e575f5ffd5b506040516106df3803806106df833981016040819052602b9160b4565b806001600160a01b038116605857604051631e4fbdf760e01b81525f600482015260240160405180910390fd5b605f816065565b505060df565b5f80546001600160a01b038381166001600160a01b0319831681178455604051919092169283917f8be0079c531659141344cd1fd0a4f28419497f9722a3daafe3b4186f6b6457e09190a35050565b5f6020828403121560c3575f5ffd5b81516001600160a01b038116811460d8575f5ffd5b9392505050565b6105f3806100ec5f395ff3fe608060405234801561000f575f5ffd5b506004361061009f575f3560e01c806386c1ff681161007257806398611f121161005857806398611f1214610112578063a3ec138d14610144578063f2fde38b14610166575f5ffd5b806386c1ff68146100e55780638da5cb5b146100f8575f5ffd5b80632ddbd13a146100a35780637090a943146100bf578063715018a6146100d4578063827fb811146100dc575b5f5ffd5b6100ac60015481565b6040519081526020015b60405180910390f35b6100d26100cd366004610546565b610179565b005b6100d2610320565b6100ac61010081565b6100d26100f336600461056e565b610333565b5f546040516001600160a01b0390911681526020016100b6565b61013461012036600461058e565b60026020525f908152604090205460ff1681565b60405190151581526020016100b6565b61013461015236600461056e565b60036020525f908152604090205460ff1681565b6100d261017436600461056e565b61045b565b610181610498565b5f8181526002602052604090205460ff16156101e45760405162461bcd60e51b815260206004820152600e60248201527f6475706c696361746564206b657900000000000000000000000000000000000060448201526064015b60405180910390fd5b6001600160a01b0382165f9081526003602052604090205460ff161561024c5760405162461bcd60e51b815260206004820152601060248201527f6475706c69636174656420766f7465720000000000000000000000000000000060448201526064016101db565b61010060015f815461025d906105b9565b9182905550106102af5760405162461bcd60e51b815260206004820152600f60248201527f746f6f206d616e7920766f74657273000000000000000000000000000000000060448201526064016101db565b6001600160a01b0382165f8181526003602090815260408083208054600160ff199182168117909255868552600284529382902080549094161790925590518381527f101c617f43dd1b8a54a9d747d9121bbc55e93b88bc50560d782a79c4e28fc838910160405180910390a25050565b610328610498565b6103315f6104c4565b565b61033b610498565b6001600160a01b0381165f9081526003602052604090205460ff166103a25760405162461bcd60e51b815260206004820152600f60248201527f766f746572206e6f7420666f756e64000000000000000000000000000000000060448201526064016101db565b60018054116103f35760405162461bcd60e51b815260206004820152600e60248201527f746f6f2066657720766f7465727300000000000000000000000000000000000060448201526064016101db565b6001600160a01b0381165f908152600360205260408120805460ff191690556001805491610420836105d1565b90915550506040516001600160a01b038216907f183393fc5cffbfc7d03d623966b85f76b9430f42d3aada2ac3f3deabc78899e8905f90a250565b610463610498565b6001600160a01b03811661048c57604051631e4fbdf760e01b81525f60048201526024016101db565b610495816104c4565b50565b5f546001600160a01b031633146103315760405163118cdaa760e01b81523360048201526024016101db565b5f80546001600160a01b038381167fffffffffffffffffffffffff0000000000000000000000000000000000000000831681178455604051919092169283917f8be0079c531659141344cd1fd0a4f28419497f9722a3daafe3b4186f6b6457e09190a35050565b80356001600160a01b0381168114610541575f5ffd5b919050565b5f5f60408385031215610557575f5ffd5b6105608361052b565b946020939093013593505050565b5f6020828403121561057e575f5ffd5b6105878261052b565b9392505050565b5f6020828403121561059e575f5ffd5b5035919050565b634e487b7160e01b5f52601160045260245ffd5b5f600182016105ca576105ca6105a5565b5060010190565b5f816105df576105df6105a5565b505f19019056fea164736f6c634300081b000a",
  "linkReferences": {},
  "deployedLinkReferences": {}
}