{
  "_format": "hh-sol-artifact-1",
  "contractName": "Bitcoin",
  "sourceName": "contracts/bitcoin/Bitcoin.sol",
  "abi": [
    {
      "inputs": [
        {
          "internalType": "uint256",
          "name": "_height",
          "type": "uint256"
        },
        {
          "internalType": "bytes32",
          "name": "_hash",
          "type": "bytes32"
        },
        {
          "internalType": "string",
          "name": "_network",
          "type": "string"
        }
      ],
      "stateMutability": "nonpayable",
      "type": "constructor"
    },
    {
      "inputs": [],
      "name": "AccessDenied",
      "type": "error"
    },
    {
      "inputs": [],
      "name": "Forbidden",
      "type": "error"
    },
    {
      "anonymous": false,
      "inputs": [
        {
          "indexed": false,
          "internalType": "uint256",
          "name": "height",
          "type": "uint256"
        }
      ],
      "name": "NewBlockHash",
      "type": "event"
    },
    {
      "inputs": [
        {
          "internalType": "uint256",
          "name": "height",
          "type": "uint256"
        }
      ],
      "name": "blockHash",
      "outputs": [
        {
          "internalType": "bytes32",
          "name": "",
          "type": "bytes32"
        }
      ],
      "stateMutability": "view",
      "type": "function"
    },
    {
      "inputs": [],
      "name": "latestHeight",
      "outputs": [
        {
          "internalType": "uint256",
          "name": "",
          "type": "uint256"
        }
      ],
      "stateMutability": "view",
      "type": "function"
    },
    {
      "inputs": [],
      "name": "networkName",
      "outputs": [
        {
          "internalType": "string",
          "name": "",
          "type": "string"
        }
      ],
      "stateMutability": "view",
      "type": "function"
    },
    {
      "inputs": [
        {
          "internalType": "bytes32",
          "name": "_hash",
          "type": "bytes32"
        }
      ],
      "name": "newBlockHash",
      "outputs": [],
      "stateMutability": "nonpayable",
      "type": "function"
    },
    {
      "inputs": [],
      "name": "startHeight",
      "outputs": [
        {
          "internalType": "uint256",
          "name": "",
          "type": "uint256"
        }
      ],
      "stateMutability": "view",
      "type": "function"
    }
  ],
  "bytecode": "0x608060405234801561000f575f5ffd5b5060405161053038038061053083398101604081905261002e9161006f565b600183905560028390555f83815260036020526040812083905561005282826101b6565b50505050610270565b634e487b7160e01b5f52604160045260245ffd5b5f5f5f60608486031215610081575f5ffd5b83516020850151604086015191945092506001600160401b038111156100a5575f5ffd5b8401601f810186136100b5575f5ffd5b80516001600160401b038111156100ce576100ce61005b565b604051601f8201601f19908116603f011681016001600160401b03811182821017156100fc576100fc61005b565b604052818152828201602001881015610113575f5ffd5b8160208401602083015e5f602083830101528093505050509250925092565b600181811c9082168061014657607f821691505b60208210810361016457634e487b7160e01b5f52602260045260245ffd5b50919050565b601f8211156101b157805f5260205f20601f840160051c8101602085101561018f5750805b601f840160051c820191505b818110156101ae575f815560010161019b565b50505b505050565b81516001600160401b038111156101cf576101cf61005b565b6101e3816101dd8454610132565b8461016a565b6020601f821160018114610215575f83156101fe5750848201515b5f19600385901b1c1916600184901b1784556101ae565b5f84815260208120601f198516915b828110156102445787850151825560209485019460019092019101610224565b508482101561026157868401515f19600387901b60f8161c191681555b50505050600190811b01905550565b6102b38061027d5f395ff3fe608060405234801561000f575f5ffd5b5060043610610064575f3560e01c806385df51fd1161004d57806385df51fd1461009d57806394f490bd146100bc578063e405bbc3146100d1575f5ffd5b8063107bf28c1461006857806326a6557a14610086575b5f5ffd5b6100706100da565b60405161007d91906101fe565b60405180910390f35b61008f60015481565b60405190815260200161007d565b61008f6100ab366004610233565b5f9081526003602052604090205490565b6100cf6100ca366004610233565b610165565b005b61008f60025481565b5f80546100e69061024a565b80601f01602080910402602001604051908101604052809291908181526020018280546101129061024a565b801561015d5780601f106101345761010080835404028352916020019161015d565b820191905f5260205f20905b81548152906001019060200180831161014057829003601f168201915b505050505081565b33739139ee5450fd3b0d07e3a623ee5e3df013bfdea71461019957604051634ca8886760e01b815260040160405180910390fd5b5f60025f81546101a890610282565b91829055505f8181526003602052604090819020849055519091507fdd5483f1119d050d70b0fe3ed9db0b5f41b3ec55838346cbb624efe0565b0133906101f29083815260200190565b60405180910390a15050565b602081525f82518060208401528060208501604085015e5f604082850101526040601f19601f83011684010191505092915050565b5f60208284031215610243575f5ffd5b5035919050565b600181811c9082168061025e57607f821691505b60208210810361027c57634e487b7160e01b5f52602260045260245ffd5b50919050565b5f6001820161029f57634e487b7160e01b5f52601160045260245ffd5b506001019056fea164736f6c634300081b000a",
  "linkReferences": {},
  "deployedLinkReferences": {}
}