{
  "_format": "hh-sol-artifact-1",
  "contractName": "GoatFoundation",
  "sourceName": "contracts/goat/GoatFoundation.sol",
  "abi": [
    {
      "inputs": [
        {
          "internalType": "address",
          "name": "owner",
          "type": "address"
        }
      ],
      "stateMutability": "nonpayable",
      "type": "constructor"
    },
    {
      "inputs": [
        {
          "internalType": "address",
          "name": "target",
          "type": "address"
        }
      ],
      "name": "AddressEmptyCode",
      "type": "error"
    },
    {
      "inputs": [
        {
          "internalType": "address",
          "name": "account",
          "type": "address"
        }
      ],
      "name": "AddressInsufficientBalance",
      "type": "error"
    },
    {
      "inputs": [],
      "name": "FailedInnerCall",
      "type": "error"
    },
    {
      "inputs": [
        {
          "internalType": "address",
          "name": "owner",
          "type": "address"
        }
      ],
      "name": "OwnableInvalidOwner",
      "type": "error"
    },
    {
      "inputs": [
        {
          "internalType": "address",
          "name": "account",
          "type": "address"
        }
      ],
      "name": "OwnableUnauthorizedAccount",
      "type": "error"
    },
    {
      "inputs": [
        {
          "internalType": "address",
          "name": "token",
          "type": "address"
        }
      ],
      "name": "SafeERC20FailedOperation",
      "type": "error"
    },
    {
      "anonymous": false,
      "inputs": [
        {
          "indexed": false,
          "internalType": "address",
          "name": "from",
          "type": "address"
        },
        {
          "indexed": false,
          "internalType": "uint256",
          "name": "amount",
          "type": "uint256"
        }
      ],
      "name": "Donate",
      "type": "event"
    },
    {
      "anonymous": false,
      "inputs": [
        {
          "indexed": true,
          "internalType": "address",
          "name": "previousOwner",
          "type": "address"
        },
        {
          "indexed": true,
          "internalType": "address",
          "name": "newOwner",
          "type": "address"
        }
      ],
      "name": "OwnershipTransferred",
      "type": "event"
    },
    {
      "anonymous": false,
      "inputs": [
        {
          "indexed": false,
          "internalType": "address",
          "name": "to",
          "type": "address"
        },
        {
          "indexed": false,
          "internalType": "uint256",
          "name": "amount",
          "type": "uint256"
        }
      ],
      "name": "Transfer",
      "type": "event"
    },
    {
      "inputs": [
        {
          "internalType": "address payable",
          "name": "target",
          "type": "address"
        },
        {
          "internalType": "bytes",
          "name": "data",
          "type": "bytes"
        },
        {
          "internalType": "uint256",
          "name": "value",
          "type": "uint256"
        }
      ],
      "name": "invoke",
      "outputs": [
        {
          "internalType": "bytes",
          "name": "",
          "type": "bytes"
        }
      ],
      "stateMutability": "payable",
      "type": "function"
    },
    {
      "inputs": [],
      "name": "owner",
      "outputs": [
        {
          "internalType": "address",
          "name": "",
          "type": "address"
        }
      ],
      "stateMutability": "view",
      "type": "function"
    },
    {
      "inputs": [],
      "name": "renounceOwnership",
      "outputs": [],
      "stateMutability": "nonpayable",
      "type": "function"
    },
    {
      "inputs": [
        {
          "internalType": "bytes4",
          "name": "id",
          "type": "bytes4"
        }
      ],
      "name": "supportsInterface",
      "outputs": [
        {
          "internalType": "bool",
          "name": "",
          "type": "bool"
        }
      ],
      "stateMutability": "view",
      "type": "function"
    },
    {
      "inputs": [
        {
          "internalType": "address payable",
          "name": "to",
          "type": "address"
        },
        {
          "internalType": "uint256",
          "name": "amount",
          "type": "uint256"
        }
      ],
      "name": "transfer",
      "outputs": [],
      "stateMutability": "nonpayable",
      "type": "function"
    },
    {
      "inputs": [
        {
          "internalType": "address",
          "name": "token",
          "type": "address"
        },
        {
          "internalType": "address",
          "name": "to",
          "type": "address"
        },
        {
          "internalType": "uint256",
          "name": "amount",
          "type": "uint256"
        }
      ],
      "name": "transferERC20",
      "outputs": [],
      "stateMutability": "nonpayable",
      "type": "function"
    },
    {
      "inputs": [
        {
          "internalType": "address",
          "name": "newOwner",
          "type": "address"
        }
      ],
      "name": "transferOwnership",
      "outputs": [],
      "stateMutability": "nonpayable",
      "type": "function"
    },
    {
      "stateMutability": "payable",
      "type": "receive"
    }
  ],
  "bytecode": "0x6080604052348015600e575f5ffd5b50604051610939380380610939833981016040819052602b9160b4565b806001600160a01b038116605857604051631e4fbdf760e01b81525f600482015260240160405180910390fd5b605f816065565b505060df565b5f80546001600160a01b038381166001600160a01b0319831681178455604051919092169283917f8be0079c531659141344cd1fd0a4f28419497f9722a3daafe3b4186f6b6457e09190a35050565b5f6020828403121560c3575f5ffd5b81516001600160a01b038116811460d8575f5ffd5b9392505050565b61084d806100ec5f395ff3fe608060405260043610610071575f3560e01c80639db5dbe41161004c5780639db5dbe4146101245780639e976db114610143578063a9059cbb14610163578063f2fde38b14610182575f5ffd5b806301ffc9a7146100b4578063715018a6146100e85780638da5cb5b146100fe575f5ffd5b366100b057604080513381523460208201527f0553260a2e46b0577270d8992db02d30856ca880144c72d6e9503760946aef13910160405180910390a1005b5f5ffd5b3480156100bf575f5ffd5b506100d36100ce366004610691565b6101a1565b60405190151581526020015b60405180910390f35b3480156100f3575f5ffd5b506100fc6101d7565b005b348015610109575f5ffd5b505f546040516001600160a01b0390911681526020016100df565b34801561012f575f5ffd5b506100fc61013e3660046106cc565b6101ea565b61015661015136600461070a565b61020b565b6040516100df9190610791565b34801561016e575f5ffd5b506100fc61017d3660046107c6565b6102d8565b34801561018d575f5ffd5b506100fc61019c3660046107f0565b610339565b5f6001600160e01b031982166301ffc9a760e01b14806101d157506001600160e01b03198216635513957760e11b145b92915050565b6101df610376565b6101e85f6103a2565b565b6101f2610376565b6102066001600160a01b0384168383610409565b505050565b6060610215610376565b5f546001600160a01b03166001600160a01b0316856001600160a01b0316036102855760405162461bcd60e51b815260206004820152600660248201527f216f776e6572000000000000000000000000000000000000000000000000000060448201526064015b60405180910390fd5b6102cf84848080601f0160208091040260200160405190810160405280939291908181526020018383808284375f9201919091525050506001600160a01b03881691905084610470565b95945050505050565b6102e0610376565b6102f36001600160a01b0383168261050b565b604080516001600160a01b0384168152602081018390527f69ca02dd4edd7bf0a4abb9ed3b7af3f14778db5d61921c7dc7cd545266326de2910160405180910390a15050565b610341610376565b6001600160a01b03811661036a57604051631e4fbdf760e01b81525f600482015260240161027c565b610373816103a2565b50565b5f546001600160a01b031633146101e85760405163118cdaa760e01b815233600482015260240161027c565b5f80546001600160a01b038381167fffffffffffffffffffffffff0000000000000000000000000000000000000000831681178455604051919092169283917f8be0079c531659141344cd1fd0a4f28419497f9722a3daafe3b4186f6b6457e09190a35050565b604080516001600160a01b038416602482015260448082018490528251808303909101815260649091019091526020810180517bffffffffffffffffffffffffffffffffffffffffffffffffffffffff1663a9059cbb60e01b17905261020690849061059e565b6060814710156104955760405163cd78605960e01b815230600482015260240161027c565b5f5f856001600160a01b031684866040516104b0919061080b565b5f6040518083038185875af1925050503d805f81146104ea576040519150601f19603f3d011682016040523d82523d5f602084013e6104ef565b606091505b50915091506104ff8683836105ff565b925050505b9392505050565b8047101561052e5760405163cd78605960e01b815230600482015260240161027c565b5f826001600160a01b0316826040515f6040518083038185875af1925050503d805f8114610577576040519150601f19603f3d011682016040523d82523d5f602084013e61057c565b606091505b505090508061020657604051630a12f52160e11b815260040160405180910390fd5b5f6105b26001600160a01b0384168361065b565b905080515f141580156105d65750808060200190518101906105d49190610821565b155b1561020657604051635274afe760e01b81526001600160a01b038416600482015260240161027c565b6060826106145761060f82610668565b610504565b815115801561062b57506001600160a01b0384163b155b1561065457604051639996b31560e01b81526001600160a01b038516600482015260240161027c565b5080610504565b606061050483835f610470565b8051156106785780518082602001fd5b604051630a12f52160e11b815260040160405180910390fd5b5f602082840312156106a1575f5ffd5b81356001600160e01b031981168114610504575f5ffd5b6001600160a01b0381168114610373575f5ffd5b5f5f5f606084860312156106de575f5ffd5b83356106e9816106b8565b925060208401356106f9816106b8565b929592945050506040919091013590565b5f5f5f5f6060858703121561071d575f5ffd5b8435610728816106b8565b9350602085013567ffffffffffffffff811115610743575f5ffd5b8501601f81018713610753575f5ffd5b803567ffffffffffffffff811115610769575f5ffd5b87602082840101111561077a575f5ffd5b949760209190910196509394604001359392505050565b602081525f82518060208401528060208501604085015e5f604082850101526040601f19601f83011684010191505092915050565b5f5f604083850312156107d7575f5ffd5b82356107e2816106b8565b946020939093013593505050565b5f60208284031215610800575f5ffd5b8135610504816106b8565b5f82518060208501845e5f920191825250919050565b5f60208284031215610831575f5ffd5b81518015158114610504575f5ffdfea164736f6c634300081b000a",
  "linkReferences": {},
  "deployedLinkReferences": {}
}