{
  "_format": "hh-sol-artifact-1",
  "contractName": "PubkeyTest",
  "sourceName": "contracts/test/Pubkey.sol",
  "abi": [
    {
      "inputs": [
        {
          "internalType": "bytes32[2]",
          "name": "pubkey",
          "type": "bytes32[2]"
        }
      ],
      "name": "testConsAddress",
      "outputs": [
        {
          "internalType": "address",
          "name": "",
          "type": "address"
        }
      ],
      "stateMutability": "pure",
      "type": "function"
    },
    {
      "inputs": [
        {
          "internalType": "bytes32[2]",
          "name": "pubkey",
          "type": "bytes32[2]"
        }
      ],
      "name": "testEthAddress",
      "outputs": [
        {
          "internalType": "address",
          "name": "",
          "type": "address"
        }
      ],
      "stateMutability": "pure",
      "type": "function"
    }
  ],
  "bytecode": "0x6080604052348015600e575f5ffd5b506102628061001c5f395ff3fe608060405234801561000f575f5ffd5b5060043610610034575f3560e01c8063569e5c5014610038578063a2f06a3714610074575b5f5ffd5b61004b6100463660046101f6565b610087565b60405173ffffffffffffffffffffffffffffffffffffffff909116815260200160405180910390f35b61004b6100823660046101f6565b610097565b5f610091826100a1565b92915050565b5f610091826101c6565b5f806020830135600116156100ba57600360f81b6100c0565b600160f91b5b6040517fff0000000000000000000000000000000000000000000000000000000000000082166020820152843560218201529091505f9060029060410160408051601f19818403018152908290526101179161021b565b602060405180830381855afa158015610132573d5f5f3e3d5ffd5b5050506040513d601f19601f820116820180604052508101906101559190610231565b905060038160405160200161016c91815260200190565b60408051601f19818403018152908290526101869161021b565b602060405180830381855afa1580156101a1573d5f5f3e3d5ffd5b50506040515173ffffffffffffffffffffffffffffffffffffffff1695945050505050565b5f816040516020016101d89190610248565b60408051601f19818403018152919052805160209091012092915050565b5f60408284031215610206575f5ffd5b82604083011115610215575f5ffd5b50919050565b5f82518060208501845e5f920191825250919050565b5f60208284031215610241575f5ffd5b5051919050565b604082823760400191905056fea164736f6c634300081b000a",
  "linkReferences": {},
  "deployedLinkReferences": {}
}