{
  "_format": "hh-sol-artifact-1",
  "contractName": "GoatToken",
  "sourceName": "contracts/goat/GoatToken.sol",
  "abi": [
    {
      "inputs": [],
      "stateMutability": "nonpayable",
      "type": "constructor"
    },
    {
      "inputs": [],
      "name": "ECDSAInvalidSignature",
      "type": "error"
    },
    {
      "inputs": [
        {
          "internalType": "uint256",
          "name": "length",
          "type": "uint256"
        }
      ],
      "name": "ECDSAInvalidSignatureLength",
      "type": "error"
    },
    {
      "inputs": [
        {
          "internalType": "bytes32",
          "name": "s",
          "type": "bytes32"
        }
      ],
      "name": "ECDSAInvalidSignatureS",
      "type": "error"
    },
    {
      "inputs": [
        {
          "internalType": "address",
          "name": "spender",
          "type": "address"
        },
        {
          "internalType": "uint256",
          "name": "allowance",
          "type": "uint256"
        },
        {
          "internalType": "uint256",
          "name": "needed",
          "type": "uint256"
        }
      ],
      "name": "ERC20InsufficientAllowance",
      "type": "error"
    },
    {
      "inputs": [
        {
          "internalType": "address",
          "name": "sender",
          "type": "address"
        },
        {
          "internalType": "uint256",
          "name": "balance",
          "type": "uint256"
        },
        {
          "internalType": "uint256",
          "name": "needed",
          "type": "uint256"
        }
      ],
      "name": "ERC20InsufficientBalance",
      "type": "error"
    },
    {
      "inputs": [
        {
          "internalType": "address",
          "name": "approver",
          "type": "address"
        }
      ],
      "name": "ERC20InvalidApprover",
      "type": "error"
    },
    {
      "inputs": [
        {
          "internalType": "address",
          "name": "receiver",
          "type": "address"
        }
      ],
      "name": "ERC20InvalidReceiver",
      "type": "error"
    },
    {
      "inputs": [
        {
          "internalType": "address",
          "name": "sender",
          "type": "address"
        }
      ],
      "name": "ERC20InvalidSender",
      "type": "error"
    },
    {
      "inputs": [
        {
          "internalType": "address",
          "name": "spender",
          "type": "address"
        }
      ],
      "name": "ERC20InvalidSpender",
      "type": "error"
    },
    {
      "inputs": [
        {
          "internalType": "uint256",
          "name": "deadline",
          "type": "uint256"
        }
      ],
      "name": "ERC2612ExpiredSignature",
      "type": "error"
    },
    {
      "inputs": [
        {
          "internalType": "address",
          "name": "signer",
          "type": "address"
        },
        {
          "internalType": "address",
          "name": "owner",
          "type": "address"
        }
      ],
      "name": "ERC2612InvalidSigner",
      "type": "error"
    },
    {
      "inputs": [
        {
          "internalType": "address",
          "name": "account",
          "type": "address"
        },
        {
          "internalType": "uint256",
          "name": "currentNonce",
          "type": "uint256"
        }
      ],
      "name": "InvalidAccountNonce",
      "type": "error"
    },
    {
      "inputs": [],
      "name": "InvalidShortString",
      "type": "error"
    },
    {
      "inputs": [
        {
          "internalType": "address",
          "name": "owner",
          "type": "address"
        }
      ],
      "name": "OwnableInvalidOwner",
      "type": "error"
    },
    {
      "inputs": [
        {
          "internalType": "address",
          "name": "account",
          "type": "address"
        }
      ],
      "name": "OwnableUnauthorizedAccount",
      "type": "error"
    },
    {
      "inputs": [
        {
          "internalType": "string",
          "name": "str",
          "type": "string"
        }
      ],
      "name": "StringTooLong",
      "type": "error"
    },
    {
      "anonymous": false,
      "inputs": [
        {
          "indexed": true,
          "internalType": "address",
          "name": "owner",
          "type": "address"
        },
        {
          "indexed": true,
          "internalType": "address",
          "name": "spender",
          "type": "address"
        },
        {
          "indexed": false,
          "internalType": "uint256",
          "name": "value",
          "type": "uint256"
        }
      ],
      "name": "Approval",
      "type": "event"
    },
    {
      "anonymous": false,
      "inputs": [],
      "name": "EIP712DomainChanged",
      "type": "event"
    },
    {
      "anonymous": false,
      "inputs": [
        {
          "indexed": true,
          "internalType": "address",
          "name": "previousOwner",
          "type": "address"
        },
        {
          "indexed": true,
          "internalType": "address",
          "name": "newOwner",
          "type": "address"
        }
      ],
      "name": "OwnershipTransferred",
      "type": "event"
    },
    {
      "anonymous": false,
      "inputs": [
        {
          "indexed": true,
          "internalType": "address",
          "name": "from",
          "type": "address"
        },
        {
          "indexed": true,
          "internalType": "address",
          "name": "to",
          "type": "address"
        },
        {
          "indexed": false,
          "internalType": "uint256",
          "name": "value",
          "type": "uint256"
        }
      ],
      "name": "Transfer",
      "type": "event"
    },
    {
      "inputs": [],
      "name": "DOMAIN_SEPARATOR",
      "outputs": [
        {
          "internalType": "bytes32",
          "name": "",
          "type": "bytes32"
        }
      ],
      "stateMutability": "view",
      "type": "function"
    },
    {
      "inputs": [
        {
          "internalType": "address",
          "name": "owner",
          "type": "address"
        },
        {
          "internalType": "address",
          "name": "spender",
          "type": "address"
        }
      ],
      "name": "allowance",
      "outputs": [
        {
          "internalType": "uint256",
          "name": "",
          "type": "uint256"
        }
      ],
      "stateMutability": "view",
      "type": "function"
    },
    {
      "inputs": [
        {
          "internalType": "address",
          "name": "spender",
          "type": "address"
        },
        {
          "internalType": "uint256",
          "name": "value",
          "type": "uint256"
        }
      ],
      "name": "approve",
      "outputs": [
        {
          "internalType": "bool",
          "name": "",
          "type": "bool"
        }
      ],
      "stateMutability": "nonpayable",
      "type": "function"
    },
    {
      "inputs": [
        {
          "internalType": "address",
          "name": "account",
          "type": "address"
        }
      ],
      "name": "balanceOf",
      "outputs": [
        {
          "internalType": "uint256",
          "name": "",
          "type": "uint256"
        }
      ],
      "stateMutability": "view",
      "type": "function"
    },
    {
      "inputs": [
        {
          "internalType": "uint256",
          "name": "value",
          "type": "uint256"
        }
      ],
      "name": "burn",
      "outputs": [],
      "stateMutability": "nonpayable",
      "type": "function"
    },
    {
      "inputs": [
        {
          "internalType": "address",
          "name": "account",
          "type": "address"
        },
        {
          "internalType": "uint256",
          "name": "value",
          "type": "uint256"
        }
      ],
      "name": "burnFrom",
      "outputs": [],
      "stateMutability": "nonpayable",
      "type": "function"
    },
    {
      "inputs": [],
      "name": "decimals",
      "outputs": [
        {
          "internalType": "uint8",
          "name": "",
          "type": "uint8"
        }
      ],
      "stateMutability": "view",
      "type": "function"
    },
    {
      "inputs": [],
      "name": "eip712Domain",
      "outputs": [
        {
          "internalType": "bytes1",
          "name": "fields",
          "type": "bytes1"
        },
        {
          "internalType": "string",
          "name": "name",
          "type": "string"
        },
        {
          "internalType": "string",
          "name": "version",
          "type": "string"
        },
        {
          "internalType": "uint256",
          "name": "chainId",
          "type": "uint256"
        },
        {
          "internalType": "address",
          "name": "verifyingContract",
          "type": "address"
        },
        {
          "internalType": "bytes32",
          "name": "salt",
          "type": "bytes32"
        },
        {
          "internalType": "uint256[]",
          "name": "extensions",
          "type": "uint256[]"
        }
      ],
      "stateMutability": "view",
      "type": "function"
    },
    {
      "inputs": [],
      "name": "name",
      "outputs": [
        {
          "internalType": "string",
          "name": "",
          "type": "string"
        }
      ],
      "stateMutability": "view",
      "type": "function"
    },
    {
      "inputs": [
        {
          "internalType": "address",
          "name": "owner",
          "type": "address"
        }
      ],
      "name": "nonces",
      "outputs": [
        {
          "internalType": "uint256",
          "name": "",
          "type": "uint256"
        }
      ],
      "stateMutability": "view",
      "type": "function"
    },
    {
      "inputs": [],
      "name": "owner",
      "outputs": [
        {
          "internalType": "address",
          "name": "",
          "type": "address"
        }
      ],
      "stateMutability": "view",
      "type": "function"
    },
    {
      "inputs": [
        {
          "internalType": "address",
          "name": "owner",
          "type": "address"
        },
        {
          "internalType": "address",
          "name": "spender",
          "type": "address"
        },
        {
          "internalType": "uint256",
          "name": "value",
          "type": "uint256"
        },
        {
          "internalType": "uint256",
          "name": "deadline",
          "type": "uint256"
        },
        {
          "internalType": "uint8",
          "name": "v",
          "type": "uint8"
        },
        {
          "internalType": "bytes32",
          "name": "r",
          "type": "bytes32"
        },
        {
          "internalType": "bytes32",
          "name": "s",
          "type": "bytes32"
        }
      ],
      "name": "permit",
      "outputs": [],
      "stateMutability": "nonpayable",
      "type": "function"
    },
    {
      "inputs": [],
      "name": "renounceOwnership",
      "outputs": [],
      "stateMutability": "nonpayable",
      "type": "function"
    },
    {
      "inputs": [],
      "name": "symbol",
      "outputs": [
        {
          "internalType": "string",
          "name": "",
          "type": "string"
        }
      ],
      "stateMutability": "view",
      "type": "function"
    },
    {
      "inputs": [],
      "name": "totalSupply",
      "outputs": [
        {
          "internalType": "uint256",
          "name": "",
          "type": "uint256"
        }
      ],
      "stateMutability": "view",
      "type": "function"
    },
    {
      "inputs": [
        {
          "internalType": "address",
          "name": "to",
          "type": "address"
        },
        {
          "internalType": "uint256",
          "name": "value",
          "type": "uint256"
        }
      ],
      "name": "transfer",
      "outputs": [
        {
          "internalType": "bool",
          "name": "",
          "type": "bool"
        }
      ],
      "stateMutability": "nonpayable",
      "type": "function"
    },
    {
      "inputs": [
        {
          "internalType": "address",
          "name": "from",
          "type": "address"
        },
        {
          "internalType": "address",
          "name": "to",
          "type": "address"
        },
        {
          "internalType": "uint256",
          "name": "value",
          "type": "uint256"
        }
      ],
      "name": "transferFrom",
      "outputs": [
        {
          "internalType": "bool",
          "name": "",
          "type": "bool"
        }
      ],
      "stateMutability": "nonpayable",
      "type": "function"
    },
    {
      "inputs": [
        {
          "internalType": "address",
          "name": "newOwner",
          "type": "address"
        }
      ],
      "name": "transferOwnership",
      "outputs": [],
      "stateMutability": "nonpayable",
      "type": "function"
    }
  ],
  "bytecode": "0x610160604052348015610010575f80fd5b50336040518060400160405280600481526020016311d3d05560e21b81525080604051806040016040528060018152602001603160f81b8152506040518060400160405280600481526020016311d3d05560e21b8152506040518060400160405280600481526020016311d3d05560e21b815250816003908161009391906102ea565b5060046100a082826102ea565b506100b091508390506005610192565b610120526100bf816006610192565b61014052815160208084019190912060e052815190820120610100524660a05261014b60e05161010051604080517f8b73c3c69bb8fe3d512ecc4cf759cc79239f7b179b0ffacaa9a75d522b39400f60208201529081019290925260608201524660808201523060a08201525f9060c00160405160208183030381529060405280519060200120905090565b60805250503060c052506001600160a01b03811661018357604051631e4fbdf760e01b81525f60048201526024015b60405180910390fd5b61018c816101c4565b506103fc565b5f6020835110156101ad576101a683610215565b90506101be565b816101b884826102ea565b5060ff90505b92915050565b600880546001600160a01b038381166001600160a01b0319831681179093556040519116919082907f8be0079c531659141344cd1fd0a4f28419497f9722a3daafe3b4186f6b6457e0905f90a35050565b5f80829050601f8151111561023f578260405163305a27a960e01b815260040161017a91906103a4565b805161024a826103d9565b179392505050565b634e487b7160e01b5f52604160045260245ffd5b600181811c9082168061027a57607f821691505b60208210810361029857634e487b7160e01b5f52602260045260245ffd5b50919050565b601f8211156102e557805f5260205f20601f840160051c810160208510156102c35750805b601f840160051c820191505b818110156102e2575f81556001016102cf565b50505b505050565b81516001600160401b0381111561030357610303610252565b610317816103118454610266565b8461029e565b6020601f821160018114610349575f83156103325750848201515b5f19600385901b1c1916600184901b1784556102e2565b5f84815260208120601f198516915b828110156103785787850151825560209485019460019092019101610358565b508482101561039557868401515f19600387901b60f8161c191681555b50505050600190811b01905550565b602081525f82518060208401528060208501604085015e5f604082850101526040601f19601f83011684010191505092915050565b80516020808301519190811015610298575f1960209190910360031b1b16919050565b60805160a05160c05160e05161010051610120516101405161108161044d5f395f6108de01525f6108b101525f61079001525f61076801525f6106c301525f6106ed01525f61071701526110815ff3fe608060405234801561000f575f80fd5b506004361061012f575f3560e01c806379cc6790116100ad57806395d89b411161007d578063d505accf11610063578063d505accf1461026c578063dd62ed3e1461027f578063f2fde38b146102b7575f80fd5b806395d89b4114610251578063a9059cbb14610259575f80fd5b806379cc6790146101f55780637ecebe001461020857806384b0196e1461021b5780638da5cb5b14610236575f80fd5b8063313ce5671161010257806342966c68116100e857806342966c68146101b057806370a08231146101c5578063715018a6146101ed575f80fd5b8063313ce567146101995780633644e515146101a8575f80fd5b806306fdde0314610133578063095ea7b31461015157806318160ddd1461017457806323b872dd14610186575b5f80fd5b61013b6102ca565b6040516101489190610e0f565b60405180910390f35b61016461015f366004610e43565b61035a565b6040519015158152602001610148565b6002545b604051908152602001610148565b610164610194366004610e6b565b610373565b60405160128152602001610148565b610178610396565b6101c36101be366004610ea5565b6103a4565b005b6101786101d3366004610ebc565b6001600160a01b03165f9081526020819052604090205490565b6101c36103b1565b6101c3610203366004610e43565b6103c4565b610178610216366004610ebc565b6103dd565b6102236103fa565b6040516101489796959493929190610ed5565b6008546040516001600160a01b039091168152602001610148565b61013b61043c565b610164610267366004610e43565b61044b565b6101c361027a366004610f6b565b610458565b61017861028d366004610fd8565b6001600160a01b039182165f90815260016020908152604080832093909416825291909152205490565b6101c36102c5366004610ebc565b610593565b6060600380546102d990611009565b80601f016020809104026020016040519081016040528092919081815260200182805461030590611009565b80156103505780601f1061032757610100808354040283529160200191610350565b820191905f5260205f20905b81548152906001019060200180831161033357829003601f168201915b5050505050905090565b5f336103678185856105cd565b60019150505b92915050565b5f336103808582856105df565b61038b85858561065a565b506001949350505050565b5f61039f6106b7565b905090565b6103ae33826107e0565b50565b6103b9610814565b6103c25f610841565b565b6103cf8233836105df565b6103d982826107e0565b5050565b6001600160a01b0381165f9081526007602052604081205461036d565b5f6060805f805f606061040b6108aa565b6104136108d7565b604080515f80825260208201909252600f60f81b9b939a50919850469750309650945092509050565b6060600480546102d990611009565b5f3361036781858561065a565b834211156104815760405163313c898160e11b8152600481018590526024015b60405180910390fd5b5f7f6e71edae12b1b97f4d1f60370fef10105fa2faae0126114a169c64845d6126c98888886104cc8c6001600160a01b03165f90815260076020526040902080546001810190915590565b6040805160208101969096526001600160a01b0394851690860152929091166060840152608083015260a082015260c0810186905260e0016040516020818303038152906040528051906020012090505f61052682610904565b90505f61053582878787610930565b9050896001600160a01b0316816001600160a01b03161461057c576040516325c0072360e11b81526001600160a01b0380831660048301528b166024820152604401610478565b6105878a8a8a6105cd565b50505050505050505050565b61059b610814565b6001600160a01b0381166105c457604051631e4fbdf760e01b81525f6004820152602401610478565b6103ae81610841565b6105da838383600161095c565b505050565b6001600160a01b038381165f908152600160209081526040808320938616835292905220545f198114610654578181101561064657604051637dc7a0d960e11b81526001600160a01b03841660048201526024810182905260448101839052606401610478565b61065484848484035f61095c565b50505050565b6001600160a01b03831661068357604051634b637e8f60e11b81525f6004820152602401610478565b6001600160a01b0382166106ac5760405163ec442f0560e01b81525f6004820152602401610478565b6105da838383610a2e565b5f306001600160a01b037f00000000000000000000000000000000000000000000000000000000000000001614801561070f57507f000000000000000000000000000000000000000000000000000000000000000046145b1561073957507f000000000000000000000000000000000000000000000000000000000000000090565b61039f604080517f8b73c3c69bb8fe3d512ecc4cf759cc79239f7b179b0ffacaa9a75d522b39400f60208201527f0000000000000000000000000000000000000000000000000000000000000000918101919091527f000000000000000000000000000000000000000000000000000000000000000060608201524660808201523060a08201525f9060c00160405160208183030381529060405280519060200120905090565b6001600160a01b03821661080957604051634b637e8f60e11b81525f6004820152602401610478565b6103d9825f83610a2e565b6008546001600160a01b031633146103c25760405163118cdaa760e01b8152336004820152602401610478565b600880546001600160a01b038381167fffffffffffffffffffffffff0000000000000000000000000000000000000000831681179093556040519116919082907f8be0079c531659141344cd1fd0a4f28419497f9722a3daafe3b4186f6b6457e0905f90a35050565b606061039f7f00000000000000000000000000000000000000000000000000000000000000006005610b54565b606061039f7f00000000000000000000000000000000000000000000000000000000000000006006610b54565b5f61036d6109106106b7565b8360405161190160f01b8152600281019290925260228201526042902090565b5f805f8061094088888888610bfd565b9250925092506109508282610cc5565b50909695505050505050565b6001600160a01b0384166109855760405163e602df0560e01b81525f6004820152602401610478565b6001600160a01b0383166109ae57604051634a1406b160e11b81525f6004820152602401610478565b6001600160a01b038085165f908152600160209081526040808320938716835292905220829055801561065457826001600160a01b0316846001600160a01b03167f8c5be1e5ebec7d5bd14f71427d1e84f3dd0314c0f7b2291e5b200ac8c7c3b92584604051610a2091815260200190565b60405180910390a350505050565b6001600160a01b038316610a58578060025f828254610a4d9190611041565b90915550610ac89050565b6001600160a01b0383165f9081526020819052604090205481811015610aaa5760405163391434e360e21b81526001600160a01b03851660048201526024810182905260448101839052606401610478565b6001600160a01b0384165f9081526020819052604090209082900390555b6001600160a01b038216610ae457600280548290039055610b02565b6001600160a01b0382165f9081526020819052604090208054820190555b816001600160a01b0316836001600160a01b03167fddf252ad1be2c89b69c2b068fc378daa952ba7f163c4a11628f55a4df523b3ef83604051610b4791815260200190565b60405180910390a3505050565b606060ff8314610b6e57610b6783610d7d565b905061036d565b818054610b7a90611009565b80601f0160208091040260200160405190810160405280929190818152602001828054610ba690611009565b8015610bf15780601f10610bc857610100808354040283529160200191610bf1565b820191905f5260205f20905b815481529060010190602001808311610bd457829003601f168201915b5050505050905061036d565b5f80807f7fffffffffffffffffffffffffffffff5d576e7357a4501ddfe92f46681b20a0841115610c3657505f91506003905082610cbb565b604080515f808252602082018084528a905260ff891692820192909252606081018790526080810186905260019060a0016020604051602081039080840390855afa158015610c87573d5f803e3d5ffd5b5050604051601f1901519150506001600160a01b038116610cb257505f925060019150829050610cbb565b92505f91508190505b9450945094915050565b5f826003811115610cd857610cd8611060565b03610ce1575050565b6001826003811115610cf557610cf5611060565b03610d135760405163f645eedf60e01b815260040160405180910390fd5b6002826003811115610d2757610d27611060565b03610d485760405163fce698f760e01b815260048101829052602401610478565b6003826003811115610d5c57610d5c611060565b036103d9576040516335e2f38360e21b815260048101829052602401610478565b60605f610d8983610dba565b6040805160208082528183019092529192505f91906020820181803683375050509182525060208101929092525090565b5f60ff8216601f81111561036d57604051632cd44ac360e21b815260040160405180910390fd5b5f81518084528060208401602086015e5f602082860101526020601f19601f83011685010191505092915050565b602081525f610e216020830184610de1565b9392505050565b80356001600160a01b0381168114610e3e575f80fd5b919050565b5f8060408385031215610e54575f80fd5b610e5d83610e28565b946020939093013593505050565b5f805f60608486031215610e7d575f80fd5b610e8684610e28565b9250610e9460208501610e28565b929592945050506040919091013590565b5f60208284031215610eb5575f80fd5b5035919050565b5f60208284031215610ecc575f80fd5b610e2182610e28565b60ff60f81b8816815260e060208201525f610ef360e0830189610de1565b8281036040840152610f058189610de1565b606084018890526001600160a01b038716608085015260a0840186905283810360c0850152845180825260208087019350909101905f5b81811015610f5a578351835260209384019390920191600101610f3c565b50909b9a5050505050505050505050565b5f805f805f805f60e0888a031215610f81575f80fd5b610f8a88610e28565b9650610f9860208901610e28565b95506040880135945060608801359350608088013560ff81168114610fbb575f80fd5b9699959850939692959460a0840135945060c09093013592915050565b5f8060408385031215610fe9575f80fd5b610ff283610e28565b915061100060208401610e28565b90509250929050565b600181811c9082168061101d57607f821691505b60208210810361103b57634e487b7160e01b5f52602260045260245ffd5b50919050565b8082018082111561036d57634e487b7160e01b5f52601160045260245ffd5b634e487b7160e01b5f52602160045260245ffdfea164736f6c634300081a000a",
  "linkReferences": {},
  "deployedLinkReferences": {}
}