{
  "_format": "hh-sol-artifact-1",
  "contractName": "GoatToken",
  "sourceName": "contracts/goat/GoatToken.sol",
  "abi": [
    {
      "inputs": [
        {
          "internalType": "address",
          "name": "owner",
          "type": "address"
        }
      ],
      "stateMutability": "nonpayable",
      "type": "constructor"
    },
    {
      "inputs": [],
      "name": "CheckpointUnorderedInsertion",
      "type": "error"
    },
    {
      "inputs": [],
      "name": "ECDSAInvalidSignature",
      "type": "error"
    },
    {
      "inputs": [
        {
          "internalType": "uint256",
          "name": "length",
          "type": "uint256"
        }
      ],
      "name": "ECDSAInvalidSignatureLength",
      "type": "error"
    },
    {
      "inputs": [
        {
          "internalType": "bytes32",
          "name": "s",
          "type": "bytes32"
        }
      ],
      "name": "ECDSAInvalidSignatureS",
      "type": "error"
    },
    {
      "inputs": [
        {
          "internalType": "uint256",
          "name": "increasedSupply",
          "type": "uint256"
        },
        {
          "internalType": "uint256",
          "name": "cap",
          "type": "uint256"
        }
      ],
      "name": "ERC20ExceededSafeSupply",
      "type": "error"
    },
    {
      "inputs": [
        {
          "internalType": "address",
          "name": "spender",
          "type": "address"
        },
        {
          "internalType": "uint256",
          "name": "allowance",
          "type": "uint256"
        },
        {
          "internalType": "uint256",
          "name": "needed",
          "type": "uint256"
        }
      ],
      "name": "ERC20InsufficientAllowance",
      "type": "error"
    },
    {
      "inputs": [
        {
          "internalType": "address",
          "name": "sender",
          "type": "address"
        },
        {
          "internalType": "uint256",
          "name": "balance",
          "type": "uint256"
        },
        {
          "internalType": "uint256",
          "name": "needed",
          "type": "uint256"
        }
      ],
      "name": "ERC20InsufficientBalance",
      "type": "error"
    },
    {
      "inputs": [
        {
          "internalType": "address",
          "name": "approver",
          "type": "address"
        }
      ],
      "name": "ERC20InvalidApprover",
      "type": "error"
    },
    {
      "inputs": [
        {
          "internalType": "address",
          "name": "receiver",
          "type": "address"
        }
      ],
      "name": "ERC20InvalidReceiver",
      "type": "error"
    },
    {
      "inputs": [
        {
          "internalType": "address",
          "name": "sender",
          "type": "address"
        }
      ],
      "name": "ERC20InvalidSender",
      "type": "error"
    },
    {
      "inputs": [
        {
          "internalType": "address",
          "name": "spender",
          "type": "address"
        }
      ],
      "name": "ERC20InvalidSpender",
      "type": "error"
    },
    {
      "inputs": [
        {
          "internalType": "uint256",
          "name": "deadline",
          "type": "uint256"
        }
      ],
      "name": "ERC2612ExpiredSignature",
      "type": "error"
    },
    {
      "inputs": [
        {
          "internalType": "address",
          "name": "signer",
          "type": "address"
        },
        {
          "internalType": "address",
          "name": "owner",
          "type": "address"
        }
      ],
      "name": "ERC2612InvalidSigner",
      "type": "error"
    },
    {
      "inputs": [
        {
          "internalType": "uint256",
          "name": "timepoint",
          "type": "uint256"
        },
        {
          "internalType": "uint48",
          "name": "clock",
          "type": "uint48"
        }
      ],
      "name": "ERC5805FutureLookup",
      "type": "error"
    },
    {
      "inputs": [],
      "name": "ERC6372InconsistentClock",
      "type": "error"
    },
    {
      "inputs": [
        {
          "internalType": "address",
          "name": "account",
          "type": "address"
        },
        {
          "internalType": "uint256",
          "name": "currentNonce",
          "type": "uint256"
        }
      ],
      "name": "InvalidAccountNonce",
      "type": "error"
    },
    {
      "inputs": [],
      "name": "InvalidShortString",
      "type": "error"
    },
    {
      "inputs": [
        {
          "internalType": "uint8",
          "name": "bits",
          "type": "uint8"
        },
        {
          "internalType": "uint256",
          "name": "value",
          "type": "uint256"
        }
      ],
      "name": "SafeCastOverflowedUintDowncast",
      "type": "error"
    },
    {
      "inputs": [
        {
          "internalType": "string",
          "name": "str",
          "type": "string"
        }
      ],
      "name": "StringTooLong",
      "type": "error"
    },
    {
      "inputs": [
        {
          "internalType": "uint256",
          "name": "expiry",
          "type": "uint256"
        }
      ],
      "name": "VotesExpiredSignature",
      "type": "error"
    },
    {
      "anonymous": false,
      "inputs": [
        {
          "indexed": true,
          "internalType": "address",
          "name": "owner",
          "type": "address"
        },
        {
          "indexed": true,
          "internalType": "address",
          "name": "spender",
          "type": "address"
        },
        {
          "indexed": false,
          "internalType": "uint256",
          "name": "value",
          "type": "uint256"
        }
      ],
      "name": "Approval",
      "type": "event"
    },
    {
      "anonymous": false,
      "inputs": [
        {
          "indexed": true,
          "internalType": "address",
          "name": "delegator",
          "type": "address"
        },
        {
          "indexed": true,
          "internalType": "address",
          "name": "fromDelegate",
          "type": "address"
        },
        {
          "indexed": true,
          "internalType": "address",
          "name": "toDelegate",
          "type": "address"
        }
      ],
      "name": "DelegateChanged",
      "type": "event"
    },
    {
      "anonymous": false,
      "inputs": [
        {
          "indexed": true,
          "internalType": "address",
          "name": "delegate",
          "type": "address"
        },
        {
          "indexed": false,
          "internalType": "uint256",
          "name": "previousVotes",
          "type": "uint256"
        },
        {
          "indexed": false,
          "internalType": "uint256",
          "name": "newVotes",
          "type": "uint256"
        }
      ],
      "name": "DelegateVotesChanged",
      "type": "event"
    },
    {
      "anonymous": false,
      "inputs": [],
      "name": "EIP712DomainChanged",
      "type": "event"
    },
    {
      "anonymous": false,
      "inputs": [
        {
          "indexed": true,
          "internalType": "address",
          "name": "from",
          "type": "address"
        },
        {
          "indexed": true,
          "internalType": "address",
          "name": "to",
          "type": "address"
        },
        {
          "indexed": false,
          "internalType": "uint256",
          "name": "value",
          "type": "uint256"
        }
      ],
      "name": "Transfer",
      "type": "event"
    },
    {
      "inputs": [],
      "name": "CLOCK_MODE",
      "outputs": [
        {
          "internalType": "string",
          "name": "",
          "type": "string"
        }
      ],
      "stateMutability": "view",
      "type": "function"
    },
    {
      "inputs": [],
      "name": "DOMAIN_SEPARATOR",
      "outputs": [
        {
          "internalType": "bytes32",
          "name": "",
          "type": "bytes32"
        }
      ],
      "stateMutability": "view",
      "type": "function"
    },
    {
      "inputs": [
        {
          "internalType": "address",
          "name": "owner",
          "type": "address"
        },
        {
          "internalType": "address",
          "name": "spender",
          "type": "address"
        }
      ],
      "name": "allowance",
      "outputs": [
        {
          "internalType": "uint256",
          "name": "",
          "type": "uint256"
        }
      ],
      "stateMutability": "view",
      "type": "function"
    },
    {
      "inputs": [
        {
          "internalType": "address",
          "name": "spender",
          "type": "address"
        },
        {
          "internalType": "uint256",
          "name": "value",
          "type": "uint256"
        }
      ],
      "name": "approve",
      "outputs": [
        {
          "internalType": "bool",
          "name": "",
          "type": "bool"
        }
      ],
      "stateMutability": "nonpayable",
      "type": "function"
    },
    {
      "inputs": [
        {
          "internalType": "address",
          "name": "account",
          "type": "address"
        }
      ],
      "name": "balanceOf",
      "outputs": [
        {
          "internalType": "uint256",
          "name": "",
          "type": "uint256"
        }
      ],
      "stateMutability": "view",
      "type": "function"
    },
    {
      "inputs": [
        {
          "internalType": "uint256",
          "name": "value",
          "type": "uint256"
        }
      ],
      "name": "burn",
      "outputs": [],
      "stateMutability": "nonpayable",
      "type": "function"
    },
    {
      "inputs": [
        {
          "internalType": "address",
          "name": "account",
          "type": "address"
        },
        {
          "internalType": "uint256",
          "name": "value",
          "type": "uint256"
        }
      ],
      "name": "burnFrom",
      "outputs": [],
      "stateMutability": "nonpayable",
      "type": "function"
    },
    {
      "inputs": [
        {
          "internalType": "address",
          "name": "account",
          "type": "address"
        },
        {
          "internalType": "uint32",
          "name": "pos",
          "type": "uint32"
        }
      ],
      "name": "checkpoints",
      "outputs": [
        {
          "components": [
            {
              "internalType": "uint48",
              "name": "_key",
              "type": "uint48"
            },
            {
              "internalType": "uint208",
              "name": "_value",
              "type": "uint208"
            }
          ],
          "internalType": "struct Checkpoints.Checkpoint208",
          "name": "",
          "type": "tuple"
        }
      ],
      "stateMutability": "view",
      "type": "function"
    },
    {
      "inputs": [],
      "name": "clock",
      "outputs": [
        {
          "internalType": "uint48",
          "name": "",
          "type": "uint48"
        }
      ],
      "stateMutability": "view",
      "type": "function"
    },
    {
      "inputs": [],
      "name": "decimals",
      "outputs": [
        {
          "internalType": "uint8",
          "name": "",
          "type": "uint8"
        }
      ],
      "stateMutability": "view",
      "type": "function"
    },
    {
      "inputs": [
        {
          "internalType": "address",
          "name": "delegatee",
          "type": "address"
        }
      ],
      "name": "delegate",
      "outputs": [],
      "stateMutability": "nonpayable",
      "type": "function"
    },
    {
      "inputs": [
        {
          "internalType": "address",
          "name": "delegatee",
          "type": "address"
        },
        {
          "internalType": "uint256",
          "name": "nonce",
          "type": "uint256"
        },
        {
          "internalType": "uint256",
          "name": "expiry",
          "type": "uint256"
        },
        {
          "internalType": "uint8",
          "name": "v",
          "type": "uint8"
        },
        {
          "internalType": "bytes32",
          "name": "r",
          "type": "bytes32"
        },
        {
          "internalType": "bytes32",
          "name": "s",
          "type": "bytes32"
        }
      ],
      "name": "delegateBySig",
      "outputs": [],
      "stateMutability": "nonpayable",
      "type": "function"
    },
    {
      "inputs": [
        {
          "internalType": "address",
          "name": "account",
          "type": "address"
        }
      ],
      "name": "delegates",
      "outputs": [
        {
          "internalType": "address",
          "name": "",
          "type": "address"
        }
      ],
      "stateMutability": "view",
      "type": "function"
    },
    {
      "inputs": [],
      "name": "eip712Domain",
      "outputs": [
        {
          "internalType": "bytes1",
          "name": "fields",
          "type": "bytes1"
        },
        {
          "internalType": "string",
          "name": "name",
          "type": "string"
        },
        {
          "internalType": "string",
          "name": "version",
          "type": "string"
        },
        {
          "internalType": "uint256",
          "name": "chainId",
          "type": "uint256"
        },
        {
          "internalType": "address",
          "name": "verifyingContract",
          "type": "address"
        },
        {
          "internalType": "bytes32",
          "name": "salt",
          "type": "bytes32"
        },
        {
          "internalType": "uint256[]",
          "name": "extensions",
          "type": "uint256[]"
        }
      ],
      "stateMutability": "view",
      "type": "function"
    },
    {
      "inputs": [
        {
          "internalType": "uint256",
          "name": "timepoint",
          "type": "uint256"
        }
      ],
      "name": "getPastTotalSupply",
      "outputs": [
        {
          "internalType": "uint256",
          "name": "",
          "type": "uint256"
        }
      ],
      "stateMutability": "view",
      "type": "function"
    },
    {
      "inputs": [
        {
          "internalType": "address",
          "name": "account",
          "type": "address"
        },
        {
          "internalType": "uint256",
          "name": "timepoint",
          "type": "uint256"
        }
      ],
      "name": "getPastVotes",
      "outputs": [
        {
          "internalType": "uint256",
          "name": "",
          "type": "uint256"
        }
      ],
      "stateMutability": "view",
      "type": "function"
    },
    {
      "inputs": [
        {
          "internalType": "address",
          "name": "account",
          "type": "address"
        }
      ],
      "name": "getVotes",
      "outputs": [
        {
          "internalType": "uint256",
          "name": "",
          "type": "uint256"
        }
      ],
      "stateMutability": "view",
      "type": "function"
    },
    {
      "inputs": [],
      "name": "name",
      "outputs": [
        {
          "internalType": "string",
          "name": "",
          "type": "string"
        }
      ],
      "stateMutability": "view",
      "type": "function"
    },
    {
      "inputs": [
        {
          "internalType": "address",
          "name": "owner",
          "type": "address"
        }
      ],
      "name": "nonces",
      "outputs": [
        {
          "internalType": "uint256",
          "name": "",
          "type": "uint256"
        }
      ],
      "stateMutability": "view",
      "type": "function"
    },
    {
      "inputs": [
        {
          "internalType": "address",
          "name": "account",
          "type": "address"
        }
      ],
      "name": "numCheckpoints",
      "outputs": [
        {
          "internalType": "uint32",
          "name": "",
          "type": "uint32"
        }
      ],
      "stateMutability": "view",
      "type": "function"
    },
    {
      "inputs": [
        {
          "internalType": "address",
          "name": "owner",
          "type": "address"
        },
        {
          "internalType": "address",
          "name": "spender",
          "type": "address"
        },
        {
          "internalType": "uint256",
          "name": "value",
          "type": "uint256"
        },
        {
          "internalType": "uint256",
          "name": "deadline",
          "type": "uint256"
        },
        {
          "internalType": "uint8",
          "name": "v",
          "type": "uint8"
        },
        {
          "internalType": "bytes32",
          "name": "r",
          "type": "bytes32"
        },
        {
          "internalType": "bytes32",
          "name": "s",
          "type": "bytes32"
        }
      ],
      "name": "permit",
      "outputs": [],
      "stateMutability": "nonpayable",
      "type": "function"
    },
    {
      "inputs": [],
      "name": "symbol",
      "outputs": [
        {
          "internalType": "string",
          "name": "",
          "type": "string"
        }
      ],
      "stateMutability": "view",
      "type": "function"
    },
    {
      "inputs": [],
      "name": "totalSupply",
      "outputs": [
        {
          "internalType": "uint256",
          "name": "",
          "type": "uint256"
        }
      ],
      "stateMutability": "view",
      "type": "function"
    },
    {
      "inputs": [
        {
          "internalType": "address",
          "name": "to",
          "type": "address"
        },
        {
          "internalType": "uint256",
          "name": "value",
          "type": "uint256"
        }
      ],
      "name": "transfer",
      "outputs": [
        {
          "internalType": "bool",
          "name": "",
          "type": "bool"
        }
      ],
      "stateMutability": "nonpayable",
      "type": "function"
    },
    {
      "inputs": [
        {
          "internalType": "address",
          "name": "from",
          "type": "address"
        },
        {
          "internalType": "address",
          "name": "to",
          "type": "address"
        },
        {
          "internalType": "uint256",
          "name": "value",
          "type": "uint256"
        }
      ],
      "name": "transferFrom",
      "outputs": [
        {
          "internalType": "bool",
          "name": "",
          "type": "bool"
        }
      ],
      "stateMutability": "nonpayable",
      "type": "function"
    }
  ],
  "bytecode": "0x610160604052348015610010575f5ffd5b5060405161295a38038061295a83398101604081905261002f91610857565b6040518060400160405280600481526020016311d3d05560e21b81525080604051806040016040528060018152602001603160f81b8152506040518060400160405280600481526020016311d3d05560e21b8152506040518060400160405280600481526020016311d3d05560e21b81525081600390816100b09190610914565b5060046100bd8282610914565b506100cd9150839050600561018e565b610120526100dc81600661018e565b61014052815160208084019190912060e052815190820120610100524660a05261016860e05161010051604080517f8b73c3c69bb8fe3d512ecc4cf759cc79239f7b179b0ffacaa9a75d522b39400f60208201529081019290925260608201524660808201523060a08201525f9060c00160405160208183030381529060405280519060200120905090565b60805250503060c05250610188816b033b2e3c9fd0803ce80000006101c0565b50610a9e565b5f6020835110156101a9576101a2836101fd565b90506101ba565b816101b48482610914565b5060ff90505b92915050565b6001600160a01b0382166101ee5760405163ec442f0560e01b81525f60048201526024015b60405180910390fd5b6101f95f838361023a565b5050565b5f5f829050601f81511115610227578260405163305a27a960e01b81526004016101e591906109ce565b805161023282610a03565b179392505050565b61024583838361024a565b505050565b6102558383836102b0565b6001600160a01b0383166102a5575f61026d60025490565b90506001600160d01b03808211156102a257604051630e58ae9360e11b815260048101839052602481018290526044016101e5565b50505b6102458383836103d6565b6001600160a01b0383166102da578060025f8282546102cf9190610a3a565b9091555061034a9050565b6001600160a01b0383165f908152602081905260409020548181101561032c5760405163391434e360e21b81526001600160a01b038516600482015260248101829052604481018390526064016101e5565b6001600160a01b0384165f9081526020819052604090209082900390555b6001600160a01b03821661036657600280548290039055610384565b6001600160a01b0382165f9081526020819052604090208054820190555b816001600160a01b0316836001600160a01b03167fddf252ad1be2c89b69c2b068fc378daa952ba7f163c4a11628f55a4df523b3ef836040516103c991815260200190565b60405180910390a3505050565b6001600160a01b03831661040457610401600a61095f61045e60201b176103fc84610470565b6104a7565b50505b6001600160a01b03821661042d5761042a600a61096a6104dc60201b176103fc84610470565b50505b6001600160a01b038381165f90815260086020526040808220548584168352912054610245929182169116836104e7565b5f6104698284610a4d565b9392505050565b5f6001600160d01b038211156104a3576040516306dfcc6560e41b815260d06004820152602481018390526044016101e5565b5090565b5f806104cf6104b4610637565b6104c76104c088610645565b868860201c565b87919061068c565b915091505b935093915050565b5f6104698284610a6c565b816001600160a01b0316836001600160a01b03161415801561050857505f81115b15610245576001600160a01b038316156105a0576001600160a01b0383165f9081526009602090815260408220829161054e91906104dc901b61096a176103fc86610470565b6001600160d01b031691506001600160d01b03169150846001600160a01b03165f51602061293a5f395f51905f528383604051610595929190918252602082015260400190565b60405180910390a250505b6001600160a01b03821615610245576001600160a01b0382165f908152600960209081526040822082916105e1919061045e901b61095f176103fc86610470565b6001600160d01b031691506001600160d01b03169150836001600160a01b03165f51602061293a5f395f51905f528383604051610628929190918252602082015260400190565b60405180910390a25050505050565b5f610640610699565b905090565b80545f9080156106845761066b8361065e600184610a8b565b5f91825260209091200190565b54660100000000000090046001600160d01b0316610469565b5f9392505050565b5f806104cf8585856106a3565b5f61064043610825565b82545f90819080156107c8575f6106bf8761065e600185610a8b565b60408051808201909152905465ffffffffffff80821680845266010000000000009092046001600160d01b03166020840152919250908716101561071657604051632520601d60e01b815260040160405180910390fd5b805165ffffffffffff80881691160361076557846107398861065e600186610a8b565b80546001600160d01b039290921666010000000000000265ffffffffffff9092169190911790556107b8565b6040805180820190915265ffffffffffff80881682526001600160d01b0380881660208085019182528b54600181018d555f8d815291909120945191519092166601000000000000029216919091179101555b6020015192508391506104d49050565b50506040805180820190915265ffffffffffff80851682526001600160d01b0380851660208085019182528854600181018a555f8a81529182209551925190931666010000000000000291909316179201919091559050816104d4565b5f65ffffffffffff8211156104a3576040516306dfcc6560e41b815260306004820152602481018390526044016101e5565b5f60208284031215610867575f5ffd5b81516001600160a01b0381168114610469575f5ffd5b634e487b7160e01b5f52604160045260245ffd5b600181811c908216806108a557607f821691505b6020821081036108c357634e487b7160e01b5f52602260045260245ffd5b50919050565b601f82111561024557805f5260205f20601f840160051c810160208510156108ee5750805b601f840160051c820191505b8181101561090d575f81556001016108fa565b5050505050565b81516001600160401b0381111561092d5761092d61087d565b6109418161093b8454610891565b846108c9565b6020601f821160018114610973575f831561095c5750848201515b5f19600385901b1c1916600184901b17845561090d565b5f84815260208120601f198516915b828110156109a25787850151825560209485019460019092019101610982565b50848210156109bf57868401515f19600387901b60f8161c191681555b50505050600190811b01905550565b602081525f82518060208401528060208501604085015e5f604082850101526040601f19601f83011684010191505092915050565b805160208083015191908110156108c3575f1960209190910360031b1b16919050565b634e487b7160e01b5f52601160045260245ffd5b808201808211156101ba576101ba610a26565b6001600160d01b0381811683821601908111156101ba576101ba610a26565b6001600160d01b0382811682821603908111156101ba576101ba610a26565b818103818111156101ba576101ba610a26565b60805160a05160c05160e051610100516101205161014051611e4b610aef5f395f610daa01525f610d7d01525f610b3801525f610b1001525f610a6b01525f610a9501525f610abf0152611e4b5ff3fe608060405234801561000f575f5ffd5b506004361061019a575f3560e01c806370a08231116100e857806395d89b4111610093578063c3cda5201161006e578063c3cda52014610392578063d505accf146103a5578063dd62ed3e146103b8578063f1127ed8146103f0575f5ffd5b806395d89b41146103645780639ab24eb01461036c578063a9059cbb1461037f575f5ffd5b806384b0196e116100c357806384b0196e146103175780638e539e8c1461033257806391ddadf414610345575f5ffd5b806370a08231146102c957806379cc6790146102f15780637ecebe0014610304575f5ffd5b80633a46b1a811610148578063587cde1e11610123578063587cde1e1461024b5780635c19a95c1461028e5780636fcfff45146102a1575f5ffd5b80633a46b1a81461021b57806342966c681461022e5780634bf5d7e914610243575f5ffd5b806323b872dd1161017857806323b872dd146101f1578063313ce567146102045780633644e51514610213575f5ffd5b806306fdde031461019e578063095ea7b3146101bc57806318160ddd146101df575b5f5ffd5b6101a661042f565b6040516101b39190611aa6565b60405180910390f35b6101cf6101ca366004611ad3565b6104bf565b60405190151581526020016101b3565b6002545b6040519081526020016101b3565b6101cf6101ff366004611afb565b6104d8565b604051601281526020016101b3565b6101e36104fb565b6101e3610229366004611ad3565b610509565b61024161023c366004611b35565b61058d565b005b6101a661059a565b610276610259366004611b4c565b6001600160a01b039081165f908152600860205260409020541690565b6040516001600160a01b0390911681526020016101b3565b61024161029c366004611b4c565b610612565b6102b46102af366004611b4c565b610621565b60405163ffffffff90911681526020016101b3565b6101e36102d7366004611b4c565b6001600160a01b03165f9081526020819052604090205490565b6102416102ff366004611ad3565b61062b565b6101e3610312366004611b4c565b610640565b61031f61064a565b6040516101b39796959493929190611b65565b6101e3610340366004611b35565b61068c565b61034d6106f5565b60405165ffffffffffff90911681526020016101b3565b6101a66106fe565b6101e361037a366004611b4c565b61070d565b6101cf61038d366004611ad3565b61073c565b6102416103a0366004611c0b565b610749565b6102416103b3366004611c5f565b610805565b6101e36103c6366004611cc5565b6001600160a01b039182165f90815260016020908152604080832093909416825291909152205490565b6104036103fe366004611cf6565b61093b565b60408051825165ffffffffffff1681526020928301516001600160d01b031692810192909252016101b3565b60606003805461043e90611d33565b80601f016020809104026020016040519081016040528092919081815260200182805461046a90611d33565b80156104b55780601f1061048c576101008083540402835291602001916104b5565b820191905f5260205f20905b81548152906001019060200180831161049857829003601f168201915b5050505050905090565b5f336104cc818585610975565b60019150505b92915050565b5f336104e5858285610987565b6104f0858585610a02565b506001949350505050565b5f610504610a5f565b905090565b5f5f6105136106f5565b90508065ffffffffffff16831061055357604051637669fc0f60e11b81526004810184905265ffffffffffff821660248201526044015b60405180910390fd5b61057c61055f84610b88565b6001600160a01b0386165f90815260096020526040902090610bbe565b6001600160d01b0316949350505050565b6105973382610c71565b50565b60606105a4610ca5565b65ffffffffffff166105b46106f5565b65ffffffffffff16146105da576040516301bfc1c560e61b815260040160405180910390fd5b5060408051808201909152601d81527f6d6f64653d626c6f636b6e756d6265722666726f6d3d64656661756c74000000602082015290565b3361061d8183610caf565b5050565b5f6104d282610d38565b610636823383610987565b61061d8282610c71565b5f6104d282610d59565b5f6060805f5f5f606061065b610d76565b610663610da3565b604080515f80825260208201909252600f60f81b9b939a50919850469750309650945092509050565b5f5f6106966106f5565b90508065ffffffffffff1683106106d157604051637669fc0f60e11b81526004810184905265ffffffffffff8216602482015260440161054a565b6106e56106dd84610b88565b600a90610bbe565b6001600160d01b03169392505050565b5f610504610ca5565b60606004805461043e90611d33565b6001600160a01b0381165f90815260096020526040812061072d90610dd0565b6001600160d01b031692915050565b5f336104cc818585610a02565b8342111561076d57604051632341d78760e11b81526004810185905260240161054a565b604080517fe48329057bfd03d55e49b547132e39cffd9c1820ad7b9d4c5307691425d15adf60208201526001600160a01b0388169181019190915260608101869052608081018590525f906107e6906107de9060a00160405160208183030381529060405280519060200120610e0a565b858585610e36565b90506107f28187610e62565b6107fc8188610caf565b50505050505050565b834211156108295760405163313c898160e11b81526004810185905260240161054a565b5f7f6e71edae12b1b97f4d1f60370fef10105fa2faae0126114a169c64845d6126c98888886108748c6001600160a01b03165f90815260076020526040902080546001810190915590565b6040805160208101969096526001600160a01b0394851690860152929091166060840152608083015260a082015260c0810186905260e0016040516020818303038152906040528051906020012090505f6108ce82610e0a565b90505f6108dd82878787610e36565b9050896001600160a01b0316816001600160a01b031614610924576040516325c0072360e11b81526001600160a01b0380831660048301528b16602482015260440161054a565b61092f8a8a8a610975565b50505050505050505050565b604080518082019091525f80825260208201526109588383610eb4565b9392505050565b5f6109588284611d7f565b5f6109588284611d9e565b6109828383836001610ee8565b505050565b6001600160a01b038381165f908152600160209081526040808320938616835292905220545f1981146109fc57818110156109ee57604051637dc7a0d960e11b81526001600160a01b0384166004820152602481018290526044810183905260640161054a565b6109fc84848484035f610ee8565b50505050565b6001600160a01b038316610a2b57604051634b637e8f60e11b81525f600482015260240161054a565b6001600160a01b038216610a545760405163ec442f0560e01b81525f600482015260240161054a565b610982838383610fba565b5f306001600160a01b037f000000000000000000000000000000000000000000000000000000000000000016148015610ab757507f000000000000000000000000000000000000000000000000000000000000000046145b15610ae157507f000000000000000000000000000000000000000000000000000000000000000090565b610504604080517f8b73c3c69bb8fe3d512ecc4cf759cc79239f7b179b0ffacaa9a75d522b39400f60208201527f0000000000000000000000000000000000000000000000000000000000000000918101919091527f000000000000000000000000000000000000000000000000000000000000000060608201524660808201523060a08201525f9060c00160405160208183030381529060405280519060200120905090565b5f65ffffffffffff821115610bba576040516306dfcc6560e41b8152603060048201526024810183905260440161054a565b5090565b81545f9081816005811115610c1a575f610bd784610fc5565b610be19085611dbd565b5f8881526020902090915081015465ffffffffffff9081169087161015610c0a57809150610c18565b610c15816001611dd0565b92505b505b5f610c27878785856110a9565b90508015610c6457610c4b87610c3e600184611dbd565b5f91825260209091200190565b54660100000000000090046001600160d01b0316610c66565b5f5b979650505050505050565b6001600160a01b038216610c9a57604051634b637e8f60e11b81525f600482015260240161054a565b61061d825f83610fba565b5f61050443610b88565b6001600160a01b038281165f8181526008602052604080822080548686167fffffffffffffffffffffffff0000000000000000000000000000000000000000821681179092559151919094169392849290917f3134e8a2e6d97e929a7e54011ea5485d7d196dd5f0ba4d4ef95803e8e3fc257f9190a46109828183610d3386611108565b611125565b6001600160a01b0381165f908152600960205260408120546104d29061128e565b6001600160a01b0381165f908152600760205260408120546104d2565b60606105047f000000000000000000000000000000000000000000000000000000000000000060056112be565b60606105047f000000000000000000000000000000000000000000000000000000000000000060066112be565b80545f908015610e0257610de983610c3e600184611dbd565b54660100000000000090046001600160d01b0316610958565b5f9392505050565b5f6104d2610e16610a5f565b8360405161190160f01b8152600281019290925260228201526042902090565b5f5f5f5f610e4688888888611367565b925092509250610e56828261142f565b50909695505050505050565b6001600160a01b0382165f908152600760205260409020805460018101909155818114610982576040516301d4b62360e61b81526001600160a01b03841660048201526024810182905260440161054a565b604080518082019091525f80825260208201526001600160a01b0383165f90815260096020526040902061095890836114e7565b6001600160a01b038416610f115760405163e602df0560e01b81525f600482015260240161054a565b6001600160a01b038316610f3a57604051634a1406b160e11b81525f600482015260240161054a565b6001600160a01b038085165f90815260016020908152604080832093871683529290522082905580156109fc57826001600160a01b0316846001600160a01b03167f8c5be1e5ebec7d5bd14f71427d1e84f3dd0314c0f7b2291e5b200ac8c7c3b92584604051610fac91815260200190565b60405180910390a350505050565b610982838383611557565b5f815f03610fd457505f919050565b5f6001610fe0846115bd565b901c6001901b90506001818481610ff957610ff9611de3565b048201901c9050600181848161101157611011611de3565b048201901c9050600181848161102957611029611de3565b048201901c9050600181848161104157611041611de3565b048201901c9050600181848161105957611059611de3565b048201901c9050600181848161107157611071611de3565b048201901c9050600181848161108957611089611de3565b048201901c9050610958818285816110a3576110a3611de3565b04611650565b5f5b81831015611100575f6110be8484611665565b5f8781526020902090915065ffffffffffff86169082015465ffffffffffff1611156110ec578092506110fa565b6110f7816001611dd0565b93505b506110ab565b509392505050565b6001600160a01b0381165f908152602081905260408120546104d2565b816001600160a01b0316836001600160a01b03161415801561114657505f81115b15610982576001600160a01b038316156111ed576001600160a01b0383165f90815260096020526040812081906111889061096a6111838661167f565b6116b2565b6001600160d01b031691506001600160d01b03169150846001600160a01b03167fdec2bacdd2f05b59de34da9b523dff8be42e5e38e818c82fdb0bae774387a72483836040516111e2929190918252602082015260400190565b60405180910390a250505b6001600160a01b03821615610982576001600160a01b0382165f90815260096020526040812081906112259061095f6111838661167f565b6001600160d01b031691506001600160d01b03169150836001600160a01b03167fdec2bacdd2f05b59de34da9b523dff8be42e5e38e818c82fdb0bae774387a724838360405161127f929190918252602082015260400190565b60405180910390a25050505050565b5f63ffffffff821115610bba576040516306dfcc6560e41b8152602060048201526024810183905260440161054a565b606060ff83146112d8576112d1836116ea565b90506104d2565b8180546112e490611d33565b80601f016020809104026020016040519081016040528092919081815260200182805461131090611d33565b801561135b5780601f106113325761010080835404028352916020019161135b565b820191905f5260205f20905b81548152906001019060200180831161133e57829003601f168201915b505050505090506104d2565b5f80807f7fffffffffffffffffffffffffffffff5d576e7357a4501ddfe92f46681b20a08411156113a057505f91506003905082611425565b604080515f808252602082018084528a905260ff891692820192909252606081018790526080810186905260019060a0016020604051602081039080840390855afa1580156113f1573d5f5f3e3d5ffd5b5050604051601f1901519150506001600160a01b03811661141c57505f925060019150829050611425565b92505f91508190505b9450945094915050565b5f82600381111561144257611442611df7565b0361144b575050565b600182600381111561145f5761145f611df7565b0361147d5760405163f645eedf60e01b815260040160405180910390fd5b600282600381111561149157611491611df7565b036114b25760405163fce698f760e01b81526004810182905260240161054a565b60038260038111156114c6576114c6611df7565b0361061d576040516335e2f38360e21b81526004810182905260240161054a565b604080518082019091525f8082526020820152825f018263ffffffff168154811061151457611514611e0b565b5f9182526020918290206040805180820190915291015465ffffffffffff81168252660100000000000090046001600160d01b0316918101919091529392505050565b611562838383611727565b6001600160a01b0383166115b2575f61157a60025490565b90506001600160d01b03808211156115af57604051630e58ae9360e11b8152600481018390526024810182905260440161054a565b50505b61098283838361184d565b5f80608083901c156115d157608092831c92015b604083901c156115e357604092831c92015b602083901c156115f557602092831c92015b601083901c1561160757601092831c92015b600883901c1561161957600892831c92015b600483901c1561162b57600492831c92015b600283901c1561163d57600292831c92015b600183901c156104d25760010192915050565b5f81831061165e5781610958565b5090919050565b5f6116736002848418611e1f565b61095890848416611dd0565b5f6001600160d01b03821115610bba576040516306dfcc6560e41b815260d060048201526024810183905260440161054a565b5f5f6116dd6116bf6106f5565b6116d56116cb88610dd0565b868863ffffffff16565b8791906118c2565b915091505b935093915050565b60605f6116f6836118cf565b6040805160208082528183019092529192505f91906020820181803683375050509182525060208101929092525090565b6001600160a01b038316611751578060025f8282546117469190611dd0565b909155506117c19050565b6001600160a01b0383165f90815260208190526040902054818110156117a35760405163391434e360e21b81526001600160a01b0385166004820152602481018290526044810183905260640161054a565b6001600160a01b0384165f9081526020819052604090209082900390555b6001600160a01b0382166117dd576002805482900390556117fb565b6001600160a01b0382165f9081526020819052604090208054820190555b816001600160a01b0316836001600160a01b03167fddf252ad1be2c89b69c2b068fc378daa952ba7f163c4a11628f55a4df523b3ef8360405161184091815260200190565b60405180910390a3505050565b6001600160a01b03831661186f5761186c600a61095f6111838461167f565b50505b6001600160a01b0382166118915761188e600a61096a6111838461167f565b50505b6001600160a01b038381165f9081526008602052604080822054858416835291205461098292918216911683611125565b5f806116dd8585856118f6565b5f60ff8216601f8111156104d257604051632cd44ac360e21b815260040160405180910390fd5b82545f9081908015611a1b575f61191287610c3e600185611dbd565b60408051808201909152905465ffffffffffff80821680845266010000000000009092046001600160d01b03166020840152919250908716101561196957604051632520601d60e01b815260040160405180910390fd5b805165ffffffffffff8088169116036119b8578461198c88610c3e600186611dbd565b80546001600160d01b039290921666010000000000000265ffffffffffff909216919091179055611a0b565b6040805180820190915265ffffffffffff80881682526001600160d01b0380881660208085019182528b54600181018d555f8d815291909120945191519092166601000000000000029216919091179101555b6020015192508391506116e29050565b50506040805180820190915265ffffffffffff80851682526001600160d01b0380851660208085019182528854600181018a555f8a81529182209551925190931666010000000000000291909316179201919091559050816116e2565b5f81518084528060208401602086015e5f602082860101526020601f19601f83011685010191505092915050565b602081525f6109586020830184611a78565b80356001600160a01b0381168114611ace575f5ffd5b919050565b5f5f60408385031215611ae4575f5ffd5b611aed83611ab8565b946020939093013593505050565b5f5f5f60608486031215611b0d575f5ffd5b611b1684611ab8565b9250611b2460208501611ab8565b929592945050506040919091013590565b5f60208284031215611b45575f5ffd5b5035919050565b5f60208284031215611b5c575f5ffd5b61095882611ab8565b60ff60f81b8816815260e060208201525f611b8360e0830189611a78565b8281036040840152611b958189611a78565b606084018890526001600160a01b038716608085015260a0840186905283810360c0850152845180825260208087019350909101905f5b81811015611bea578351835260209384019390920191600101611bcc565b50909b9a5050505050505050505050565b803560ff81168114611ace575f5ffd5b5f5f5f5f5f5f60c08789031215611c20575f5ffd5b611c2987611ab8565b95506020870135945060408701359350611c4560608801611bfb565b9598949750929560808101359460a0909101359350915050565b5f5f5f5f5f5f5f60e0888a031215611c75575f5ffd5b611c7e88611ab8565b9650611c8c60208901611ab8565b95506040880135945060608801359350611ca860808901611bfb565b9699959850939692959460a0840135945060c09093013592915050565b5f5f60408385031215611cd6575f5ffd5b611cdf83611ab8565b9150611ced60208401611ab8565b90509250929050565b5f5f60408385031215611d07575f5ffd5b611d1083611ab8565b9150602083013563ffffffff81168114611d28575f5ffd5b809150509250929050565b600181811c90821680611d4757607f821691505b602082108103611d6557634e487b7160e01b5f52602260045260245ffd5b50919050565b634e487b7160e01b5f52601160045260245ffd5b6001600160d01b0381811683821601908111156104d2576104d2611d6b565b6001600160d01b0382811682821603908111156104d2576104d2611d6b565b818103818111156104d2576104d2611d6b565b808201808211156104d2576104d2611d6b565b634e487b7160e01b5f52601260045260245ffd5b634e487b7160e01b5f52602160045260245ffd5b634e487b7160e01b5f52603260045260245ffd5b5f82611e3957634e487b7160e01b5f52601260045260245ffd5b50049056fea164736f6c634300081b000adec2bacdd2f05b59de34da9b523dff8be42e5e38e818c82fdb0bae774387a724",
  "linkReferences": {},
  "deployedLinkReferences": {}
}