{
  "_format": "hh-sol-artifact-1",
  "contractName": "GoatDAO",
  "sourceName": "contracts/goat/GoatDAO.sol",
  "abi": [
    {
      "inputs": [
        {
          "internalType": "contract IVotes",
          "name": "_token",
          "type": "address"
        }
      ],
      "stateMutability": "nonpayable",
      "type": "constructor"
    },
    {
      "inputs": [],
      "name": "CheckpointUnorderedInsertion",
      "type": "error"
    },
    {
      "inputs": [],
      "name": "FailedInnerCall",
      "type": "error"
    },
    {
      "inputs": [
        {
          "internalType": "address",
          "name": "voter",
          "type": "address"
        }
      ],
      "name": "GovernorAlreadyCastVote",
      "type": "error"
    },
    {
      "inputs": [
        {
          "internalType": "uint256",
          "name": "proposalId",
          "type": "uint256"
        }
      ],
      "name": "GovernorAlreadyQueuedProposal",
      "type": "error"
    },
    {
      "inputs": [],
      "name": "GovernorDisabledDeposit",
      "type": "error"
    },
    {
      "inputs": [
        {
          "internalType": "address",
          "name": "proposer",
          "type": "address"
        },
        {
          "internalType": "uint256",
          "name": "votes",
          "type": "uint256"
        },
        {
          "internalType": "uint256",
          "name": "threshold",
          "type": "uint256"
        }
      ],
      "name": "GovernorInsufficientProposerVotes",
      "type": "error"
    },
    {
      "inputs": [
        {
          "internalType": "uint256",
          "name": "targets",
          "type": "uint256"
        },
        {
          "internalType": "uint256",
          "name": "calldatas",
          "type": "uint256"
        },
        {
          "internalType": "uint256",
          "name": "values",
          "type": "uint256"
        }
      ],
      "name": "GovernorInvalidProposalLength",
      "type": "error"
    },
    {
      "inputs": [
        {
          "internalType": "uint256",
          "name": "quorumNumerator",
          "type": "uint256"
        },
        {
          "internalType": "uint256",
          "name": "quorumDenominator",
          "type": "uint256"
        }
      ],
      "name": "GovernorInvalidQuorumFraction",
      "type": "error"
    },
    {
      "inputs": [
        {
          "internalType": "address",
          "name": "voter",
          "type": "address"
        }
      ],
      "name": "GovernorInvalidSignature",
      "type": "error"
    },
    {
      "inputs": [],
      "name": "GovernorInvalidVoteType",
      "type": "error"
    },
    {
      "inputs": [
        {
          "internalType": "uint256",
          "name": "votingPeriod",
          "type": "uint256"
        }
      ],
      "name": "GovernorInvalidVotingPeriod",
      "type": "error"
    },
    {
      "inputs": [
        {
          "internalType": "uint256",
          "name": "proposalId",
          "type": "uint256"
        }
      ],
      "name": "GovernorNonexistentProposal",
      "type": "error"
    },
    {
      "inputs": [
        {
          "internalType": "uint256",
          "name": "proposalId",
          "type": "uint256"
        }
      ],
      "name": "GovernorNotQueuedProposal",
      "type": "error"
    },
    {
      "inputs": [
        {
          "internalType": "address",
          "name": "account",
          "type": "address"
        }
      ],
      "name": "GovernorOnlyExecutor",
      "type": "error"
    },
    {
      "inputs": [
        {
          "internalType": "address",
          "name": "account",
          "type": "address"
        }
      ],
      "name": "GovernorOnlyProposer",
      "type": "error"
    },
    {
      "inputs": [],
      "name": "GovernorQueueNotImplemented",
      "type": "error"
    },
    {
      "inputs": [
        {
          "internalType": "address",
          "name": "proposer",
          "type": "address"
        }
      ],
      "name": "GovernorRestrictedProposer",
      "type": "error"
    },
    {
      "inputs": [
        {
          "internalType": "uint256",
          "name": "proposalId",
          "type": "uint256"
        },
        {
          "internalType": "enum IGovernor.ProposalState",
          "name": "current",
          "type": "uint8"
        },
        {
          "internalType": "bytes32",
          "name": "expectedStates",
          "type": "bytes32"
        }
      ],
      "name": "GovernorUnexpectedProposalState",
      "type": "error"
    },
    {
      "inputs": [
        {
          "internalType": "address",
          "name": "account",
          "type": "address"
        },
        {
          "internalType": "uint256",
          "name": "currentNonce",
          "type": "uint256"
        }
      ],
      "name": "InvalidAccountNonce",
      "type": "error"
    },
    {
      "inputs": [],
      "name": "InvalidShortString",
      "type": "error"
    },
    {
      "inputs": [],
      "name": "QueueEmpty",
      "type": "error"
    },
    {
      "inputs": [],
      "name": "QueueFull",
      "type": "error"
    },
    {
      "inputs": [
        {
          "internalType": "uint8",
          "name": "bits",
          "type": "uint8"
        },
        {
          "internalType": "uint256",
          "name": "value",
          "type": "uint256"
        }
      ],
      "name": "SafeCastOverflowedUintDowncast",
      "type": "error"
    },
    {
      "inputs": [
        {
          "internalType": "string",
          "name": "str",
          "type": "string"
        }
      ],
      "name": "StringTooLong",
      "type": "error"
    },
    {
      "anonymous": false,
      "inputs": [],
      "name": "EIP712DomainChanged",
      "type": "event"
    },
    {
      "anonymous": false,
      "inputs": [
        {
          "indexed": false,
          "internalType": "uint256",
          "name": "proposalId",
          "type": "uint256"
        }
      ],
      "name": "ProposalCanceled",
      "type": "event"
    },
    {
      "anonymous": false,
      "inputs": [
        {
          "indexed": false,
          "internalType": "uint256",
          "name": "proposalId",
          "type": "uint256"
        },
        {
          "indexed": false,
          "internalType": "address",
          "name": "proposer",
          "type": "address"
        },
        {
          "indexed": false,
          "internalType": "address[]",
          "name": "targets",
          "type": "address[]"
        },
        {
          "indexed": false,
          "internalType": "uint256[]",
          "name": "values",
          "type": "uint256[]"
        },
        {
          "indexed": false,
          "internalType": "string[]",
          "name": "signatures",
          "type": "string[]"
        },
        {
          "indexed": false,
          "internalType": "bytes[]",
          "name": "calldatas",
          "type": "bytes[]"
        },
        {
          "indexed": false,
          "internalType": "uint256",
          "name": "voteStart",
          "type": "uint256"
        },
        {
          "indexed": false,
          "internalType": "uint256",
          "name": "voteEnd",
          "type": "uint256"
        },
        {
          "indexed": false,
          "internalType": "string",
          "name": "description",
          "type": "string"
        }
      ],
      "name": "ProposalCreated",
      "type": "event"
    },
    {
      "anonymous": false,
      "inputs": [
        {
          "indexed": false,
          "internalType": "uint256",
          "name": "proposalId",
          "type": "uint256"
        }
      ],
      "name": "ProposalExecuted",
      "type": "event"
    },
    {
      "anonymous": false,
      "inputs": [
        {
          "indexed": false,
          "internalType": "uint256",
          "name": "proposalId",
          "type": "uint256"
        },
        {
          "indexed": false,
          "internalType": "uint256",
          "name": "etaSeconds",
          "type": "uint256"
        }
      ],
      "name": "ProposalQueued",
      "type": "event"
    },
    {
      "anonymous": false,
      "inputs": [
        {
          "indexed": false,
          "internalType": "uint256",
          "name": "oldProposalThreshold",
          "type": "uint256"
        },
        {
          "indexed": false,
          "internalType": "uint256",
          "name": "newProposalThreshold",
          "type": "uint256"
        }
      ],
      "name": "ProposalThresholdSet",
      "type": "event"
    },
    {
      "anonymous": false,
      "inputs": [
        {
          "indexed": false,
          "internalType": "uint256",
          "name": "oldQuorumNumerator",
          "type": "uint256"
        },
        {
          "indexed": false,
          "internalType": "uint256",
          "name": "newQuorumNumerator",
          "type": "uint256"
        }
      ],
      "name": "QuorumNumeratorUpdated",
      "type": "event"
    },
    {
      "anonymous": false,
      "inputs": [
        {
          "indexed": true,
          "internalType": "address",
          "name": "voter",
          "type": "address"
        },
        {
          "indexed": false,
          "internalType": "uint256",
          "name": "proposalId",
          "type": "uint256"
        },
        {
          "indexed": false,
          "internalType": "uint8",
          "name": "support",
          "type": "uint8"
        },
        {
          "indexed": false,
          "internalType": "uint256",
          "name": "weight",
          "type": "uint256"
        },
        {
          "indexed": false,
          "internalType": "string",
          "name": "reason",
          "type": "string"
        }
      ],
      "name": "VoteCast",
      "type": "event"
    },
    {
      "anonymous": false,
      "inputs": [
        {
          "indexed": true,
          "internalType": "address",
          "name": "voter",
          "type": "address"
        },
        {
          "indexed": false,
          "internalType": "uint256",
          "name": "proposalId",
          "type": "uint256"
        },
        {
          "indexed": false,
          "internalType": "uint8",
          "name": "support",
          "type": "uint8"
        },
        {
          "indexed": false,
          "internalType": "uint256",
          "name": "weight",
          "type": "uint256"
        },
        {
          "indexed": false,
          "internalType": "string",
          "name": "reason",
          "type": "string"
        },
        {
          "indexed": false,
          "internalType": "bytes",
          "name": "params",
          "type": "bytes"
        }
      ],
      "name": "VoteCastWithParams",
      "type": "event"
    },
    {
      "anonymous": false,
      "inputs": [
        {
          "indexed": false,
          "internalType": "uint256",
          "name": "oldVotingDelay",
          "type": "uint256"
        },
        {
          "indexed": false,
          "internalType": "uint256",
          "name": "newVotingDelay",
          "type": "uint256"
        }
      ],
      "name": "VotingDelaySet",
      "type": "event"
    },
    {
      "anonymous": false,
      "inputs": [
        {
          "indexed": false,
          "internalType": "uint256",
          "name": "oldVotingPeriod",
          "type": "uint256"
        },
        {
          "indexed": false,
          "internalType": "uint256",
          "name": "newVotingPeriod",
          "type": "uint256"
        }
      ],
      "name": "VotingPeriodSet",
      "type": "event"
    },
    {
      "inputs": [],
      "name": "BALLOT_TYPEHASH",
      "outputs": [
        {
          "internalType": "bytes32",
          "name": "",
          "type": "bytes32"
        }
      ],
      "stateMutability": "view",
      "type": "function"
    },
    {
      "inputs": [],
      "name": "CLOCK_MODE",
      "outputs": [
        {
          "internalType": "string",
          "name": "",
          "type": "string"
        }
      ],
      "stateMutability": "view",
      "type": "function"
    },
    {
      "inputs": [],
      "name": "COUNTING_MODE",
      "outputs": [
        {
          "internalType": "string",
          "name": "",
          "type": "string"
        }
      ],
      "stateMutability": "pure",
      "type": "function"
    },
    {
      "inputs": [],
      "name": "EXTENDED_BALLOT_TYPEHASH",
      "outputs": [
        {
          "internalType": "bytes32",
          "name": "",
          "type": "bytes32"
        }
      ],
      "stateMutability": "view",
      "type": "function"
    },
    {
      "inputs": [
        {
          "internalType": "address[]",
          "name": "targets",
          "type": "address[]"
        },
        {
          "internalType": "uint256[]",
          "name": "values",
          "type": "uint256[]"
        },
        {
          "internalType": "bytes[]",
          "name": "calldatas",
          "type": "bytes[]"
        },
        {
          "internalType": "bytes32",
          "name": "descriptionHash",
          "type": "bytes32"
        }
      ],
      "name": "cancel",
      "outputs": [
        {
          "internalType": "uint256",
          "name": "",
          "type": "uint256"
        }
      ],
      "stateMutability": "nonpayable",
      "type": "function"
    },
    {
      "inputs": [
        {
          "internalType": "uint256",
          "name": "proposalId",
          "type": "uint256"
        },
        {
          "internalType": "uint8",
          "name": "support",
          "type": "uint8"
        }
      ],
      "name": "castVote",
      "outputs": [
        {
          "internalType": "uint256",
          "name": "",
          "type": "uint256"
        }
      ],
      "stateMutability": "nonpayable",
      "type": "function"
    },
    {
      "inputs": [
        {
          "internalType": "uint256",
          "name": "proposalId",
          "type": "uint256"
        },
        {
          "internalType": "uint8",
          "name": "support",
          "type": "uint8"
        },
        {
          "internalType": "address",
          "name": "voter",
          "type": "address"
        },
        {
          "internalType": "bytes",
          "name": "signature",
          "type": "bytes"
        }
      ],
      "name": "castVoteBySig",
      "outputs": [
        {
          "internalType": "uint256",
          "name": "",
          "type": "uint256"
        }
      ],
      "stateMutability": "nonpayable",
      "type": "function"
    },
    {
      "inputs": [
        {
          "internalType": "uint256",
          "name": "proposalId",
          "type": "uint256"
        },
        {
          "internalType": "uint8",
          "name": "support",
          "type": "uint8"
        },
        {
          "internalType": "string",
          "name": "reason",
          "type": "string"
        }
      ],
      "name": "castVoteWithReason",
      "outputs": [
        {
          "internalType": "uint256",
          "name": "",
          "type": "uint256"
        }
      ],
      "stateMutability": "nonpayable",
      "type": "function"
    },
    {
      "inputs": [
        {
          "internalType": "uint256",
          "name": "proposalId",
          "type": "uint256"
        },
        {
          "internalType": "uint8",
          "name": "support",
          "type": "uint8"
        },
        {
          "internalType": "string",
          "name": "reason",
          "type": "string"
        },
        {
          "internalType": "bytes",
          "name": "params",
          "type": "bytes"
        }
      ],
      "name": "castVoteWithReasonAndParams",
      "outputs": [
        {
          "internalType": "uint256",
          "name": "",
          "type": "uint256"
        }
      ],
      "stateMutability": "nonpayable",
      "type": "function"
    },
    {
      "inputs": [
        {
          "internalType": "uint256",
          "name": "proposalId",
          "type": "uint256"
        },
        {
          "internalType": "uint8",
          "name": "support",
          "type": "uint8"
        },
        {
          "internalType": "address",
          "name": "voter",
          "type": "address"
        },
        {
          "internalType": "string",
          "name": "reason",
          "type": "string"
        },
        {
          "internalType": "bytes",
          "name": "params",
          "type": "bytes"
        },
        {
          "internalType": "bytes",
          "name": "signature",
          "type": "bytes"
        }
      ],
      "name": "castVoteWithReasonAndParamsBySig",
      "outputs": [
        {
          "internalType": "uint256",
          "name": "",
          "type": "uint256"
        }
      ],
      "stateMutability": "nonpayable",
      "type": "function"
    },
    {
      "inputs": [],
      "name": "clock",
      "outputs": [
        {
          "internalType": "uint48",
          "name": "",
          "type": "uint48"
        }
      ],
      "stateMutability": "view",
      "type": "function"
    },
    {
      "inputs": [],
      "name": "eip712Domain",
      "outputs": [
        {
          "internalType": "bytes1",
          "name": "fields",
          "type": "bytes1"
        },
        {
          "internalType": "string",
          "name": "name",
          "type": "string"
        },
        {
          "internalType": "string",
          "name": "version",
          "type": "string"
        },
        {
          "internalType": "uint256",
          "name": "chainId",
          "type": "uint256"
        },
        {
          "internalType": "address",
          "name": "verifyingContract",
          "type": "address"
        },
        {
          "internalType": "bytes32",
          "name": "salt",
          "type": "bytes32"
        },
        {
          "internalType": "uint256[]",
          "name": "extensions",
          "type": "uint256[]"
        }
      ],
      "stateMutability": "view",
      "type": "function"
    },
    {
      "inputs": [
        {
          "internalType": "address[]",
          "name": "targets",
          "type": "address[]"
        },
        {
          "internalType": "uint256[]",
          "name": "values",
          "type": "uint256[]"
        },
        {
          "internalType": "bytes[]",
          "name": "calldatas",
          "type": "bytes[]"
        },
        {
          "internalType": "bytes32",
          "name": "descriptionHash",
          "type": "bytes32"
        }
      ],
      "name": "execute",
      "outputs": [
        {
          "internalType": "uint256",
          "name": "",
          "type": "uint256"
        }
      ],
      "stateMutability": "payable",
      "type": "function"
    },
    {
      "inputs": [
        {
          "internalType": "address",
          "name": "account",
          "type": "address"
        },
        {
          "internalType": "uint256",
          "name": "timepoint",
          "type": "uint256"
        }
      ],
      "name": "getVotes",
      "outputs": [
        {
          "internalType": "uint256",
          "name": "",
          "type": "uint256"
        }
      ],
      "stateMutability": "view",
      "type": "function"
    },
    {
      "inputs": [
        {
          "internalType": "address",
          "name": "account",
          "type": "address"
        },
        {
          "internalType": "uint256",
          "name": "timepoint",
          "type": "uint256"
        },
        {
          "internalType": "bytes",
          "name": "params",
          "type": "bytes"
        }
      ],
      "name": "getVotesWithParams",
      "outputs": [
        {
          "internalType": "uint256",
          "name": "",
          "type": "uint256"
        }
      ],
      "stateMutability": "view",
      "type": "function"
    },
    {
      "inputs": [
        {
          "internalType": "uint256",
          "name": "proposalId",
          "type": "uint256"
        },
        {
          "internalType": "address",
          "name": "account",
          "type": "address"
        }
      ],
      "name": "hasVoted",
      "outputs": [
        {
          "internalType": "bool",
          "name": "",
          "type": "bool"
        }
      ],
      "stateMutability": "view",
      "type": "function"
    },
    {
      "inputs": [
        {
          "internalType": "address[]",
          "name": "targets",
          "type": "address[]"
        },
        {
          "internalType": "uint256[]",
          "name": "values",
          "type": "uint256[]"
        },
        {
          "internalType": "bytes[]",
          "name": "calldatas",
          "type": "bytes[]"
        },
        {
          "internalType": "bytes32",
          "name": "descriptionHash",
          "type": "bytes32"
        }
      ],
      "name": "hashProposal",
      "outputs": [
        {
          "internalType": "uint256",
          "name": "",
          "type": "uint256"
        }
      ],
      "stateMutability": "pure",
      "type": "function"
    },
    {
      "inputs": [],
      "name": "name",
      "outputs": [
        {
          "internalType": "string",
          "name": "",
          "type": "string"
        }
      ],
      "stateMutability": "view",
      "type": "function"
    },
    {
      "inputs": [
        {
          "internalType": "address",
          "name": "owner",
          "type": "address"
        }
      ],
      "name": "nonces",
      "outputs": [
        {
          "internalType": "uint256",
          "name": "",
          "type": "uint256"
        }
      ],
      "stateMutability": "view",
      "type": "function"
    },
    {
      "inputs": [
        {
          "internalType": "address",
          "name": "",
          "type": "address"
        },
        {
          "internalType": "address",
          "name": "",
          "type": "address"
        },
        {
          "internalType": "uint256[]",
          "name": "",
          "type": "uint256[]"
        },
        {
          "internalType": "uint256[]",
          "name": "",
          "type": "uint256[]"
        },
        {
          "internalType": "bytes",
          "name": "",
          "type": "bytes"
        }
      ],
      "name": "onERC1155BatchReceived",
      "outputs": [
        {
          "internalType": "bytes4",
          "name": "",
          "type": "bytes4"
        }
      ],
      "stateMutability": "nonpayable",
      "type": "function"
    },
    {
      "inputs": [
        {
          "internalType": "address",
          "name": "",
          "type": "address"
        },
        {
          "internalType": "address",
          "name": "",
          "type": "address"
        },
        {
          "internalType": "uint256",
          "name": "",
          "type": "uint256"
        },
        {
          "internalType": "uint256",
          "name": "",
          "type": "uint256"
        },
        {
          "internalType": "bytes",
          "name": "",
          "type": "bytes"
        }
      ],
      "name": "onERC1155Received",
      "outputs": [
        {
          "internalType": "bytes4",
          "name": "",
          "type": "bytes4"
        }
      ],
      "stateMutability": "nonpayable",
      "type": "function"
    },
    {
      "inputs": [
        {
          "internalType": "address",
          "name": "",
          "type": "address"
        },
        {
          "internalType": "address",
          "name": "",
          "type": "address"
        },
        {
          "internalType": "uint256",
          "name": "",
          "type": "uint256"
        },
        {
          "internalType": "bytes",
          "name": "",
          "type": "bytes"
        }
      ],
      "name": "onERC721Received",
      "outputs": [
        {
          "internalType": "bytes4",
          "name": "",
          "type": "bytes4"
        }
      ],
      "stateMutability": "nonpayable",
      "type": "function"
    },
    {
      "inputs": [
        {
          "internalType": "uint256",
          "name": "proposalId",
          "type": "uint256"
        }
      ],
      "name": "proposalDeadline",
      "outputs": [
        {
          "internalType": "uint256",
          "name": "",
          "type": "uint256"
        }
      ],
      "stateMutability": "view",
      "type": "function"
    },
    {
      "inputs": [
        {
          "internalType": "uint256",
          "name": "proposalId",
          "type": "uint256"
        }
      ],
      "name": "proposalEta",
      "outputs": [
        {
          "internalType": "uint256",
          "name": "",
          "type": "uint256"
        }
      ],
      "stateMutability": "view",
      "type": "function"
    },
    {
      "inputs": [
        {
          "internalType": "uint256",
          "name": "",
          "type": "uint256"
        }
      ],
      "name": "proposalNeedsQueuing",
      "outputs": [
        {
          "internalType": "bool",
          "name": "",
          "type": "bool"
        }
      ],
      "stateMutability": "view",
      "type": "function"
    },
    {
      "inputs": [
        {
          "internalType": "uint256",
          "name": "proposalId",
          "type": "uint256"
        }
      ],
      "name": "proposalProposer",
      "outputs": [
        {
          "internalType": "address",
          "name": "",
          "type": "address"
        }
      ],
      "stateMutability": "view",
      "type": "function"
    },
    {
      "inputs": [
        {
          "internalType": "uint256",
          "name": "proposalId",
          "type": "uint256"
        }
      ],
      "name": "proposalSnapshot",
      "outputs": [
        {
          "internalType": "uint256",
          "name": "",
          "type": "uint256"
        }
      ],
      "stateMutability": "view",
      "type": "function"
    },
    {
      "inputs": [],
      "name": "proposalThreshold",
      "outputs": [
        {
          "internalType": "uint256",
          "name": "",
          "type": "uint256"
        }
      ],
      "stateMutability": "view",
      "type": "function"
    },
    {
      "inputs": [
        {
          "internalType": "uint256",
          "name": "proposalId",
          "type": "uint256"
        }
      ],
      "name": "proposalVotes",
      "outputs": [
        {
          "internalType": "uint256",
          "name": "againstVotes",
          "type": "uint256"
        },
        {
          "internalType": "uint256",
          "name": "forVotes",
          "type": "uint256"
        },
        {
          "internalType": "uint256",
          "name": "abstainVotes",
          "type": "uint256"
        }
      ],
      "stateMutability": "view",
      "type": "function"
    },
    {
      "inputs": [
        {
          "internalType": "address[]",
          "name": "targets",
          "type": "address[]"
        },
        {
          "internalType": "uint256[]",
          "name": "values",
          "type": "uint256[]"
        },
        {
          "internalType": "bytes[]",
          "name": "calldatas",
          "type": "bytes[]"
        },
        {
          "internalType": "string",
          "name": "description",
          "type": "string"
        }
      ],
      "name": "propose",
      "outputs": [
        {
          "internalType": "uint256",
          "name": "",
          "type": "uint256"
        }
      ],
      "stateMutability": "nonpayable",
      "type": "function"
    },
    {
      "inputs": [
        {
          "internalType": "address[]",
          "name": "targets",
          "type": "address[]"
        },
        {
          "internalType": "uint256[]",
          "name": "values",
          "type": "uint256[]"
        },
        {
          "internalType": "bytes[]",
          "name": "calldatas",
          "type": "bytes[]"
        },
        {
          "internalType": "bytes32",
          "name": "descriptionHash",
          "type": "bytes32"
        }
      ],
      "name": "queue",
      "outputs": [
        {
          "internalType": "uint256",
          "name": "",
          "type": "uint256"
        }
      ],
      "stateMutability": "nonpayable",
      "type": "function"
    },
    {
      "inputs": [
        {
          "internalType": "uint256",
          "name": "blockNumber",
          "type": "uint256"
        }
      ],
      "name": "quorum",
      "outputs": [
        {
          "internalType": "uint256",
          "name": "",
          "type": "uint256"
        }
      ],
      "stateMutability": "view",
      "type": "function"
    },
    {
      "inputs": [],
      "name": "quorumDenominator",
      "outputs": [
        {
          "internalType": "uint256",
          "name": "",
          "type": "uint256"
        }
      ],
      "stateMutability": "view",
      "type": "function"
    },
    {
      "inputs": [
        {
          "internalType": "uint256",
          "name": "timepoint",
          "type": "uint256"
        }
      ],
      "name": "quorumNumerator",
      "outputs": [
        {
          "internalType": "uint256",
          "name": "",
          "type": "uint256"
        }
      ],
      "stateMutability": "view",
      "type": "function"
    },
    {
      "inputs": [],
      "name": "quorumNumerator",
      "outputs": [
        {
          "internalType": "uint256",
          "name": "",
          "type": "uint256"
        }
      ],
      "stateMutability": "view",
      "type": "function"
    },
    {
      "inputs": [
        {
          "internalType": "address",
          "name": "target",
          "type": "address"
        },
        {
          "internalType": "uint256",
          "name": "value",
          "type": "uint256"
        },
        {
          "internalType": "bytes",
          "name": "data",
          "type": "bytes"
        }
      ],
      "name": "relay",
      "outputs": [],
      "stateMutability": "payable",
      "type": "function"
    },
    {
      "inputs": [
        {
          "internalType": "uint256",
          "name": "newProposalThreshold",
          "type": "uint256"
        }
      ],
      "name": "setProposalThreshold",
      "outputs": [],
      "stateMutability": "nonpayable",
      "type": "function"
    },
    {
      "inputs": [
        {
          "internalType": "uint48",
          "name": "newVotingDelay",
          "type": "uint48"
        }
      ],
      "name": "setVotingDelay",
      "outputs": [],
      "stateMutability": "nonpayable",
      "type": "function"
    },
    {
      "inputs": [
        {
          "internalType": "uint32",
          "name": "newVotingPeriod",
          "type": "uint32"
        }
      ],
      "name": "setVotingPeriod",
      "outputs": [],
      "stateMutability": "nonpayable",
      "type": "function"
    },
    {
      "inputs": [
        {
          "internalType": "uint256",
          "name": "proposalId",
          "type": "uint256"
        }
      ],
      "name": "state",
      "outputs": [
        {
          "internalType": "enum IGovernor.ProposalState",
          "name": "",
          "type": "uint8"
        }
      ],
      "stateMutability": "view",
      "type": "function"
    },
    {
      "inputs": [
        {
          "internalType": "bytes4",
          "name": "interfaceId",
          "type": "bytes4"
        }
      ],
      "name": "supportsInterface",
      "outputs": [
        {
          "internalType": "bool",
          "name": "",
          "type": "bool"
        }
      ],
      "stateMutability": "view",
      "type": "function"
    },
    {
      "inputs": [],
      "name": "token",
      "outputs": [
        {
          "internalType": "contract IERC5805",
          "name": "",
          "type": "address"
        }
      ],
      "stateMutability": "view",
      "type": "function"
    },
    {
      "inputs": [
        {
          "internalType": "uint256",
          "name": "newQuorumNumerator",
          "type": "uint256"
        }
      ],
      "name": "updateQuorumNumerator",
      "outputs": [],
      "stateMutability": "nonpayable",
      "type": "function"
    },
    {
      "inputs": [],
      "name": "version",
      "outputs": [
        {
          "internalType": "string",
          "name": "",
          "type": "string"
        }
      ],
      "stateMutability": "view",
      "type": "function"
    },
    {
      "inputs": [],
      "name": "votingDelay",
      "outputs": [
        {
          "internalType": "uint256",
          "name": "",
          "type": "uint256"
        }
      ],
      "stateMutability": "view",
      "type": "function"
    },
    {
      "inputs": [],
      "name": "votingPeriod",
      "outputs": [
        {
          "internalType": "uint256",
          "name": "",
          "type": "uint256"
        }
      ],
      "stateMutability": "view",
      "type": "function"
    },
    {
      "stateMutability": "payable",
      "type": "receive"
    }
  ],
  "bytecode": "0x610180604052348015610010575f5ffd5b5060405161450e38038061450e83398101604081905261002f916106b6565b6004816201518062093a805f60405180604001604052806007815260200166476f617444414f60c81b8152508061006a61016260201b60201c565b610074825f61017d565b6101205261008381600161017d565b61014052815160208084019190912060e052815190820120610100524660a05261010f60e05161010051604080517f8b73c3c69bb8fe3d512ecc4cf759cc79239f7b179b0ffacaa9a75d522b39400f60208201529081019290925260608201524660808201523060a08201525f9060c00160405160208183030381529060405280519060200120905090565b60805250503060c05260036101248282610774565b506101309050836101af565b61013982610215565b610142816102b9565b5050506001600160a01b03166101605261015b816102fa565b50506108ca565b6040805180820190915260018152603160f81b602082015290565b5f602083511015610198576101918361038f565b90506101a9565b816101a38482610774565b5060ff90505b92915050565b6008546040805165ffffffffffff928316815291831660208301527fc565b045403dc03c2eea82b81a0465edad9e2e7fc4d97e11421c209da93d7a93910160405180910390a16008805465ffffffffffff191665ffffffffffff92909216919091179055565b8063ffffffff165f036102425760405163f1cfbf0560e01b81525f60048201526024015b60405180910390fd5b6008546040805163ffffffff66010000000000009093048316815291831660208301527f7e3f7f0708a84de9203036abaa450dccc85ad5ff52f78c170f3edb55cf5e8828910160405180910390a16008805463ffffffff90921666010000000000000263ffffffff60301b19909216919091179055565b60075460408051918252602082018390527fccb45da8d5717e6c4544694297c4ba5cf151d455c9bb0ed4fc7a38411bc05461910160405180910390a1600755565b6064808211156103275760405163243e544560e01b81526004810183905260248101829052604401610239565b5f6103306103cc565b905061034f61033d6103e5565b6103468561045f565b600a9190610496565b505060408051828152602081018590527f0553476bf02ef2726e8ce5ced78d63e26e602e4a2257b1f559418e24b4633997910160405180910390a1505050565b5f5f829050601f815111156103b9578260405163305a27a960e01b8152600401610239919061082e565b80516103c482610863565b179392505050565b5f6103d7600a6104b0565b6001600160d01b0316905090565b5f6103f06101605190565b6001600160a01b03166391ddadf46040518163ffffffff1660e01b8152600401602060405180830381865afa925050508015610449575060408051601f3d908101601f1916820190925261044691810190610886565b60015b61045a576104556104f8565b905090565b919050565b5f6001600160d01b03821115610492576040516306dfcc6560e41b815260d0600482015260248101839052604401610239565b5090565b5f806104a3858585610502565b915091505b935093915050565b80545f9080156104ef576104d6836104c96001846108ab565b5f91825260209091200190565b54660100000000000090046001600160d01b03166104f1565b5f5b9392505050565b5f61045543610684565b82545f9081908015610627575f61051e876104c96001856108ab565b60408051808201909152905465ffffffffffff80821680845266010000000000009092046001600160d01b03166020840152919250908716101561057557604051632520601d60e01b815260040160405180910390fd5b805165ffffffffffff8088169116036105c45784610598886104c96001866108ab565b80546001600160d01b039290921666010000000000000265ffffffffffff909216919091179055610617565b6040805180820190915265ffffffffffff80881682526001600160d01b0380881660208085019182528b54600181018d555f8d815291909120945191519092166601000000000000029216919091179101555b6020015192508391506104a89050565b50506040805180820190915265ffffffffffff80851682526001600160d01b0380851660208085019182528854600181018a555f8a81529182209551925190931666010000000000000291909316179201919091559050816104a8565b5f65ffffffffffff821115610492576040516306dfcc6560e41b81526030600482015260248101839052604401610239565b5f602082840312156106c6575f5ffd5b81516001600160a01b03811681146104f1575f5ffd5b634e487b7160e01b5f52604160045260245ffd5b600181811c9082168061070457607f821691505b60208210810361072257634e487b7160e01b5f52602260045260245ffd5b50919050565b601f82111561076f57805f5260205f20601f840160051c8101602085101561074d5750805b601f840160051c820191505b8181101561076c575f8155600101610759565b50505b505050565b81516001600160401b0381111561078d5761078d6106dc565b6107a18161079b84546106f0565b84610728565b6020601f8211600181146107d3575f83156107bc5750848201515b5f19600385901b1c1916600184901b17845561076c565b5f84815260208120601f198516915b8281101561080257878501518255602094850194600190920191016107e2565b508482101561081f57868401515f19600387901b60f8161c191681555b50505050600190811b01905550565b602081525f82518060208401528060208501604085015e5f604082850101526040601f19601f83011684010191505092915050565b80516020808301519190811015610722575f1960209190910360031b1b16919050565b5f60208284031215610896575f5ffd5b815165ffffffffffff811681146104f1575f5ffd5b818103818111156101a957634e487b7160e01b5f52601160045260245ffd5b60805160a05160c05160e05161010051610120516101405161016051613bcd6109415f395f81816109d601528181610e4a0152818161138d01528181611fe101526121cb01525f611fae01525f611f8201525f6123fc01525f6123d401525f61232f01525f61235901525f6123830152613bcd5ff3fe6080604052600436106102f0575f3560e01c80637d5e81e211610186578063bc197c81116100dc578063e540d01d11610087578063f23a6e6111610062578063f23a6e611461097e578063f8ce560a146109a9578063fc0c546a146109c8575f5ffd5b8063e540d01d14610921578063eb9019d414610940578063ece40cc11461095f575f5ffd5b8063c59057e4116100b7578063c59057e41461088a578063dd4e2ba5146108a9578063deaaa7cc146108ee575f5ffd5b8063bc197c811461082d578063c01f9e3714610858578063c28bc2fa14610877575f5ffd5b806397c3d3341161013c578063a9a9529411610117578063a9a95294146107c4578063ab58fb8e146107e3578063b58131b014610819575f5ffd5b806397c3d3341461077e5780639a802a6d14610791578063a7713a70146107b0575f5ffd5b806384b0196e1161016c57806384b0196e1461070d5780638ff262e31461073457806391ddadf414610753575f5ffd5b80637d5e81e2146106ba5780637ecebe00146106d9575f5ffd5b80633e4f49e61161024657806356781388116101f157806360c4247f116101cc57806360c4247f1461065d578063790518871461067c5780637b3c71d31461069b575f5ffd5b806356781388146106005780635b8d0e0d1461061f5780635f398a141461063e575f5ffd5b80634bf5d7e9116102215780634bf5d7e914610570578063544ffc9c1461058457806354fd4d50146105d7575f5ffd5b80633e4f49e6146104dd5780634385963214610509578063452115d614610551575f5ffd5b8063150b7a02116102a65780632d63f693116102815780632d63f6931461045c5780632fe3e261146104965780633932abb1146104c9575f5ffd5b8063150b7a02146103e7578063160cbed71461042a5780632656227d14610449575f5ffd5b806306f3f9e6116102d657806306f3f9e61461035b57806306fdde031461037a578063143489d01461039b575f5ffd5b806301ffc9a7146102fc57806302a251a314610330575f5ffd5b366102f8575b005b5f5ffd5b348015610307575f5ffd5b5061031b610316366004612cab565b6109fa565b60405190151581526020015b60405180910390f35b34801561033b575f5ffd5b50600854600160301b900463ffffffff165b604051908152602001610327565b348015610366575f5ffd5b506102f6610375366004612cd2565b610a50565b348015610385575f5ffd5b5061038e610a64565b6040516103279190612d17565b3480156103a6575f5ffd5b506103cf6103b5366004612cd2565b5f908152600460205260409020546001600160a01b031690565b6040516001600160a01b039091168152602001610327565b3480156103f2575f5ffd5b50610411610401366004612e04565b630a85bd0160e11b949350505050565b6040516001600160e01b03199091168152602001610327565b348015610435575f5ffd5b5061034d610444366004612fc7565b610af4565b61034d610457366004612fc7565b610b3c565b348015610467575f5ffd5b5061034d610476366004612cd2565b5f90815260046020526040902054600160a01b900465ffffffffffff1690565b3480156104a1575f5ffd5b5061034d7f3e83946653575f9a39005e1545185629e92736b7528ab20ca3816f315424a81181565b3480156104d4575f5ffd5b5061034d610c7f565b3480156104e8575f5ffd5b506104fc6104f7366004612cd2565b610c91565b6040516103279190613091565b348015610514575f5ffd5b5061031b61052336600461309f565b5f8281526009602090815260408083206001600160a01b038516845260030190915290205460ff1692915050565b34801561055c575f5ffd5b5061034d61056b366004612fc7565b610dda565b34801561057b575f5ffd5b5061038e610e46565b34801561058f575f5ffd5b506105bc61059e366004612cd2565b5f908152600960205260409020805460018201546002909201549092565b60408051938452602084019290925290820152606001610327565b3480156105e2575f5ffd5b506040805180820190915260018152603160f81b602082015261038e565b34801561060b575f5ffd5b5061034d61061a3660046130d9565b610f06565b34801561062a575f5ffd5b5061034d61063936600461313f565b610f2d565b348015610649575f5ffd5b5061034d6106583660046131fc565b611089565b348015610668575f5ffd5b5061034d610677366004612cd2565b6110dc565b348015610687575f5ffd5b506102f6610696366004613292565b611168565b3480156106a6575f5ffd5b5061034d6106b53660046132ad565b611179565b3480156106c5575f5ffd5b5061034d6106d4366004613303565b6111bf565b3480156106e4575f5ffd5b5061034d6106f33660046133c3565b6001600160a01b03165f9081526002602052604090205490565b348015610718575f5ffd5b50610721611279565b6040516103279796959493929190613416565b34801561073f575f5ffd5b5061034d61074e366004613483565b6112bb565b34801561075e575f5ffd5b5061076761138a565b60405165ffffffffffff9091168152602001610327565b348015610789575f5ffd5b50606461034d565b34801561079c575f5ffd5b5061034d6107ab3660046134cf565b611411565b3480156107bb575f5ffd5b5061034d61141d565b3480156107cf575f5ffd5b5061031b6107de366004612cd2565b505f90565b3480156107ee575f5ffd5b5061034d6107fd366004612cd2565b5f9081526004602052604090206001015465ffffffffffff1690565b348015610824575f5ffd5b5061034d611436565b348015610838575f5ffd5b50610411610847366004613522565b63bc197c8160e01b95945050505050565b348015610863575f5ffd5b5061034d610872366004612cd2565b611440565b6102f66108853660046135b8565b611482565b348015610895575f5ffd5b5061034d6108a4366004612fc7565b6114fe565b3480156108b4575f5ffd5b506040805180820190915260208082527f737570706f72743d627261766f2671756f72756d3d666f722c6162737461696e9082015261038e565b3480156108f9575f5ffd5b5061034d7ff2aad550cf55f045cb27e9c559f9889fdfb6e6cdaa032301d6ea397784ae51d781565b34801561092c575f5ffd5b506102f661093b3660046135f6565b611537565b34801561094b575f5ffd5b5061034d61095a366004613619565b611548565b34801561096a575f5ffd5b506102f6610979366004612cd2565b61156e565b348015610989575f5ffd5b50610411610998366004613641565b63f23a6e6160e01b95945050505050565b3480156109b4575f5ffd5b5061034d6109c3366004612cd2565b61157f565b3480156109d3575f5ffd5b507f00000000000000000000000000000000000000000000000000000000000000006103cf565b5f6001600160e01b031982166332a2ad4360e11b1480610a2a57506001600160e01b03198216630271189760e51b145b80610a4557506301ffc9a760e01b6001600160e01b03198316145b92915050565b905090565b610a58611589565b610a61816115c0565b50565b606060038054610a7390613695565b80601f0160208091040260200160405190810160405280929190818152602001828054610a9f90613695565b8015610aea5780601f10610ac157610100808354040283529160200191610aea565b820191905f5260205f20905b815481529060010190602001808311610acd57829003601f168201915b5050505050905090565b5f5f610b02868686866114fe565b9050610b1781610b126004611655565b611677565b505f604051634844252360e11b815260040160405180910390fd5b5095945050505050565b5f5f610b4a868686866114fe565b9050610b6a81610b5a6005611655565b610b646004611655565b17611677565b505f81815260046020526040902080547fff00ffffffffffffffffffffffffffffffffffffffffffffffffffffffffffff16600160f01b17905530610bac3090565b6001600160a01b031614610c35575f5b8651811015610c3357306001600160a01b0316878281518110610be157610be16136cd565b60200260200101516001600160a01b031603610c2b57610c2b858281518110610c0c57610c0c6136cd565b60200260200101518051906020012060056116b490919063ffffffff16565b600101610bbc565b505b610c428187878787611736565b6040518181527f712ae1383f79ac853f8d882153778e0260ef8f03b504e2866e0593e04d2b291f906020015b60405180910390a195945050505050565b5f610a4b60085465ffffffffffff1690565b5f818152600460205260408120805460ff600160f01b8204811691600160f81b9004168115610cc557506007949350505050565b8015610cd657506002949350505050565b5f85815260046020526040812054600160a01b900465ffffffffffff169050805f03610d1d57604051636ad0607560e01b8152600481018790526024015b60405180910390fd5b5f610d2661138a565b65ffffffffffff169050808210610d4357505f9695505050505050565b5f610d4d88611440565b9050818110610d6457506001979650505050505050565b610d6d8861180b565b1580610d8c57505f888152600960205260409020805460019091015411155b15610d9f57506003979650505050505050565b5f8881526004602052604090206001015465ffffffffffff165f03610dcc57506004979650505050505050565b506005979650505050505050565b5f5f610de8868686866114fe565b9050610df781610b125f611655565b505f818152600460205260409020546001600160a01b03163314610e305760405163233d98e360e01b8152336004820152602401610d14565b610e3c8686868661185b565b9695505050505050565b60607f00000000000000000000000000000000000000000000000000000000000000006001600160a01b0316634bf5d7e96040518163ffffffff1660e01b81526004015f60405180830381865afa925050508015610ec557506040513d5f823e601f3d908101601f19168201604052610ec291908101906136e1565b60015b610f01575060408051808201909152601d81527f6d6f64653d626c6f636b6e756d6265722666726f6d3d64656661756c74000000602082015290565b919050565b5f80339050610f2584828560405180602001604052805f815250611922565b949350505050565b5f5f61100e876110087f3e83946653575f9a39005e1545185629e92736b7528ab20ca3816f315424a8118c8c8c610f808e6001600160a01b03165f90815260026020526040902080546001810190915590565b8d8d604051610f90929190613756565b60405180910390208c80519060200120604051602001610fed9796959493929190968752602087019590955260ff9390931660408601526001600160a01b03919091166060850152608084015260a083015260c082015260e00190565b6040516020818303038152906040528051906020012061194c565b85611978565b905080611039576040516394ab6c0760e01b81526001600160a01b0388166004820152602401610d14565b61107c89888a89898080601f0160208091040260200160405190810160405280939291908181526020018383808284375f920191909152508b92506119cd915050565b9998505050505050505050565b5f803390506110d187828888888080601f0160208091040260200160405190810160405280939291908181526020018383808284375f920191909152508a92506119cd915050565b979650505050505050565b600a80545f9182906110ef600184613779565b815481106110ff576110ff6136cd565b5f918252602090912001805490915065ffffffffffff811690600160301b90046001600160d01b0316858211611141576001600160d01b031695945050505050565b61115561114d87611abc565b600a90611af2565b6001600160d01b03169695505050505050565b611170611589565b610a6181611ba1565b5f80339050610e3c86828787878080601f0160208091040260200160405190810160405280939291908181526020018383808284375f9201919091525061192292505050565b5f336111cb8184611c07565b6111f35760405163d9b3955760e01b81526001600160a01b0382166004820152602401610d14565b5f61121982600161120261138a565b61120c919061378c565b65ffffffffffff16611548565b90505f611224611436565b90508082101561126057604051636121770b60e11b81526001600160a01b03841660048201526024810183905260448101829052606401610d14565b61126d8888888887611d25565b98975050505050505050565b5f6060805f5f5f606061128a611f7b565b611292611fa7565b604080515f80825260208201909252600f60f81b9b939a50919850469750309650945092509050565b5f5f611345846110087ff2aad550cf55f045cb27e9c559f9889fdfb6e6cdaa032301d6ea397784ae51d789898961130e8b6001600160a01b03165f90815260026020526040902080546001810190915590565b60408051602081019690965285019390935260ff90911660608401526001600160a01b0316608083015260a082015260c001610fed565b905080611370576040516394ab6c0760e01b81526001600160a01b0385166004820152602401610d14565b610e3c86858760405180602001604052805f815250611922565b5f7f00000000000000000000000000000000000000000000000000000000000000006001600160a01b03166391ddadf46040518163ffffffff1660e01b8152600401602060405180830381865afa925050508015611405575060408051601f3d908101601f19168201909252611402918101906137aa565b60015b610f0157610a4b611fd4565b5f610f25848484611fde565b5f611428600a612071565b6001600160d01b0316905090565b5f610a4b60075490565b5f8181526004602052604081205461147490600160d01b810463ffffffff1690600160a01b900465ffffffffffff166137c5565b65ffffffffffff1692915050565b61148a611589565b5f5f856001600160a01b03168585856040516114a7929190613756565b5f6040518083038185875af1925050503d805f81146114e1576040519150601f19603f3d011682016040523d82523d5f602084013e6114e6565b606091505b50915091506114f582826120a8565b50505050505050565b5f848484846040516020016115169493929190613876565b60408051601f19818403018152919052805160209091012095945050505050565b61153f611589565b610a61816120c4565b5f611567838361156260408051602081019091525f815290565b611fde565b9392505050565b611576611589565b610a6181612160565b5f610a45826121a1565b3033146115ab576040516347096e4760e01b8152336004820152602401610d14565b565b806115b86005612248565b036115ad5750565b6064808211156115ed5760405163243e544560e01b81526004810183905260248101829052604401610d14565b5f6115f661141d565b905061161561160361138a565b61160c856122d6565b600a9190612309565b505060408051828152602081018590527f0553476bf02ef2726e8ce5ced78d63e26e602e4a2257b1f559418e24b4633997910160405180910390a1505050565b5f8160078111156116685761166861305d565b600160ff919091161b92915050565b5f5f61168284610c91565b90505f8361168f83611655565b1603611567578381846040516331b75e4d60e01b8152600401610d14939291906138c0565b81546fffffffffffffffffffffffffffffffff600160801b8204811691811660018301909116036116f857604051638acb5f2760e01b815260040160405180910390fd5b6fffffffffffffffffffffffffffffffff8082165f90815260018086016020526040909120939093558354919092018216600160801b029116179055565b5f5b8451811015611803575f5f868381518110611755576117556136cd565b60200260200101516001600160a01b0316868481518110611778576117786136cd565b6020026020010151868581518110611792576117926136cd565b60200260200101516040516117a791906138e2565b5f6040518083038185875af1925050503d805f81146117e1576040519150601f19603f3d011682016040523d82523d5f602084013e6117e6565b606091505b50915091506117f582826120a8565b505050806001019050611738565b505050505050565b5f8181526009602052604081206002810154600182015461182c91906138f8565b5f8481526004602052604090205461185290600160a01b900465ffffffffffff1661157f565b11159392505050565b5f5f611869868686866114fe565b90506118b7816118796007611655565b6118836006611655565b61188d6002611655565b600161189a60078261390b565b6118a59060026139ff565b6118af9190613779565b181818611677565b505f818152600460205260409081902080547effffffffffffffffffffffffffffffffffffffffffffffffffffffffffffff16600160f81b179055517f789cf55be980739dad1d0699b93b58e806b51c9d96619bfa8fe0a28abaa7b30c90610c6e9083815260200190565b5f6119438585858561193e60408051602081019091525f815290565b6119cd565b95945050505050565b5f610a45611958612323565b8360405161190160f01b8152600281019290925260228201526042902090565b5f5f5f611985858561244c565b5090925090505f81600381111561199e5761199e61305d565b1480156119bc5750856001600160a01b0316826001600160a01b0316145b80610e3c5750610e3c868686612495565b5f6119dc86610b126001611655565b505f86815260046020526040812054611a06908790600160a01b900465ffffffffffff1685611fde565b9050611a158787878487612580565b82515f03611a6957856001600160a01b03167fb8e138887d0aa13bab447e82de9d5c1777041ecd21ca36ba824ff1e6c07ddda488878488604051611a5c9493929190613a0d565b60405180910390a2610e3c565b856001600160a01b03167fe2babfbac5889a709b63bb7f598b324e08bc5a4fb9ec647fb3cbc9ec07eb87128887848888604051611aaa959493929190613a34565b60405180910390a29695505050505050565b5f65ffffffffffff821115611aee576040516306dfcc6560e41b81526030600482015260248101839052604401610d14565b5090565b81545f9081816005811115611b4e575f611b0b84612672565b611b159085613779565b5f8881526020902090915081015465ffffffffffff9081169087161015611b3e57809150611b4c565b611b498160016138f8565b92505b505b5f611b5b87878585612756565b90508015611b9557611b7f87611b72600184613779565b5f91825260209091200190565b54600160301b90046001600160d01b03166110d1565b5f979650505050505050565b6008546040805165ffffffffffff928316815291831660208301527fc565b045403dc03c2eea82b81a0465edad9e2e7fc4d97e11421c209da93d7a93910160405180910390a16008805465ffffffffffff191665ffffffffffff92909216919091179055565b80515f906034811015611c1e576001915050610a45565b828101601319015173ffffffffffffffffffffffffffffffffffffffff1981167f2370726f706f7365723d3078000000000000000000000000000000000000000014611c6f57600192505050610a45565b5f80611c7c602885613779565b90505b83811015611d04575f5f611cca888481518110611c9e57611c9e6136cd565b01602001517fff00000000000000000000000000000000000000000000000000000000000000166127b5565b9150915081611ce25760019650505050505050610a45565b8060ff166004856001600160a01b0316901b1793505050806001019050611c7f565b50856001600160a01b0316816001600160a01b031614935050505092915050565b5f611d3986868686805190602001206114fe565b905084518651141580611d4e57508351865114155b80611d5857508551155b15611d8d57855184518651604051630447b05d60e41b8152600481019390935260248301919091526044820152606401610d14565b5f81815260046020526040902054600160a01b900465ffffffffffff1615611dd65780611db982610c91565b6040516331b75e4d60e01b8152610d149291905f906004016138c0565b5f611ddf610c7f565b611de761138a565b65ffffffffffff16611df991906138f8565b90505f611e1360085463ffffffff600160301b9091041690565b5f848152600460205260409020805473ffffffffffffffffffffffffffffffffffffffff19166001600160a01b038716178155909150611e5283611abc565b815465ffffffffffff91909116600160a01b027fffffffffffff000000000000ffffffffffffffffffffffffffffffffffffffff909116178155611e9582612845565b815463ffffffff91909116600160d01b027fffff00000000ffffffffffffffffffffffffffffffffffffffffffffffffffff90911617815588517f7d84a6263ae0d98d3329bd7b46bb4e8d6f98cd35a7adb45c274c8b7fd5ebd5e090859087908c908c9067ffffffffffffffff811115611f1157611f11612d3f565b604051908082528060200260200182016040528015611f4457816020015b6060815260200190600190039081611f2f5790505b508c89611f518a826138f8565b8e604051611f6799989796959493929190613a6d565b60405180910390a150505095945050505050565b6060610a4b7f00000000000000000000000000000000000000000000000000000000000000005f612875565b6060610a4b7f00000000000000000000000000000000000000000000000000000000000000006001612875565b5f610a4b43611abc565b5f7f0000000000000000000000000000000000000000000000000000000000000000604051630748d63560e31b81526001600160a01b038681166004830152602482018690529190911690633a46b1a890604401602060405180830381865afa15801561204d573d5f5f3e3d5ffd5b505050506040513d601f19601f82011682018060405250810190610f259190613b47565b80545f9080156120a05761208a83611b72600184613779565b54600160301b90046001600160d01b0316611567565b5f9392505050565b6060826120bd576120b88261291e565b610a45565b5080610a45565b8063ffffffff165f036120ec5760405163f1cfbf0560e01b81525f6004820152602401610d14565b6008546040805163ffffffff600160301b9093048316815291831660208301527f7e3f7f0708a84de9203036abaa450dccc85ad5ff52f78c170f3edb55cf5e8828910160405180910390a16008805463ffffffff909216600160301b0269ffffffff00000000000019909216919091179055565b60075460408051918252602082018390527fccb45da8d5717e6c4544694297c4ba5cf151d455c9bb0ed4fc7a38411bc05461910160405180910390a1600755565b5f60646121ad836110dc565b604051632394e7a360e21b8152600481018590526001600160a01b037f00000000000000000000000000000000000000000000000000000000000000001690638e539e8c90602401602060405180830381865afa158015612210573d5f5f3e3d5ffd5b505050506040513d601f19601f820116820180604052508101906122349190613b47565b61223e9190613b5e565b610a459190613b89565b80545f906fffffffffffffffffffffffffffffffff80821691600160801b9004168103612288576040516375e52f4f60e01b815260040160405180910390fd5b6fffffffffffffffffffffffffffffffff8181165f908152600185810160205260408220805492905585546fffffffffffffffffffffffffffffffff19169301909116919091179092555090565b5f6001600160d01b03821115611aee576040516306dfcc6560e41b815260d0600482015260248101839052604401610d14565b5f80612316858585612947565b915091505b935093915050565b5f306001600160a01b037f00000000000000000000000000000000000000000000000000000000000000001614801561237b57507f000000000000000000000000000000000000000000000000000000000000000046145b156123a557507f000000000000000000000000000000000000000000000000000000000000000090565b610a4b604080517f8b73c3c69bb8fe3d512ecc4cf759cc79239f7b179b0ffacaa9a75d522b39400f60208201527f0000000000000000000000000000000000000000000000000000000000000000918101919091527f000000000000000000000000000000000000000000000000000000000000000060608201524660808201523060a08201525f9060c00160405160208183030381529060405280519060200120905090565b5f5f5f8351604103612483576020840151604085015160608601515f1a61247588828585612abd565b95509550955050505061248e565b505081515f91506002905b9250925092565b5f5f5f856001600160a01b031685856040516024016124b5929190613ba8565b60408051601f198184030181529181526020820180517bffffffffffffffffffffffffffffffffffffffffffffffffffffffff16630b135d3f60e11b179052516124ff91906138e2565b5f60405180830381855afa9150503d805f8114612537576040519150601f19603f3d011682016040523d82523d5f602084013e61253c565b606091505b509150915081801561255057506020815110155b8015610e3c57508051630b135d3f60e11b906125759083016020908101908401613b47565b149695505050505050565b5f8581526009602090815260408083206001600160a01b0388168452600381019092529091205460ff16156125d3576040516371c6af4960e01b81526001600160a01b0386166004820152602401610d14565b6001600160a01b0385165f9081526003820160205260409020805460ff1916600117905560ff841661261c5782815f015f82825461261191906138f8565b909155506118039050565b5f1960ff85160161263a5782816001015f82825461261191906138f8565b60011960ff8516016126595782816002015f82825461261191906138f8565b6040516303599be160e11b815260040160405180910390fd5b5f815f0361268157505f919050565b5f600161268d84612b85565b901c6001901b905060018184816126a6576126a6613b75565b048201901c905060018184816126be576126be613b75565b048201901c905060018184816126d6576126d6613b75565b048201901c905060018184816126ee576126ee613b75565b048201901c9050600181848161270657612706613b75565b048201901c9050600181848161271e5761271e613b75565b048201901c9050600181848161273657612736613b75565b048201901c90506115678182858161275057612750613b75565b04612c18565b5f5b818310156127ad575f61276b8484612c2d565b5f8781526020902090915065ffffffffffff86169082015465ffffffffffff161115612799578092506127a7565b6127a48160016138f8565b93505b50612758565b509392505050565b5f8060f883901c602f811180156127cf5750603a8160ff16105b156127e457600194602f199091019350915050565b8060ff1660401080156127fa575060478160ff16105b1561280f576001946036199091019350915050565b8060ff166060108015612825575060678160ff16105b1561283a576001946056199091019350915050565b505f93849350915050565b5f63ffffffff821115611aee576040516306dfcc6560e41b81526020600482015260248101839052604401610d14565b606060ff831461288f5761288883612c47565b9050610a45565b81805461289b90613695565b80601f01602080910402602001604051908101604052809291908181526020018280546128c790613695565b80156129125780601f106128e957610100808354040283529160200191612912565b820191905f5260205f20905b8154815290600101906020018083116128f557829003601f168201915b50505050509050610a45565b80511561292e5780518082602001fd5b604051630a12f52160e11b815260040160405180910390fd5b82545f9081908015612a63575f61296387611b72600185613779565b60408051808201909152905465ffffffffffff808216808452600160301b9092046001600160d01b0316602084015291925090871610156129b757604051632520601d60e01b815260040160405180910390fd5b805165ffffffffffff808816911603612a0357846129da88611b72600186613779565b80546001600160d01b0392909216600160301b0265ffffffffffff909216919091179055612a53565b6040805180820190915265ffffffffffff80881682526001600160d01b0380881660208085019182528b54600181018d555f8d81529190912094519151909216600160301b029216919091179101555b60200151925083915061231b9050565b50506040805180820190915265ffffffffffff80851682526001600160d01b0380851660208085019182528854600181018a555f8a815291822095519251909316600160301b02919093161792019190915590508161231b565b5f80807f7fffffffffffffffffffffffffffffff5d576e7357a4501ddfe92f46681b20a0841115612af657505f91506003905082612b7b565b604080515f808252602082018084528a905260ff891692820192909252606081018790526080810186905260019060a0016020604051602081039080840390855afa158015612b47573d5f5f3e3d5ffd5b5050604051601f1901519150506001600160a01b038116612b7257505f925060019150829050612b7b565b92505f91508190505b9450945094915050565b5f80608083901c15612b9957608092831c92015b604083901c15612bab57604092831c92015b602083901c15612bbd57602092831c92015b601083901c15612bcf57601092831c92015b600883901c15612be157600892831c92015b600483901c15612bf357600492831c92015b600283901c15612c0557600292831c92015b600183901c15610a455760010192915050565b5f818310612c265781611567565b5090919050565b5f612c3b6002848418613b89565b611567908484166138f8565b60605f612c5383612c84565b6040805160208082528183019092529192505f91906020820181803683375050509182525060208101929092525090565b5f60ff8216601f811115610a4557604051632cd44ac360e21b815260040160405180910390fd5b5f60208284031215612cbb575f5ffd5b81356001600160e01b031981168114611567575f5ffd5b5f60208284031215612ce2575f5ffd5b5035919050565b5f81518084528060208401602086015e5f602082860101526020601f19601f83011685010191505092915050565b602081525f6115676020830184612ce9565b80356001600160a01b0381168114610f01575f5ffd5b634e487b7160e01b5f52604160045260245ffd5b604051601f8201601f1916810167ffffffffffffffff81118282101715612d7c57612d7c612d3f565b604052919050565b5f67ffffffffffffffff821115612d9d57612d9d612d3f565b50601f01601f191660200190565b5f612dbd612db884612d84565b612d53565b9050828152838383011115612dd0575f5ffd5b828260208301375f602084830101529392505050565b5f82601f830112612df5575f5ffd5b61156783833560208501612dab565b5f5f5f5f60808587031215612e17575f5ffd5b612e2085612d29565b9350612e2e60208601612d29565b925060408501359150606085013567ffffffffffffffff811115612e50575f5ffd5b612e5c87828801612de6565b91505092959194509250565b5f67ffffffffffffffff821115612e8157612e81612d3f565b5060051b60200190565b5f82601f830112612e9a575f5ffd5b8135612ea8612db882612e68565b8082825260208201915060208360051b860101925085831115612ec9575f5ffd5b602085015b83811015610b3257612edf81612d29565b835260209283019201612ece565b5f82601f830112612efc575f5ffd5b8135612f0a612db882612e68565b8082825260208201915060208360051b860101925085831115612f2b575f5ffd5b602085015b83811015610b32578035835260209283019201612f30565b5f82601f830112612f57575f5ffd5b8135612f65612db882612e68565b8082825260208201915060208360051b860101925085831115612f86575f5ffd5b602085015b83811015610b3257803567ffffffffffffffff811115612fa9575f5ffd5b612fb8886020838a0101612de6565b84525060209283019201612f8b565b5f5f5f5f60808587031215612fda575f5ffd5b843567ffffffffffffffff811115612ff0575f5ffd5b612ffc87828801612e8b565b945050602085013567ffffffffffffffff811115613018575f5ffd5b61302487828801612eed565b935050604085013567ffffffffffffffff811115613040575f5ffd5b61304c87828801612f48565b949793965093946060013593505050565b634e487b7160e01b5f52602160045260245ffd5b6008811061308d57634e487b7160e01b5f52602160045260245ffd5b9052565b60208101610a458284613071565b5f5f604083850312156130b0575f5ffd5b823591506130c060208401612d29565b90509250929050565b803560ff81168114610f01575f5ffd5b5f5f604083850312156130ea575f5ffd5b823591506130c0602084016130c9565b5f5f83601f84011261310a575f5ffd5b50813567ffffffffffffffff811115613121575f5ffd5b602083019150836020828501011115613138575f5ffd5b9250929050565b5f5f5f5f5f5f5f60c0888a031215613155575f5ffd5b87359650613165602089016130c9565b955061317360408901612d29565b9450606088013567ffffffffffffffff81111561318e575f5ffd5b61319a8a828b016130fa565b909550935050608088013567ffffffffffffffff8111156131b9575f5ffd5b6131c58a828b01612de6565b92505060a088013567ffffffffffffffff8111156131e1575f5ffd5b6131ed8a828b01612de6565b91505092959891949750929550565b5f5f5f5f5f60808688031215613210575f5ffd5b85359450613220602087016130c9565b9350604086013567ffffffffffffffff81111561323b575f5ffd5b613247888289016130fa565b909450925050606086013567ffffffffffffffff811115613266575f5ffd5b61327288828901612de6565b9150509295509295909350565b65ffffffffffff81168114610a61575f5ffd5b5f602082840312156132a2575f5ffd5b81356115678161327f565b5f5f5f5f606085870312156132c0575f5ffd5b843593506132d0602086016130c9565b9250604085013567ffffffffffffffff8111156132eb575f5ffd5b6132f7878288016130fa565b95989497509550505050565b5f5f5f5f60808587031215613316575f5ffd5b843567ffffffffffffffff81111561332c575f5ffd5b61333887828801612e8b565b945050602085013567ffffffffffffffff811115613354575f5ffd5b61336087828801612eed565b935050604085013567ffffffffffffffff81111561337c575f5ffd5b61338887828801612f48565b925050606085013567ffffffffffffffff8111156133a4575f5ffd5b8501601f810187136133b4575f5ffd5b612e5c87823560208401612dab565b5f602082840312156133d3575f5ffd5b61156782612d29565b5f8151808452602084019350602083015f5b8281101561340c5781518652602095860195909101906001016133ee565b5093949350505050565b60ff60f81b8816815260e060208201525f61343460e0830189612ce9565b82810360408401526134468189612ce9565b90508660608401526001600160a01b03861660808401528460a084015282810360c084015261347581856133dc565b9a9950505050505050505050565b5f5f5f5f60808587031215613496575f5ffd5b843593506134a6602086016130c9565b92506134b460408601612d29565b9150606085013567ffffffffffffffff811115612e50575f5ffd5b5f5f5f606084860312156134e1575f5ffd5b6134ea84612d29565b925060208401359150604084013567ffffffffffffffff81111561350c575f5ffd5b61351886828701612de6565b9150509250925092565b5f5f5f5f5f60a08688031215613536575f5ffd5b61353f86612d29565b945061354d60208701612d29565b9350604086013567ffffffffffffffff811115613568575f5ffd5b61357488828901612eed565b935050606086013567ffffffffffffffff811115613590575f5ffd5b61359c88828901612eed565b925050608086013567ffffffffffffffff811115613266575f5ffd5b5f5f5f5f606085870312156135cb575f5ffd5b6135d485612d29565b935060208501359250604085013567ffffffffffffffff8111156132eb575f5ffd5b5f60208284031215613606575f5ffd5b813563ffffffff81168114611567575f5ffd5b5f5f6040838503121561362a575f5ffd5b61363383612d29565b946020939093013593505050565b5f5f5f5f5f60a08688031215613655575f5ffd5b61365e86612d29565b945061366c60208701612d29565b93506040860135925060608601359150608086013567ffffffffffffffff811115613266575f5ffd5b600181811c908216806136a957607f821691505b6020821081036136c757634e487b7160e01b5f52602260045260245ffd5b50919050565b634e487b7160e01b5f52603260045260245ffd5b5f602082840312156136f1575f5ffd5b815167ffffffffffffffff811115613707575f5ffd5b8201601f81018413613717575f5ffd5b8051613725612db882612d84565b818152856020838501011115613739575f5ffd5b8160208401602083015e5f91810160200191909152949350505050565b818382375f9101908152919050565b634e487b7160e01b5f52601160045260245ffd5b81810381811115610a4557610a45613765565b65ffffffffffff8281168282160390811115610a4557610a45613765565b5f602082840312156137ba575f5ffd5b81516115678161327f565b65ffffffffffff8181168382160190811115610a4557610a45613765565b5f8151808452602084019350602083015f5b8281101561340c5781516001600160a01b03168652602095860195909101906001016137f5565b5f82825180855260208501945060208160051b830101602085015f5b8381101561386a57601f19858403018852613854838351612ce9565b6020988901989093509190910190600101613838565b50909695505050505050565b608081525f61388860808301876137e3565b828103602084015261389a81876133dc565b905082810360408401526138ae818661381c565b91505082606083015295945050505050565b838152606081016138d46020830185613071565b826040830152949350505050565b5f82518060208501845e5f920191825250919050565b80820180821115610a4557610a45613765565b60ff8181168382160190811115610a4557610a45613765565b6001815b600184111561231b5780850481111561394357613943613765565b600184161561395157908102905b60019390931c928002613928565b5f8261396d57506001610a45565b8161397957505f610a45565b816001811461398f5760028114613999576139b5565b6001915050610a45565b60ff8411156139aa576139aa613765565b50506001821b610a45565b5060208310610133831016604e8410600b84101617156139d8575081810a610a45565b6139e45f198484613924565b805f19048211156139f7576139f7613765565b029392505050565b5f61156760ff84168361395f565b84815260ff84166020820152826040820152608060608201525f610e3c6080830184612ce9565b85815260ff8516602082015283604082015260a060608201525f613a5b60a0830185612ce9565b828103608084015261126d8185612ce9565b8981526001600160a01b038916602082015261012060408201525f613a9661012083018a6137e3565b8281036060840152613aa8818a6133dc565b9050828103608084015280885180835260208301915060208160051b84010160208b015f5b83811015613aff57601f19868403018552613ae9838351612ce9565b6020958601959093509190910190600101613acd565b505085810360a0870152613b13818b61381c565b93505050508560c08401528460e0840152828103610100840152613b378185612ce9565b9c9b505050505050505050505050565b5f60208284031215613b57575f5ffd5b5051919050565b8082028115828204841417610a4557610a45613765565b634e487b7160e01b5f52601260045260245ffd5b5f82613ba357634e487b7160e01b5f52601260045260245ffd5b500490565b828152604060208201525f610f256040830184612ce956fea164736f6c634300081b000a",
  "linkReferences": {},
  "deployedLinkReferences": {}
}