{
  "_format": "hh-sol-artifact-1",
  "contractName": "TestToken",
  "sourceName": "contracts/test/Token.sol",
  "abi": [
    {
      "inputs": [],
      "stateMutability": "nonpayable",
      "type": "constructor"
    },
    {
      "inputs": [
        {
          "internalType": "address",
          "name": "spender",
          "type": "address"
        },
        {
          "internalType": "uint256",
          "name": "allowance",
          "type": "uint256"
        },
        {
          "internalType": "uint256",
          "name": "needed",
          "type": "uint256"
        }
      ],
      "name": "ERC20InsufficientAllowance",
      "type": "error"
    },
    {
      "inputs": [
        {
          "internalType": "address",
          "name": "sender",
          "type": "address"
        },
        {
          "internalType": "uint256",
          "name": "balance",
          "type": "uint256"
        },
        {
          "internalType": "uint256",
          "name": "needed",
          "type": "uint256"
        }
      ],
      "name": "ERC20InsufficientBalance",
      "type": "error"
    },
    {
      "inputs": [
        {
          "internalType": "address",
          "name": "approver",
          "type": "address"
        }
      ],
      "name": "ERC20InvalidApprover",
      "type": "error"
    },
    {
      "inputs": [
        {
          "internalType": "address",
          "name": "receiver",
          "type": "address"
        }
      ],
      "name": "ERC20InvalidReceiver",
      "type": "error"
    },
    {
      "inputs": [
        {
          "internalType": "address",
          "name": "sender",
          "type": "address"
        }
      ],
      "name": "ERC20InvalidSender",
      "type": "error"
    },
    {
      "inputs": [
        {
          "internalType": "address",
          "name": "spender",
          "type": "address"
        }
      ],
      "name": "ERC20InvalidSpender",
      "type": "error"
    },
    {
      "inputs": [
        {
          "internalType": "address",
          "name": "owner",
          "type": "address"
        }
      ],
      "name": "OwnableInvalidOwner",
      "type": "error"
    },
    {
      "inputs": [
        {
          "internalType": "address",
          "name": "account",
          "type": "address"
        }
      ],
      "name": "OwnableUnauthorizedAccount",
      "type": "error"
    },
    {
      "anonymous": false,
      "inputs": [
        {
          "indexed": true,
          "internalType": "address",
          "name": "owner",
          "type": "address"
        },
        {
          "indexed": true,
          "internalType": "address",
          "name": "spender",
          "type": "address"
        },
        {
          "indexed": false,
          "internalType": "uint256",
          "name": "value",
          "type": "uint256"
        }
      ],
      "name": "Approval",
      "type": "event"
    },
    {
      "anonymous": false,
      "inputs": [
        {
          "indexed": true,
          "internalType": "address",
          "name": "previousOwner",
          "type": "address"
        },
        {
          "indexed": true,
          "internalType": "address",
          "name": "newOwner",
          "type": "address"
        }
      ],
      "name": "OwnershipTransferred",
      "type": "event"
    },
    {
      "anonymous": false,
      "inputs": [
        {
          "indexed": true,
          "internalType": "address",
          "name": "from",
          "type": "address"
        },
        {
          "indexed": true,
          "internalType": "address",
          "name": "to",
          "type": "address"
        },
        {
          "indexed": false,
          "internalType": "uint256",
          "name": "value",
          "type": "uint256"
        }
      ],
      "name": "Transfer",
      "type": "event"
    },
    {
      "inputs": [
        {
          "internalType": "address",
          "name": "owner",
          "type": "address"
        },
        {
          "internalType": "address",
          "name": "spender",
          "type": "address"
        }
      ],
      "name": "allowance",
      "outputs": [
        {
          "internalType": "uint256",
          "name": "",
          "type": "uint256"
        }
      ],
      "stateMutability": "view",
      "type": "function"
    },
    {
      "inputs": [
        {
          "internalType": "address",
          "name": "spender",
          "type": "address"
        },
        {
          "internalType": "uint256",
          "name": "value",
          "type": "uint256"
        }
      ],
      "name": "approve",
      "outputs": [
        {
          "internalType": "bool",
          "name": "",
          "type": "bool"
        }
      ],
      "stateMutability": "nonpayable",
      "type": "function"
    },
    {
      "inputs": [
        {
          "internalType": "address",
          "name": "account",
          "type": "address"
        }
      ],
      "name": "balanceOf",
      "outputs": [
        {
          "internalType": "uint256",
          "name": "",
          "type": "uint256"
        }
      ],
      "stateMutability": "view",
      "type": "function"
    },
    {
      "inputs": [],
      "name": "decimals",
      "outputs": [
        {
          "internalType": "uint8",
          "name": "",
          "type": "uint8"
        }
      ],
      "stateMutability": "view",
      "type": "function"
    },
    {
      "inputs": [
        {
          "internalType": "address",
          "name": "_target",
          "type": "address"
        },
        {
          "internalType": "uint256",
          "name": "_amount",
          "type": "uint256"
        }
      ],
      "name": "mint",
      "outputs": [],
      "stateMutability": "nonpayable",
      "type": "function"
    },
    {
      "inputs": [],
      "name": "name",
      "outputs": [
        {
          "internalType": "string",
          "name": "",
          "type": "string"
        }
      ],
      "stateMutability": "view",
      "type": "function"
    },
    {
      "inputs": [],
      "name": "num",
      "outputs": [
        {
          "internalType": "uint256",
          "name": "",
          "type": "uint256"
        }
      ],
      "stateMutability": "view",
      "type": "function"
    },
    {
      "inputs": [],
      "name": "owner",
      "outputs": [
        {
          "internalType": "address",
          "name": "",
          "type": "address"
        }
      ],
      "stateMutability": "view",
      "type": "function"
    },
    {
      "inputs": [],
      "name": "renounceOwnership",
      "outputs": [],
      "stateMutability": "nonpayable",
      "type": "function"
    },
    {
      "inputs": [
        {
          "internalType": "uint8",
          "name": "d",
          "type": "uint8"
        }
      ],
      "name": "setDecimal",
      "outputs": [],
      "stateMutability": "nonpayable",
      "type": "function"
    },
    {
      "inputs": [
        {
          "internalType": "uint256",
          "name": "_n",
          "type": "uint256"
        }
      ],
      "name": "setNumber",
      "outputs": [],
      "stateMutability": "payable",
      "type": "function"
    },
    {
      "inputs": [],
      "name": "symbol",
      "outputs": [
        {
          "internalType": "string",
          "name": "",
          "type": "string"
        }
      ],
      "stateMutability": "view",
      "type": "function"
    },
    {
      "inputs": [],
      "name": "totalSupply",
      "outputs": [
        {
          "internalType": "uint256",
          "name": "",
          "type": "uint256"
        }
      ],
      "stateMutability": "view",
      "type": "function"
    },
    {
      "inputs": [
        {
          "internalType": "address",
          "name": "to",
          "type": "address"
        },
        {
          "internalType": "uint256",
          "name": "value",
          "type": "uint256"
        }
      ],
      "name": "transfer",
      "outputs": [
        {
          "internalType": "bool",
          "name": "",
          "type": "bool"
        }
      ],
      "stateMutability": "nonpayable",
      "type": "function"
    },
    {
      "inputs": [
        {
          "internalType": "address",
          "name": "from",
          "type": "address"
        },
        {
          "internalType": "address",
          "name": "to",
          "type": "address"
        },
        {
          "internalType": "uint256",
          "name": "value",
          "type": "uint256"
        }
      ],
      "name": "transferFrom",
      "outputs": [
        {
          "internalType": "bool",
          "name": "",
          "type": "bool"
        }
      ],
      "stateMutability": "nonpayable",
      "type": "function"
    },
    {
      "inputs": [
        {
          "internalType": "address",
          "name": "newOwner",
          "type": "address"
        }
      ],
      "name": "transferOwnership",
      "outputs": [],
      "stateMutability": "nonpayable",
      "type": "function"
    }
  ],
  "bytecode": "0x608060405234801561000f575f5ffd5b5033604051806040016040528060098152602001682a32b9ba1029ba3ab160b91b81525060405180604001604052806004815260200163151154d560e21b815250816003908161005f9190610316565b50600461006c8282610316565b5050506001600160a01b03811661009d57604051631e4fbdf760e01b81525f60048201526024015b60405180910390fd5b6100a6816100cf565b506007805460ff191660121790556100ca336b033b2e3c9fd0803ce8000000610120565b6103f5565b600580546001600160a01b038381166001600160a01b0319831681179093556040519116919082907f8be0079c531659141344cd1fd0a4f28419497f9722a3daafe3b4186f6b6457e0905f90a35050565b6001600160a01b0382166101495760405163ec442f0560e01b81525f6004820152602401610094565b6101545f8383610158565b5050565b6001600160a01b038316610182578060025f82825461017791906103d0565b909155506101f29050565b6001600160a01b0383165f90815260208190526040902054818110156101d45760405163391434e360e21b81526001600160a01b03851660048201526024810182905260448101839052606401610094565b6001600160a01b0384165f9081526020819052604090209082900390555b6001600160a01b03821661020e5760028054829003905561022c565b6001600160a01b0382165f9081526020819052604090208054820190555b816001600160a01b0316836001600160a01b03167fddf252ad1be2c89b69c2b068fc378daa952ba7f163c4a11628f55a4df523b3ef8360405161027191815260200190565b60405180910390a3505050565b634e487b7160e01b5f52604160045260245ffd5b600181811c908216806102a657607f821691505b6020821081036102c457634e487b7160e01b5f52602260045260245ffd5b50919050565b601f82111561031157805f5260205f20601f840160051c810160208510156102ef5750805b601f840160051c820191505b8181101561030e575f81556001016102fb565b50505b505050565b81516001600160401b0381111561032f5761032f61027e565b6103438161033d8454610292565b846102ca565b6020601f821160018114610375575f831561035e5750848201515b5f19600385901b1c1916600184901b17845561030e565b5f84815260208120601f198516915b828110156103a45787850151825560209485019460019092019101610384565b50848210156103c157868401515f19600387901b60f8161c191681555b50505050600190811b01905550565b808201808211156103ef57634e487b7160e01b5f52601160045260245ffd5b92915050565b6109d2806104025f395ff3fe6080604052600436106100ef575f3560e01c80634e70b1dc1161008757806395d89b411161005757806395d89b4114610281578063a9059cbb14610295578063dd62ed3e146102b4578063f2fde38b146102f8575f5ffd5b80634e70b1dc146101fd57806370a0823114610212578063715018a6146102465780638da5cb5b1461025a575f5ffd5b806323b872dd116100c257806323b872dd1461018b578063313ce567146101aa5780633fb5c1cb146101cb57806340c10f19146101de575f5ffd5b806306fdde03146100f3578063095ea7b31461011d57806318160ddd1461014c5780631a9a04261461016a575b5f5ffd5b3480156100fe575f5ffd5b50610107610317565b6040516101149190610834565b60405180910390f35b348015610128575f5ffd5b5061013c610137366004610884565b6103a7565b6040519015158152602001610114565b348015610157575f5ffd5b506002545b604051908152602001610114565b348015610175575f5ffd5b506101896101843660046108ac565b6103c0565b005b348015610196575f5ffd5b5061013c6101a53660046108d3565b6103de565b3480156101b5575f5ffd5b5060075460405160ff9091168152602001610114565b6101896101d936600461090d565b600655565b3480156101e9575f5ffd5b506101896101f8366004610884565b610401565b348015610208575f5ffd5b5061015c60065481565b34801561021d575f5ffd5b5061015c61022c366004610924565b6001600160a01b03165f9081526020819052604090205490565b348015610251575f5ffd5b50610189610417565b348015610265575f5ffd5b506005546040516001600160a01b039091168152602001610114565b34801561028c575f5ffd5b5061010761042a565b3480156102a0575f5ffd5b5061013c6102af366004610884565b610439565b3480156102bf575f5ffd5b5061015c6102ce36600461093d565b6001600160a01b039182165f90815260016020908152604080832093909416825291909152205490565b348015610303575f5ffd5b50610189610312366004610924565b610446565b6060600380546103269061096e565b80601f01602080910402602001604051908101604052809291908181526020018280546103529061096e565b801561039d5780601f106103745761010080835404028352916020019161039d565b820191905f5260205f20905b81548152906001019060200180831161038057829003601f168201915b5050505050905090565b5f336103b4818585610488565b60019150505b92915050565b6103c861049a565b6007805460ff191660ff92909216919091179055565b5f336103eb8582856104c7565b6103f6858585610542565b506001949350505050565b61040961049a565b610413828261059f565b5050565b61041f61049a565b6104285f6105d3565b565b6060600480546103269061096e565b5f336103b4818585610542565b61044e61049a565b6001600160a01b03811661047c57604051631e4fbdf760e01b81525f60048201526024015b60405180910390fd5b610485816105d3565b50565b610495838383600161063c565b505050565b6005546001600160a01b031633146104285760405163118cdaa760e01b8152336004820152602401610473565b6001600160a01b038381165f908152600160209081526040808320938616835292905220545f19811461053c578181101561052e57604051637dc7a0d960e11b81526001600160a01b03841660048201526024810182905260448101839052606401610473565b61053c84848484035f61063c565b50505050565b6001600160a01b03831661056b57604051634b637e8f60e11b81525f6004820152602401610473565b6001600160a01b0382166105945760405163ec442f0560e01b81525f6004820152602401610473565b61049583838361070e565b6001600160a01b0382166105c85760405163ec442f0560e01b81525f6004820152602401610473565b6104135f838361070e565b600580546001600160a01b038381167fffffffffffffffffffffffff0000000000000000000000000000000000000000831681179093556040519116919082907f8be0079c531659141344cd1fd0a4f28419497f9722a3daafe3b4186f6b6457e0905f90a35050565b6001600160a01b0384166106655760405163e602df0560e01b81525f6004820152602401610473565b6001600160a01b03831661068e57604051634a1406b160e11b81525f6004820152602401610473565b6001600160a01b038085165f908152600160209081526040808320938716835292905220829055801561053c57826001600160a01b0316846001600160a01b03167f8c5be1e5ebec7d5bd14f71427d1e84f3dd0314c0f7b2291e5b200ac8c7c3b9258460405161070091815260200190565b60405180910390a350505050565b6001600160a01b038316610738578060025f82825461072d91906109a6565b909155506107a89050565b6001600160a01b0383165f908152602081905260409020548181101561078a5760405163391434e360e21b81526001600160a01b03851660048201526024810182905260448101839052606401610473565b6001600160a01b0384165f9081526020819052604090209082900390555b6001600160a01b0382166107c4576002805482900390556107e2565b6001600160a01b0382165f9081526020819052604090208054820190555b816001600160a01b0316836001600160a01b03167fddf252ad1be2c89b69c2b068fc378daa952ba7f163c4a11628f55a4df523b3ef8360405161082791815260200190565b60405180910390a3505050565b602081525f82518060208401528060208501604085015e5f604082850101526040601f19601f83011684010191505092915050565b80356001600160a01b038116811461087f575f5ffd5b919050565b5f5f60408385031215610895575f5ffd5b61089e83610869565b946020939093013593505050565b5f602082840312156108bc575f5ffd5b813560ff811681146108cc575f5ffd5b9392505050565b5f5f5f606084860312156108e5575f5ffd5b6108ee84610869565b92506108fc60208501610869565b929592945050506040919091013590565b5f6020828403121561091d575f5ffd5b5035919050565b5f60208284031215610934575f5ffd5b6108cc82610869565b5f5f6040838503121561094e575f5ffd5b61095783610869565b915061096560208401610869565b90509250929050565b600181811c9082168061098257607f821691505b6020821081036109a057634e487b7160e01b5f52602260045260245ffd5b50919050565b808201808211156103ba57634e487b7160e01b5f52601160045260245ffdfea164736f6c634300081b000a",
  "linkReferences": {},
  "deployedLinkReferences": {}
}