{
  "_format": "hh-sol-artifact-1",
  "contractName": "TestToken",
  "sourceName": "contracts/test/Token.sol",
  "abi": [
    {
      "inputs": [],
      "stateMutability": "nonpayable",
      "type": "constructor"
    },
    {
      "inputs": [
        {
          "internalType": "address",
          "name": "spender",
          "type": "address"
        },
        {
          "internalType": "uint256",
          "name": "allowance",
          "type": "uint256"
        },
        {
          "internalType": "uint256",
          "name": "needed",
          "type": "uint256"
        }
      ],
      "name": "ERC20InsufficientAllowance",
      "type": "error"
    },
    {
      "inputs": [
        {
          "internalType": "address",
          "name": "sender",
          "type": "address"
        },
        {
          "internalType": "uint256",
          "name": "balance",
          "type": "uint256"
        },
        {
          "internalType": "uint256",
          "name": "needed",
          "type": "uint256"
        }
      ],
      "name": "ERC20InsufficientBalance",
      "type": "error"
    },
    {
      "inputs": [
        {
          "internalType": "address",
          "name": "approver",
          "type": "address"
        }
      ],
      "name": "ERC20InvalidApprover",
      "type": "error"
    },
    {
      "inputs": [
        {
          "internalType": "address",
          "name": "receiver",
          "type": "address"
        }
      ],
      "name": "ERC20InvalidReceiver",
      "type": "error"
    },
    {
      "inputs": [
        {
          "internalType": "address",
          "name": "sender",
          "type": "address"
        }
      ],
      "name": "ERC20InvalidSender",
      "type": "error"
    },
    {
      "inputs": [
        {
          "internalType": "address",
          "name": "spender",
          "type": "address"
        }
      ],
      "name": "ERC20InvalidSpender",
      "type": "error"
    },
    {
      "inputs": [
        {
          "internalType": "address",
          "name": "owner",
          "type": "address"
        }
      ],
      "name": "OwnableInvalidOwner",
      "type": "error"
    },
    {
      "inputs": [
        {
          "internalType": "address",
          "name": "account",
          "type": "address"
        }
      ],
      "name": "OwnableUnauthorizedAccount",
      "type": "error"
    },
    {
      "anonymous": false,
      "inputs": [
        {
          "indexed": true,
          "internalType": "address",
          "name": "owner",
          "type": "address"
        },
        {
          "indexed": true,
          "internalType": "address",
          "name": "spender",
          "type": "address"
        },
        {
          "indexed": false,
          "internalType": "uint256",
          "name": "value",
          "type": "uint256"
        }
      ],
      "name": "Approval",
      "type": "event"
    },
    {
      "anonymous": false,
      "inputs": [
        {
          "indexed": true,
          "internalType": "address",
          "name": "previousOwner",
          "type": "address"
        },
        {
          "indexed": true,
          "internalType": "address",
          "name": "newOwner",
          "type": "address"
        }
      ],
      "name": "OwnershipTransferred",
      "type": "event"
    },
    {
      "anonymous": false,
      "inputs": [
        {
          "indexed": true,
          "internalType": "address",
          "name": "from",
          "type": "address"
        },
        {
          "indexed": true,
          "internalType": "address",
          "name": "to",
          "type": "address"
        },
        {
          "indexed": false,
          "internalType": "uint256",
          "name": "value",
          "type": "uint256"
        }
      ],
      "name": "Transfer",
      "type": "event"
    },
    {
      "inputs": [
        {
          "internalType": "address",
          "name": "owner",
          "type": "address"
        },
        {
          "internalType": "address",
          "name": "spender",
          "type": "address"
        }
      ],
      "name": "allowance",
      "outputs": [
        {
          "internalType": "uint256",
          "name": "",
          "type": "uint256"
        }
      ],
      "stateMutability": "view",
      "type": "function"
    },
    {
      "inputs": [
        {
          "internalType": "address",
          "name": "spender",
          "type": "address"
        },
        {
          "internalType": "uint256",
          "name": "value",
          "type": "uint256"
        }
      ],
      "name": "approve",
      "outputs": [
        {
          "internalType": "bool",
          "name": "",
          "type": "bool"
        }
      ],
      "stateMutability": "nonpayable",
      "type": "function"
    },
    {
      "inputs": [
        {
          "internalType": "address",
          "name": "account",
          "type": "address"
        }
      ],
      "name": "balanceOf",
      "outputs": [
        {
          "internalType": "uint256",
          "name": "",
          "type": "uint256"
        }
      ],
      "stateMutability": "view",
      "type": "function"
    },
    {
      "inputs": [],
      "name": "decimals",
      "outputs": [
        {
          "internalType": "uint8",
          "name": "",
          "type": "uint8"
        }
      ],
      "stateMutability": "view",
      "type": "function"
    },
    {
      "inputs": [
        {
          "internalType": "address",
          "name": "_target",
          "type": "address"
        },
        {
          "internalType": "uint256",
          "name": "_amount",
          "type": "uint256"
        }
      ],
      "name": "mint",
      "outputs": [],
      "stateMutability": "nonpayable",
      "type": "function"
    },
    {
      "inputs": [],
      "name": "name",
      "outputs": [
        {
          "internalType": "string",
          "name": "",
          "type": "string"
        }
      ],
      "stateMutability": "view",
      "type": "function"
    },
    {
      "inputs": [],
      "name": "num",
      "outputs": [
        {
          "internalType": "uint256",
          "name": "",
          "type": "uint256"
        }
      ],
      "stateMutability": "view",
      "type": "function"
    },
    {
      "inputs": [],
      "name": "owner",
      "outputs": [
        {
          "internalType": "address",
          "name": "",
          "type": "address"
        }
      ],
      "stateMutability": "view",
      "type": "function"
    },
    {
      "inputs": [],
      "name": "renounceOwnership",
      "outputs": [],
      "stateMutability": "nonpayable",
      "type": "function"
    },
    {
      "inputs": [
        {
          "internalType": "uint256",
          "name": "_n",
          "type": "uint256"
        }
      ],
      "name": "setNumber",
      "outputs": [],
      "stateMutability": "payable",
      "type": "function"
    },
    {
      "inputs": [],
      "name": "symbol",
      "outputs": [
        {
          "internalType": "string",
          "name": "",
          "type": "string"
        }
      ],
      "stateMutability": "view",
      "type": "function"
    },
    {
      "inputs": [],
      "name": "totalSupply",
      "outputs": [
        {
          "internalType": "uint256",
          "name": "",
          "type": "uint256"
        }
      ],
      "stateMutability": "view",
      "type": "function"
    },
    {
      "inputs": [
        {
          "internalType": "address",
          "name": "to",
          "type": "address"
        },
        {
          "internalType": "uint256",
          "name": "value",
          "type": "uint256"
        }
      ],
      "name": "transfer",
      "outputs": [
        {
          "internalType": "bool",
          "name": "",
          "type": "bool"
        }
      ],
      "stateMutability": "nonpayable",
      "type": "function"
    },
    {
      "inputs": [
        {
          "internalType": "address",
          "name": "from",
          "type": "address"
        },
        {
          "internalType": "address",
          "name": "to",
          "type": "address"
        },
        {
          "internalType": "uint256",
          "name": "value",
          "type": "uint256"
        }
      ],
      "name": "transferFrom",
      "outputs": [
        {
          "internalType": "bool",
          "name": "",
          "type": "bool"
        }
      ],
      "stateMutability": "nonpayable",
      "type": "function"
    },
    {
      "inputs": [
        {
          "internalType": "address",
          "name": "newOwner",
          "type": "address"
        }
      ],
      "name": "transferOwnership",
      "outputs": [],
      "stateMutability": "nonpayable",
      "type": "function"
    }
  ],
  "bytecode": "0x608060405234801561000f575f80fd5b5033604051806040016040528060098152602001682a32b9ba1029ba3ab160b91b81525060405180604001604052806004815260200163151154d560e21b815250816003908161005f9190610194565b50600461006c8282610194565b5050506001600160a01b03811661009c57604051631e4fbdf760e01b81525f600482015260240160405180910390fd5b6100a5816100ab565b5061024e565b600580546001600160a01b038381166001600160a01b0319831681179093556040519116919082907f8be0079c531659141344cd1fd0a4f28419497f9722a3daafe3b4186f6b6457e0905f90a35050565b634e487b7160e01b5f52604160045260245ffd5b600181811c9082168061012457607f821691505b60208210810361014257634e487b7160e01b5f52602260045260245ffd5b50919050565b601f82111561018f57805f5260205f20601f840160051c8101602085101561016d5750805b601f840160051c820191505b8181101561018c575f8155600101610179565b50505b505050565b81516001600160401b038111156101ad576101ad6100fc565b6101c1816101bb8454610110565b84610148565b6020601f8211600181146101f3575f83156101dc5750848201515b5f19600385901b1c1916600184901b17845561018c565b5f84815260208120601f198516915b828110156102225787850151825560209485019460019092019101610202565b508482101561023f57868401515f19600387901b60f8161c191681555b50505050600190811b01905550565b6109648061025b5f395ff3fe6080604052600436106100e4575f3560e01c80634e70b1dc1161008757806395d89b411161005757806395d89b4114610251578063a9059cbb14610265578063dd62ed3e14610284578063f2fde38b146102c8575f80fd5b80634e70b1dc146101cd57806370a08231146101e2578063715018a6146102165780638da5cb5b1461022a575f80fd5b806323b872dd116100c257806323b872dd1461015f578063313ce5671461017e5780633fb5c1cb1461019957806340c10f19146101ae575f80fd5b806306fdde03146100e8578063095ea7b31461011257806318160ddd14610141575b5f80fd5b3480156100f3575f80fd5b506100fc6102e7565b60405161010991906107e6565b60405180910390f35b34801561011d575f80fd5b5061013161012c366004610836565b610377565b6040519015158152602001610109565b34801561014c575f80fd5b506002545b604051908152602001610109565b34801561016a575f80fd5b5061013161017936600461085e565b610390565b348015610189575f80fd5b5060405160128152602001610109565b6101ac6101a7366004610898565b600655565b005b3480156101b9575f80fd5b506101ac6101c8366004610836565b6103b3565b3480156101d8575f80fd5b5061015160065481565b3480156101ed575f80fd5b506101516101fc3660046108af565b6001600160a01b03165f9081526020819052604090205490565b348015610221575f80fd5b506101ac6103c9565b348015610235575f80fd5b506005546040516001600160a01b039091168152602001610109565b34801561025c575f80fd5b506100fc6103dc565b348015610270575f80fd5b5061013161027f366004610836565b6103eb565b34801561028f575f80fd5b5061015161029e3660046108cf565b6001600160a01b039182165f90815260016020908152604080832093909416825291909152205490565b3480156102d3575f80fd5b506101ac6102e23660046108af565b6103f8565b6060600380546102f690610900565b80601f016020809104026020016040519081016040528092919081815260200182805461032290610900565b801561036d5780601f106103445761010080835404028352916020019161036d565b820191905f5260205f20905b81548152906001019060200180831161035057829003601f168201915b5050505050905090565b5f3361038481858561043a565b60019150505b92915050565b5f3361039d85828561044c565b6103a88585856104c7565b506001949350505050565b6103bb610524565b6103c58282610551565b5050565b6103d1610524565b6103da5f610585565b565b6060600480546102f690610900565b5f336103848185856104c7565b610400610524565b6001600160a01b03811661042e57604051631e4fbdf760e01b81525f60048201526024015b60405180910390fd5b61043781610585565b50565b61044783838360016105ee565b505050565b6001600160a01b038381165f908152600160209081526040808320938616835292905220545f1981146104c157818110156104b357604051637dc7a0d960e11b81526001600160a01b03841660048201526024810182905260448101839052606401610425565b6104c184848484035f6105ee565b50505050565b6001600160a01b0383166104f057604051634b637e8f60e11b81525f6004820152602401610425565b6001600160a01b0382166105195760405163ec442f0560e01b81525f6004820152602401610425565b6104478383836106c0565b6005546001600160a01b031633146103da5760405163118cdaa760e01b8152336004820152602401610425565b6001600160a01b03821661057a5760405163ec442f0560e01b81525f6004820152602401610425565b6103c55f83836106c0565b600580546001600160a01b038381167fffffffffffffffffffffffff0000000000000000000000000000000000000000831681179093556040519116919082907f8be0079c531659141344cd1fd0a4f28419497f9722a3daafe3b4186f6b6457e0905f90a35050565b6001600160a01b0384166106175760405163e602df0560e01b81525f6004820152602401610425565b6001600160a01b03831661064057604051634a1406b160e11b81525f6004820152602401610425565b6001600160a01b038085165f90815260016020908152604080832093871683529290522082905580156104c157826001600160a01b0316846001600160a01b03167f8c5be1e5ebec7d5bd14f71427d1e84f3dd0314c0f7b2291e5b200ac8c7c3b925846040516106b291815260200190565b60405180910390a350505050565b6001600160a01b0383166106ea578060025f8282546106df9190610938565b9091555061075a9050565b6001600160a01b0383165f908152602081905260409020548181101561073c5760405163391434e360e21b81526001600160a01b03851660048201526024810182905260448101839052606401610425565b6001600160a01b0384165f9081526020819052604090209082900390555b6001600160a01b03821661077657600280548290039055610794565b6001600160a01b0382165f9081526020819052604090208054820190555b816001600160a01b0316836001600160a01b03167fddf252ad1be2c89b69c2b068fc378daa952ba7f163c4a11628f55a4df523b3ef836040516107d991815260200190565b60405180910390a3505050565b602081525f82518060208401528060208501604085015e5f604082850101526040601f19601f83011684010191505092915050565b80356001600160a01b0381168114610831575f80fd5b919050565b5f8060408385031215610847575f80fd5b6108508361081b565b946020939093013593505050565b5f805f60608486031215610870575f80fd5b6108798461081b565b92506108876020850161081b565b929592945050506040919091013590565b5f602082840312156108a8575f80fd5b5035919050565b5f602082840312156108bf575f80fd5b6108c88261081b565b9392505050565b5f80604083850312156108e0575f80fd5b6108e98361081b565b91506108f76020840161081b565b90509250929050565b600181811c9082168061091457607f821691505b60208210810361093257634e487b7160e01b5f52602260045260245ffd5b50919050565b8082018082111561038a57634e487b7160e01b5f52601160045260245ffdfea164736f6c634300081a000a",
  "linkReferences": {},
  "deployedLinkReferences": {}
}