{
  "_format": "hh-sol-artifact-1",
  "contractName": "RateLimiterCallee",
  "sourceName": "contracts/test/RateLimiterTest.sol",
  "abi": [
    {
      "inputs": [
        {
          "internalType": "uint256",
          "name": "limit",
          "type": "uint256"
        },
        {
          "internalType": "bool",
          "name": "checkSender",
          "type": "bool"
        }
      ],
      "stateMutability": "nonpayable",
      "type": "constructor"
    },
    {
      "inputs": [],
      "name": "RateLimitExceeded",
      "type": "error"
    },
    {
      "inputs": [],
      "name": "RequestTooFrequent",
      "type": "error"
    },
    {
      "inputs": [],
      "name": "TooManyRequest",
      "type": "error"
    },
    {
      "inputs": [],
      "name": "REQUEST_PER_BLOCK",
      "outputs": [
        {
          "internalType": "uint256",
          "name": "",
          "type": "uint256"
        }
      ],
      "stateMutability": "view",
      "type": "function"
    },
    {
      "inputs": [],
      "name": "test1",
      "outputs": [],
      "stateMutability": "nonpayable",
      "type": "function"
    },
    {
      "inputs": [
        {
          "internalType": "address",
          "name": "caller",
          "type": "address"
        },
        {
          "internalType": "uint256",
          "name": "count",
          "type": "uint256"
        }
      ],
      "name": "test2",
      "outputs": [],
      "stateMutability": "nonpayable",
      "type": "function"
    }
  ],
  "bytecode": "0x60c0604052348015600e575f5ffd5b506040516102d03803806102d0833981016040819052602b91603a565b608091909152151560a052606a565b5f5f60408385031215604a575f5ffd5b8251915060208301518015158114605f575f5ffd5b809150509250929050565b60805160a0516102406100905f395f60ba01525f81816048015261018a01526102405ff3fe608060405234801561000f575f5ffd5b506004361061003f575f3560e01c80633396c809146100435780636b59084d1461007c578063bc07c44314610086575b5f5ffd5b61006a7f000000000000000000000000000000000000000000000000000000000000000081565b60405190815260200160405180910390f35b610084610099565b005b6100846100943660046101cc565b6100a6565b6100a43360016100b8565b565b81816100b282826100b8565b50505050565b7f00000000000000000000000000000000000000000000000000000000000000001561014b5773ffffffffffffffffffffffffffffffffffffffff82165f9081526002602052604090205443900361012357604051631736a31960e01b815260040160405180910390fd5b73ffffffffffffffffffffffffffffffffffffffff82165f9081526002602052604090204390555b805f03610156575050565b5f54430361017c57805f6001015f828254610171919061020e565b909155506101859050565b435f5560018190555b6001547f000000000000000000000000000000000000000000000000000000000000000010156101c85760405163a74c1c5f60e01b815260040160405180910390fd5b5050565b5f5f604083850312156101dd575f5ffd5b823573ffffffffffffffffffffffffffffffffffffffff81168114610200575f5ffd5b946020939093013593505050565b8082018082111561022d57634e487b7160e01b5f52601160045260245ffd5b9291505056fea164736f6c634300081b000a",
  "linkReferences": {},
  "deployedLinkReferences": {}
}