{
  "_format": "hh-sol-artifact-1",
  "contractName": "RateLimiterCaller",
  "sourceName": "contracts/test/RateLimiterTest.sol",
  "abi": [
    {
      "inputs": [
        {
          "internalType": "contract RateLimiterCallee",
          "name": "t",
          "type": "address"
        }
      ],
      "stateMutability": "nonpayable",
      "type": "constructor"
    },
    {
      "inputs": [],
      "name": "test1",
      "outputs": [],
      "stateMutability": "nonpayable",
      "type": "function"
    },
    {
      "inputs": [
        {
          "internalType": "address",
          "name": "caller",
          "type": "address"
        },
        {
          "internalType": "uint256",
          "name": "count",
          "type": "uint256"
        }
      ],
      "name": "test2",
      "outputs": [],
      "stateMutability": "nonpayable",
      "type": "function"
    }
  ],
  "bytecode": "0x60a0604052348015600e575f5ffd5b50604051610233380380610233833981016040819052602b91603b565b6001600160a01b03166080526066565b5f60208284031215604a575f5ffd5b81516001600160a01b0381168114605f575f5ffd5b9392505050565b6080516101af6100845f395f81816057015261010501526101af5ff3fe608060405234801561000f575f5ffd5b5060043610610034575f3560e01c80636b59084d14610038578063bc07c44314610042575b5f5ffd5b610040610055565b005b610040610050366004610160565b6100d2565b7f000000000000000000000000000000000000000000000000000000000000000073ffffffffffffffffffffffffffffffffffffffff16636b59084d6040518163ffffffff1660e01b81526004015f604051808303815f87803b1580156100ba575f5ffd5b505af11580156100cc573d5f5f3e3d5ffd5b50505050565b60405163bc07c44360e01b815273ffffffffffffffffffffffffffffffffffffffff8381166004830152602482018390527f0000000000000000000000000000000000000000000000000000000000000000169063bc07c443906044015f604051808303815f87803b158015610146575f5ffd5b505af1158015610158573d5f5f3e3d5ffd5b505050505050565b5f5f60408385031215610171575f5ffd5b823573ffffffffffffffffffffffffffffffffffffffff81168114610194575f5ffd5b94602093909301359350505056fea164736f6c634300081b000a",
  "linkReferences": {},
  "deployedLinkReferences": {}
}