{
  "_format": "hh-sol-artifact-1",
  "contractName": "RateLimiterTest",
  "sourceName": "contracts/test/RateLimiterTest.sol",
  "abi": [
    {
      "inputs": [],
      "stateMutability": "nonpayable",
      "type": "constructor"
    },
    {
      "inputs": [],
      "name": "RateLimitExceeded",
      "type": "error"
    },
    {
      "inputs": [],
      "name": "RequestTooFrequent",
      "type": "error"
    },
    {
      "inputs": [],
      "name": "TooManyRequest",
      "type": "error"
    },
    {
      "inputs": [],
      "name": "REQUEST_PER_BLOCK",
      "outputs": [
        {
          "internalType": "uint256",
          "name": "",
          "type": "uint256"
        }
      ],
      "stateMutability": "view",
      "type": "function"
    },
    {
      "inputs": [],
      "name": "fail1",
      "outputs": [],
      "stateMutability": "nonpayable",
      "type": "function"
    },
    {
      "inputs": [],
      "name": "fail2",
      "outputs": [],
      "stateMutability": "nonpayable",
      "type": "function"
    },
    {
      "inputs": [],
      "name": "fail3",
      "outputs": [],
      "stateMutability": "nonpayable",
      "type": "function"
    },
    {
      "inputs": [],
      "name": "fail4",
      "outputs": [],
      "stateMutability": "nonpayable",
      "type": "function"
    },
    {
      "inputs": [],
      "name": "pass1",
      "outputs": [],
      "stateMutability": "nonpayable",
      "type": "function"
    },
    {
      "inputs": [],
      "name": "pass2",
      "outputs": [],
      "stateMutability": "nonpayable",
      "type": "function"
    },
    {
      "inputs": [],
      "name": "pass3",
      "outputs": [],
      "stateMutability": "nonpayable",
      "type": "function"
    },
    {
      "inputs": [],
      "name": "pass4",
      "outputs": [],
      "stateMutability": "nonpayable",
      "type": "function"
    },
    {
      "inputs": [],
      "name": "pass5",
      "outputs": [],
      "stateMutability": "nonpayable",
      "type": "function"
    },
    {
      "inputs": [],
      "name": "pass6",
      "outputs": [],
      "stateMutability": "nonpayable",
      "type": "function"
    },
    {
      "inputs": [],
      "name": "pass7",
      "outputs": [],
      "stateMutability": "nonpayable",
      "type": "function"
    }
  ],
  "bytecode": "0x60c0604052348015600e575f5ffd5b505f608081905260a08190528061126c61003282395f50505f60fa015261126c5ff3fe608060405234801561000f575f5ffd5b50600436106100cf575f3560e01c8063784c96581161007d5780637cc9aae2116100585780637cc9aae21461014e5780639c62e30b14610156578063c3519a751461015e575f5ffd5b8063784c96581461013657806378e7b03e1461013e5780637b01358814610146575f5ffd5b806331fe8768116100ad57806331fe8768146100ed5780633396c809146100f55780637762551c1461012e575f5ffd5b8063191e5d18146100d35780632c3e1032146100dd5780632e3d505d146100e5575b5f5ffd5b6100db610166565b005b6100db61033e565b6100db6104a8565b6100db61058e565b61011c7f000000000000000000000000000000000000000000000000000000000000000081565b60405190815260200160405180910390f35b6100db6106a1565b6100db6106b2565b6100db610888565b6100db6109cd565b6100db6109dd565b6100db610ac3565b6100db610c88565b5f6002600160405161017790610d42565b91825215156020820152604001604051809103905ff08015801561019d573d5f5f3e3d5ffd5b5090505f816040516101ae90610d4f565b6001600160a01b039091168152602001604051809103905ff0801580156101d7573d5f5f3e3d5ffd5b5090505f826040516101e890610d4f565b6001600160a01b039091168152602001604051809103905ff080158015610211573d5f5f3e3d5ffd5b5090505f8360405161022290610d4f565b6001600160a01b039091168152602001604051809103905ff08015801561024b573d5f5f3e3d5ffd5b509050826001600160a01b0316636b59084d6040518163ffffffff1660e01b81526004015f604051808303815f87803b158015610286575f5ffd5b505af1158015610298573d5f5f3e3d5ffd5b50505050816001600160a01b0316636b59084d6040518163ffffffff1660e01b81526004015f604051808303815f87803b1580156102d4575f5ffd5b505af11580156102e6573d5f5f3e3d5ffd5b50505050806001600160a01b0316636b59084d6040518163ffffffff1660e01b81526004015f604051808303815f87803b158015610322575f5ffd5b505af1158015610334573d5f5f3e3d5ffd5b5050505050505050565b5f6003600160405161034f90610d42565b91825215156020820152604001604051809103905ff080158015610375573d5f5f3e3d5ffd5b5090505f8160405161038690610d4f565b6001600160a01b039091168152602001604051809103905ff0801580156103af573d5f5f3e3d5ffd5b5090505f826040516103c090610d4f565b6001600160a01b039091168152602001604051809103905ff0801580156103e9573d5f5f3e3d5ffd5b5060405163bc07c44360e01b8152336004820152600160248201529091506001600160a01b0383169063bc07c443906044015f604051808303815f87803b158015610432575f5ffd5b505af1158015610444573d5f5f3e3d5ffd5b505060405163bc07c44360e01b8152416004820152600160248201526001600160a01b038416925063bc07c44391506044015f604051808303815f87803b15801561048d575f5ffd5b505af115801561049f573d5f5f3e3d5ffd5b50505050505050565b5f600260016040516104b990610d42565b91825215156020820152604001604051809103905ff0801580156104df573d5f5f3e3d5ffd5b5090505f816040516104f090610d4f565b6001600160a01b039091168152602001604051809103905ff080158015610519573d5f5f3e3d5ffd5b5090505f8260405161052a90610d4f565b6001600160a01b039091168152602001604051809103905ff080158015610553573d5f5f3e3d5ffd5b509050816001600160a01b0316636b59084d6040518163ffffffff1660e01b81526004015f604051808303815f87803b158015610432575f5ffd5b5f60025f60405161059e90610d42565b91825215156020820152604001604051809103905ff0801580156105c4573d5f5f3e3d5ffd5b5090505f816040516105d590610d4f565b6001600160a01b039091168152602001604051809103905ff0801580156105fe573d5f5f3e3d5ffd5b509050806001600160a01b0316636b59084d6040518163ffffffff1660e01b81526004015f604051808303815f87803b158015610639575f5ffd5b505af115801561064b573d5f5f3e3d5ffd5b50505050806001600160a01b0316636b59084d6040518163ffffffff1660e01b81526004015f604051808303815f87803b158015610687575f5ffd5b505af1158015610699573d5f5f3e3d5ffd5b505050505050565b5f6002600160405161059e90610d42565b5f600260016040516106c390610d42565b91825215156020820152604001604051809103905ff0801580156106e9573d5f5f3e3d5ffd5b5090505f816040516106fa90610d4f565b6001600160a01b039091168152602001604051809103905ff080158015610723573d5f5f3e3d5ffd5b5090505f8260405161073490610d4f565b6001600160a01b039091168152602001604051809103905ff08015801561075d573d5f5f3e3d5ffd5b5090505f8360405161076e90610d4f565b6001600160a01b039091168152602001604051809103905ff080158015610797573d5f5f3e3d5ffd5b509050826001600160a01b0316636b59084d6040518163ffffffff1660e01b81526004015f604051808303815f87803b1580156107d2575f5ffd5b505af11580156107e4573d5f5f3e3d5ffd5b505060405163bc07c44360e01b81523360048201525f60248201526001600160a01b038516925063bc07c44391506044015f604051808303815f87803b15801561082c575f5ffd5b505af115801561083e573d5f5f3e3d5ffd5b505060405163bc07c44360e01b8152416004820152600160248201526001600160a01b038416925063bc07c44391506044015b5f604051808303815f87803b158015610322575f5ffd5b5f6002600160405161089990610d42565b91825215156020820152604001604051809103905ff0801580156108bf573d5f5f3e3d5ffd5b5090505f816040516108d090610d4f565b6001600160a01b039091168152602001604051809103905ff0801580156108f9573d5f5f3e3d5ffd5b5090505f8260405161090a90610d4f565b6001600160a01b039091168152602001604051809103905ff080158015610933573d5f5f3e3d5ffd5b5060405163bc07c44360e01b81526001600160a01b038083166004830152600160248301529192509083169063bc07c443906044015f604051808303815f87803b15801561097f575f5ffd5b505af1158015610991573d5f5f3e3d5ffd5b50505050806001600160a01b0316636b59084d6040518163ffffffff1660e01b81526004015f604051808303815f87803b15801561048d575f5ffd5b5f60025f6040516104b990610d42565b5f600260016040516109ee90610d42565b91825215156020820152604001604051809103905ff080158015610a14573d5f5f3e3d5ffd5b5090505f81604051610a2590610d4f565b6001600160a01b039091168152602001604051809103905ff080158015610a4e573d5f5f3e3d5ffd5b5090505f82604051610a5f90610d4f565b6001600160a01b039091168152602001604051809103905ff080158015610a88573d5f5f3e3d5ffd5b509050816001600160a01b0316636b59084d6040518163ffffffff1660e01b81526004015f604051808303815f87803b15801561097f575f5ffd5b5f60026001604051610ad490610d42565b91825215156020820152604001604051809103905ff080158015610afa573d5f5f3e3d5ffd5b5090505f81604051610b0b90610d4f565b6001600160a01b039091168152602001604051809103905ff080158015610b34573d5f5f3e3d5ffd5b5090505f82604051610b4590610d4f565b6001600160a01b039091168152602001604051809103905ff080158015610b6e573d5f5f3e3d5ffd5b5090505f83604051610b7f90610d4f565b6001600160a01b039091168152602001604051809103905ff080158015610ba8573d5f5f3e3d5ffd5b509050826001600160a01b0316636b59084d6040518163ffffffff1660e01b81526004015f604051808303815f87803b158015610be3575f5ffd5b505af1158015610bf5573d5f5f3e3d5ffd5b505060405163bc07c44360e01b81526001600160a01b038481166004830152600160248301528516925063bc07c44391506044015f604051808303815f87803b158015610c40575f5ffd5b505af1158015610c52573d5f5f3e3d5ffd5b505060405163bc07c44360e01b81524160048201525f60248201526001600160a01b038416925063bc07c4439150604401610871565b5f60026001604051610c9990610d42565b91825215156020820152604001604051809103905ff080158015610cbf573d5f5f3e3d5ffd5b5090505f81604051610cd090610d4f565b6001600160a01b039091168152602001604051809103905ff080158015610cf9573d5f5f3e3d5ffd5b5060405163bc07c44360e01b8152336004820152600360248201529091506001600160a01b0382169063bc07c443906044015f604051808303815f87803b158015610687575f5ffd5b6102d080610d5d83390190565b6102338061102d8339019056fe60c0604052348015600e575f5ffd5b506040516102d03803806102d0833981016040819052602b91603a565b608091909152151560a052606a565b5f5f60408385031215604a575f5ffd5b8251915060208301518015158114605f575f5ffd5b809150509250929050565b60805160a0516102406100905f395f60ba01525f81816048015261018a01526102405ff3fe608060405234801561000f575f5ffd5b506004361061003f575f3560e01c80633396c809146100435780636b59084d1461007c578063bc07c44314610086575b5f5ffd5b61006a7f000000000000000000000000000000000000000000000000000000000000000081565b60405190815260200160405180910390f35b610084610099565b005b6100846100943660046101cc565b6100a6565b6100a43360016100b8565b565b81816100b282826100b8565b50505050565b7f00000000000000000000000000000000000000000000000000000000000000001561014b5773ffffffffffffffffffffffffffffffffffffffff82165f9081526002602052604090205443900361012357604051631736a31960e01b815260040160405180910390fd5b73ffffffffffffffffffffffffffffffffffffffff82165f9081526002602052604090204390555b805f03610156575050565b5f54430361017c57805f6001015f828254610171919061020e565b909155506101859050565b435f5560018190555b6001547f000000000000000000000000000000000000000000000000000000000000000010156101c85760405163a74c1c5f60e01b815260040160405180910390fd5b5050565b5f5f604083850312156101dd575f5ffd5b823573ffffffffffffffffffffffffffffffffffffffff81168114610200575f5ffd5b946020939093013593505050565b8082018082111561022d57634e487b7160e01b5f52601160045260245ffd5b9291505056fea164736f6c634300081b000a60a0604052348015600e575f5ffd5b50604051610233380380610233833981016040819052602b91603b565b6001600160a01b03166080526066565b5f60208284031215604a575f5ffd5b81516001600160a01b0381168114605f575f5ffd5b9392505050565b6080516101af6100845f395f81816057015261010501526101af5ff3fe608060405234801561000f575f5ffd5b5060043610610034575f3560e01c80636b59084d14610038578063bc07c44314610042575b5f5ffd5b610040610055565b005b610040610050366004610160565b6100d2565b7f000000000000000000000000000000000000000000000000000000000000000073ffffffffffffffffffffffffffffffffffffffff16636b59084d6040518163ffffffff1660e01b81526004015f604051808303815f87803b1580156100ba575f5ffd5b505af11580156100cc573d5f5f3e3d5ffd5b50505050565b60405163bc07c44360e01b815273ffffffffffffffffffffffffffffffffffffffff8381166004830152602482018390527f0000000000000000000000000000000000000000000000000000000000000000169063bc07c443906044015f604051808303815f87803b158015610146575f5ffd5b505af1158015610158573d5f5f3e3d5ffd5b505050505050565b5f5f60408385031215610171575f5ffd5b823573ffffffffffffffffffffffffffffffffffffffff81168114610194575f5ffd5b94602093909301359350505056fea164736f6c634300081b000aa164736f6c634300081b000a",
  "linkReferences": {},
  "deployedLinkReferences": {}
}